:100000000C946A000C9492000C9492000C94920050
:100010000C9492000C9492000C9492000C94920018
:100020000C9492000C9449120C9492000C9492003F
:100030000C9492000C94470A0C9492000C94920039
:100040000C9492000C9492000C9492000C949200E8
:100050000C9492000C9492000C9492000C949200D8
:100060000C9492000C9492006A077007730776074D
:1000700079077C077F078207850788078B078E072C
:1000800020506F6C6F6C750033F720526F626F7485
:10009000004D617A6500736F6C766572003E673360
:1000A000323E3E633332004C4936206364656772EA
:1000B0006567340000000000000000000000000040
:1000C00000001F001F001F001F001F001F001F0057
:1000D0007713781311241FBECFEFD8E0DEBFCDBF5A
:1000E00011E0A0E0B1E0EEE8FAE302C005900D9265
:1000F000A839B107D9F712E0A8E9B1E001C01D9213
:10010000AA31B107E1F710E0C2EDD0E004C02297B8
:10011000FE010E94C21BC03DD107C9F70E94F9032E
:100120000C943A1D0C940000882311F08CE408957F
:10013000662311F083E50895442311F482E40895C1
:1001400082E50895CF93DF9330919C01333008F41A
:100150004CC0C32FD0E0FE01E15FFE4F80818234AE
:1001600009F043C0FE01E05FFE4F80E090E0AE0189
:10017000435F5E4F20812C3441F0223519F0223448
:1001800049F406C0865A9F4F05C0825F9E4F02C049
:100190008C549F4F3197E417F50761F768E671E0DB
:1001A0000E94391B8A35910589F08B3591051CF425
:1001B000892B41F017C0843B910561F08E5091402E
:1001C00089F40CC0C25FDE4F83E50BC0C25FDE4F17
:1001D00082E507C0C25FDE4F82E403C0C25FDE4F2C
:1001E0008CE48883325030939C01DF91CF91089545
:1001F0000F931F93CF93DF938EEC9FEF6EEC7FEF07
:100200000E94BD0F80E991E00E94941280E590E089
:1002100060EB7FEF0E94BD0F80E991E00E94941295
:1002200080E090E060E570E00E94BD0F8EEE92E00D
:100230000E94941280EA90E060E070E00E94BD0F9E
:100240008EEE92E00E94941280E090E060E070E018
:100250000E94BD0F84EF91E00E949412C8EDDFEF81
:1002600000E510E0B8016C1B7D0BCE010E94BD0FB4
:1002700084E190E00E9494122196C937D10591F74C
:100280008EEC9FEF62E370E00E94BD0FFFCF8C34D5
:1002900029F0823541F08234D9F410C080EB9FEF11
:1002A00060E570E004C080E590E060EB7FEF0E94C5
:1002B000BD0F88EC90E00E949412089580E590E0D4
:1002C00060EB7FEF0E94BD0F80E991E00E949412E5
:1002D00008952F923F924F925F926F927F928F92EA
:1002E0009F92AF92BF92CF92DF92EF92FF920F93C5
:1002F0001F93DF93CF93CDB7DEB72A970FB6F8944D
:10030000DEBF0FBECDBF66247724AA24BB246501BF
:100310001E010894211C311C6EE6462E512CC10191
:1003200061E00E948B1350E3852E58EF952E880EC6
:10033000991EC401AA2797FDA095BA2FA80EB91E31
:10034000CA1EDB1EC601B50120E137E240E050E0E5
:100350000E946E1B79018A01940126193709C9018F
:10036000880F991F820F931F62E070E00E94391B73
:100370009B012E0D3F1DC40164E170E00E94391BFA
:10038000260F371F2F3631057CF48FEF22393807BF
:100390001CF422E93FEF02C037FF08C0C9018259AF
:1003A0009F4F6EE670E007C02EE630E0B201621BA0
:1003B000730B8EE690E00E94BD0F8B819C8184368A
:1003C000910550F48D819E818436910528F48F81AA
:1003D00098858436910560F089819A81893C9105E0
:1003E00038F4340189859A85893C910508F497CFC2
:1003F0002A960FB6F894DEBF0FBECDBFCF91DF9126
:100400001F910F91FF90EF90DF90CF90BF90AF9032
:100410009F908F907F906F905F904F903F902F9024
:100420000895E0919C01F0E0EF5EFE4F10820E9483
:100430008F0C81E191E00E947B0D80919C018930BD
:1004400040F080E061E00E945F0C89E191E00E9451
:100450007B0D0895CF92DF92EF92FF920F931F933F
:10046000DF93CF93CDB7DEB72A970FB6F894DEBFF0
:100470000FBECDBF6E010894C11CD11C0E94690142
:1004800082E390E062E370E00E94BD0F82E390E0BF
:100490000E949412C60161E00E948B1309811A81A7
:1004A000E984FA8488E290E068E270E00E94BD0F7F
:1004B00088EC90E00E949412C60161E00E948B13C8
:1004C0008B819C812D813E81893C910550F4293C92
:1004D0003105C8F420E08F819885893C9105A0F012
:1004E00012C0293C310578F08F819885893C9105AF
:1004F00050F0809198019091990101969093990103
:100500008093980129C021E00536110510F01CE404
:100510000BC0222311F013E507C085E6E816F104AD
:1005200010F412E401C012E5812F0E94470180916E
:100530009C01E82FF0E0EF5EFE4F10838F5F809309
:100540009C010E94A2000E94110298CF80E090E0DE
:1005500060E070E00E94BD0F80E10E94C20F88231E
:10056000A9F300E010E01EC00E94690182E390E060
:1005700062E370E00E94BD0F82E390E00E9494125B
:1005800088E290E068E270E00E94BD0F88EC90E0A5
:100590000E949412F801EF5EFE4F80810E94470195
:1005A0000F5F1F4F80919C0190E008171907E4F23C
:1005B0000E94690180E090E060E070E00E94BD0F61
:1005C00088E893E10E9494120E94F800C5CF0F932F
:1005D0001F93CF93DF938C01C0E0D0E0F801EC0FC4
:1005E000FD1F8081918165E670E00E94251BFB0163
:1005F000EB58FE4F80810E94810D2296CA30D105B2
:1006000069F7DF91CF911F910F9108950F931F9379
:1006100004EB10E0C80160E00E94C70EC80102961A
:1006200061E00E94C70EC801049662E00E94C70EF6
:10063000C801069663E00E94C70EC801089664E0F0
:100640000E94C70EC8010A9665E00E94C70EC80145
:100650000C9666E00E94C70E0E948F0C1F910F91AE
:100660000895CF92DF92EF92FF920F931F93DF9343
:10067000CF93CDB7DEB72A970FB6F894DEBF0FBE83
:10068000CDBF80ED97E00E9406140E94060380E82B
:1006900090E00E946B0D80E061E00E945F0C88E8B2
:1006A00090E00E946B0D8DE990E00E94340A88EE84
:1006B00093E00E9494120E948F0C81E990E00E94C6
:1006C0006B0D80E061E00E945F0C86E990E00E9483
:1006D0006B0D88EE93E01BC00E940A067C010E940D
:1006E0008F0C0027F7FC0095102FC801B7010E945E
:1006F0005A0D80E091E00E947B0D80E061E00E9455
:100700005F0C83E091E00E947B0D84E690E00E9404
:10071000941280E10E94C20F8823F1F280E10E94CE
:10072000C61188EE93E00E9494120CEE1FEF08327F
:10073000110528F088E290E068ED7FEF04C088EDB5
:100740009FEF68E270E00E94BD0F81E00E94A61357
:1007500084E190E00E9494120F5F1F4F0C3311054B
:1007600031F780E090E060E070E00E94BD0F6E0124
:100770000894C11CD11C18C0C60161E00E948B13F3
:100780007C010E948F0C00E010E0C801B7010E94BC
:100790005A0D80E061E00E945F0CC6010E94E702F2
:1007A00084E690E00E94941280E10E94C20F8823A8
:1007B00019F380E10E94C6110E948F0C8BE091E03A
:1007C0000E947B0D87EA90E00E94340A0E94360660
:1007D0008823E1F72A960FB6F894DEBF0FBECDBF8F
:1007E000CF91DF911F910F91FF90EF90DF90CF900D
:1007F0000895E1E1F1E08CE4819391E0E537F907B8
:10080000D9F70E9431030E942A02FFCF982F80322D
:1008100078F487E880937A0080917C008064807609
:10082000892B80937C0080917A00806480937A0089
:10083000089580917C0085FF05C080917900282F64
:1008400030E004C02091780030917900C90108950A
:100850009093800180937F01089508950895809179
:100860007C0085FF05C080917900282F30E004C00E
:100870002091780030917900C9010895282F8032A5
:10088000B0F487E880937A0080917C00982F906480
:10089000662311F0806C02C0892F8F77807E822BB7
:1008A00080937C0080917A00806480937A00089520
:1008B000982F803278F487E880937A0080917C00CA
:1008C00080648076892B80937C0080917A0080649C
:1008D00080937A0080917A0086FDFCCF80917C0025
:1008E00085FF05C080917900282F30E004C0209159
:1008F000780030917900C90108950E945804089544
:10090000EF92FF920F931F93982F803278F487E82D
:1009100080937A0080917C0080648076892B80931C
:100920007C0080917A00806480937A0080917A00C4
:1009300086FDFCCFFB01EE24FF24870180917A0025
:10094000806480937A0080917A0086FDFCCF80914C
:100950007C0085FF04C08091790090E004C0809104
:10096000780090917900A0E0B0E0E80EF91E0A1F2F
:100970001B1F319719F7CB01969587956034710548
:1009800038F48E0D9F1D70E00E94251B9B010DC049
:10099000A0E0B0E0E80EF91E0A1F1B1F9B0140E01B
:1009A00050E0C801B7010E944C1BC9011F910F9173
:1009B000FF90EF90089587E064E170E00E9480046A
:1009C00008950E94800408959093800180937F0190
:1009D00008951F9310917C0080917C008F7D8093FF
:1009E0007C008EE164E170E00E9480048EE164E1AD
:1009F00070E00E9480049C0115FD04C080917C0081
:100A00008F7D03C080917C00806280937C00B9015F
:100A10007695679580E090E06C54744D8E4E9F4FB4
:100A200040E050E00E944C1BC9011F9108950E94B4
:100A3000E9040895A0E0B0E020917F0130918001A9
:100A400040E050E0BC01CD010E94FA1A9B01AC01CC
:100A500080917C0085FF0BC0B901CA0161587F4FAE
:100A60008F4F9F4F2FEF30E040E050E00AC0B901B8
:100A7000CA0161507E4F8F4F9F4F2FEF33E040E010
:100A800050E00E944C1BC90108950E9480040E94FE
:100A90001A0508950E944505089580917C0085FF00
:100AA00006C08091790090E00E941A050895809117
:100AB0007800909179000E941A050895982F80324D
:100AC00078F487E880937A0080917C008064807657
:100AD000892B80937C0080917A00806480937A00D7
:100AE00080917A0086FDFCCF0E944D0508950E94FA
:100AF0005E0508950E944D05089587E064E170E069
:100B00000E9480040E941A0508950E941A05089503
:100B10001F9310917C0080917C008F7D80937C00DE
:100B200086E064E170E00E9445059C0115FD04C06B
:100B300080917C008F7D03C080917C0080628093D7
:100B40007C00C901880F991F820F931F880F991F7E
:100B5000880F991F8A5792406DE070E00E94391B00
:100B6000CB011F9108950E94880508951F9310914D
:100B70007C0080917C008F7D80937C0086E064E126
:100B800070E00E9445059C0115FD04C080917C0029
:100B90008F7D03C080917C00806280937C0084E123
:100BA00090E0AC01249FC001259F900D349F900DD3
:100BB00011248E529F4167E270E00E94391BCB01E5
:100BC0001F9108950E94B60508951F9310917C000F
:100BD00080917C008F7D80937C0086E06AE070E0ED
:100BE0000E944505AC0115FD04C080917C008F7DFD
:100BF00003C080917C00806280937C009A01220F68
:100C0000331F240F351F2F5F3F4F36952795C9019E
:100C10001F9108950E94E50508951F9310917C008F
:100C200080917C008F7D80937C0086E06AE070E09C
:100C30000E944505AC0115FD04C080917C008F7DAC
:100C400003C080917C00806280937C009A01220F17
:100C5000331F240F351FC9011F9108950E940D06EF
:100C600008950E940D0608950895089580918C01BD
:100C7000882339F020E08091BB019091BC01892B41
:100C800009F021E0822F089510926F00E1E8F0E072
:100C90008081887F8160808380E197E290938900E2
:100CA0008093880010928B0010928A0081E08093DC
:100CB0008C011092BC011092BB01089510926F003C
:100CC00083E28093800081E1809381001092820012
:100CD00080E197E2909389008093880010928B00C6
:100CE00010928A00229A78940895A0E0B0E0EBE791
:100CF000F6E00C94911BFC015B01C42E8091BA01BB
:100D00008823C9F481E08093BA0110926F0083E2D6
:100D10008093800081E1809381001092820080E1C5
:100D200097E2909389008093880010928B00109234
:100D30008A00229A789410928C01F7FD03C0DD247A
:100D4000D39403C0FF772AE0D22E80918100082F30
:100D500010E0087F107088ECD89EC00111248E1717
:100D60009F07C0F4EF0187E2E131F80710F0C0E11E
:100D7000D7E2BE017695679580E090E060587946AD
:100D800087469F4F9E0140E050E00E944C1B790136
:100D9000016024C088E2D89E802D1124C82FD0E0A5
:100DA000CE17DF0708F4EF01BE01769567959E0127
:100DB00040E050E08AE0D81639F480E090E0605ED0
:100DC000734481449F4F06C080E090E060537D4EA5
:100DD0008C4E9F4F0E944C1B790102608AE0D8160E
:100DE00039F4CE0105966AE070E00E94251BEB0104
:100DF00083E0C83ED80711F4B5010FC0BE0180E002
:100E000090E0950140E050E00E94FA1A28EE33E0AD
:100E100040E050E00E946E1BB90110926F000093F9
:100E20008100F0928900E0928800E0918800F091C2
:100E30008900AC2DA03108F0AFE080E190E08A1B82
:100E4000910902C0F695E7958A95E2F7F0938B0039
:100E5000E0938A007093A2016093A10186B38FEFA3
:100E600086BB81E080936F00CDB7DEB7EAE00C94DB
:100E7000AD1B0E9475060895CF93DF93EB018F3F62
:100E800011F0442329F488EE93E0BE0140E067C0EE
:100E9000813110F420E005C0282F2051203608F0C1
:100EA0002FE5822F6CE00E94191B382F682F70E00D
:100EB00084EF9FEF689FF001699FF00D789FF00D20
:100EC0001124E20FF11DEC30F10538F4EC5CFF4F1A
:100ED0000C94C01B8CE991E023C080E090E020C01E
:100EE00085EB91E01DC08FEC91E01AC08AEE91E095
:100EF00017C087E092E014C086E292E011C087E458
:100F000092E00EC089E692E00BC08EE892E008C045
:100F100085EB92E005C08EED92E002C08AE093E09E
:100F2000373071F002C0880F991F6A95E2F73230AE
:100F300020F005966AE070E00BC0805090480BC02E
:100F400036E0880F991F3A95E1F7029665E070E068
:100F50000E94251BCB01403108F04FE0BE010E94EA
:100F60007506DF91CF9108950E943C070895809106
:100F70008C01882339F020E08091BB019091BC0165
:100F8000892B09F021E0822F089510926F00E1E88B
:100F9000F0E08081887F8160808380E197E2909398
:100FA00089008093880010928B0010928A0081E063
:100FB00080938C011092BC011092BB010895309176
:100FC0009F01E091BB01F091BC01332311F024910A
:100FD00001C02081822F81548A3108F4205E2032A2
:100FE00059F48091BB019091BC0101969093BC0192
:100FF0008093BB01019729F7822F0895CF93DF9348
:101000000E94DF07282FC0E0D0E01DC0CE0153E0D2
:10101000880F991F5A95E1F7CC0FDD1FC80FD91F14
:10102000822F992787FD9095C80FD91FE09780914F
:10103000BB019091BC0101969093BC018093BB01D0
:101040000E94DF07282F822F80538A30F8F2CE01CA
:10105000DF91CF910895A0E0B0E0E1E3F8E00C94D7
:101060008F1B80908101B0909D01BB2021F0609189
:101070009E01662399F4A0909E0100918601109133
:101080008701E0908201F0908301C0918401D091AA
:101090008501C0908801D090890108C18FEF70E070
:1010A00040E00E943C0710929E01CBC194E0892E43
:1010B000BB2404EF11E084E0E82EF12CC0EDD7E072
:1010C000B4E09B2EAFE0CA2ED12C0E94DF07282F60
:1010D0008091BB019091BC0101969093BC018093DB
:1010E000BB01263609F498C02736CCF42236A1F18C
:1010F000233674F42E3361F12F3334F42132B1F2FC
:101100002C3309F00BC126C0213609F007C121C1DB
:10111000243609F451C025360CF066C035C02F3690
:1011200009F4C1C0203754F42C3609F4A5C02D367B
:1011300009F4A6C0273609F0F1C086C0243709F4A7
:10114000D1C0263709F4E6C0223709F0E7C0B0C0A5
:101150008394BBCF8A94B9CFA0929E01B0929D0197
:101160001093870100938601F0928301E09282013F
:10117000D0938501C093840190928101D09289011E
:10118000C09288012BE0FCC0A0929E01B0929D010C
:101190001093870100938601F0928301E09282010F
:1011A000D0938501C093840190928101D0928901EE
:1011B000C092880120E0E4C0A0929E01B0929D01FF
:1011C0001093870100938601F0928301E0928201DF
:1011D000D0938501C093840190928101D0928901BE
:1011E000C092880122E0CCC0A0929E01B0929D01E5
:1011F0001093870100938601F0928301E0928201AF
:10120000D0938501C093840190928101D09289018D
:10121000C092880124E0B4C0A0929E01B0929D01CA
:101220001093870100938601F0928301E09282017E
:10123000D0938501C093840190928101D09289015D
:10124000C092880125E09CC0A0929E01B0929D01B1
:101250001093870100938601F0928301E09282014E
:10126000D0938501C093840190928101D09289012D
:10127000C092880127E084C00E94FE077C0144C020
:101280000E94DF078C3611F4BB2403C0AA24BB24C0
:10129000B3948091BB019091BC0101969093BC01E5
:1012A0008093BB0112CF0E94FE07882E982C0DCF91
:1012B000A0929E01B0929D01109387010093860138
:1012C000F0928301E0928201D0938501C093840162
:1012D00090928101D0928901C092880120E0FF2480
:1012E000F3944FC00E94FE07BC0180EC9DE50E9474
:1012F000251BCB01EB01F3E0CC0FDD1FFA95E1F7E5
:10130000880F991FC80FD91FCE01B7010E94251B56
:101310008B01DBCE0E94FE076C01D7CEA0929E010E
:10132000B0929D011093870100938601F092830192
:10133000E0928201D0938501C09384019092810153
:10134000D0928901C09288011092BC011092BB0119
:1013500078C0A0929E01B0929D01109387010093E6
:101360008601F0928301E0928201D0938501C093BF
:10137000840190928101D0928901C092880129E074
:10138000FF248CE0889EC0011124E22EE80E0AC0E2
:101390008091BB019091BC0101969093BC01809318
:1013A000BB01E3940E94DF078B3291F3833281F318
:1013B0000CC08091BB019091BC0101969093BC013F
:1013C0008093BB01EA940E94DF078D3291F3C091B4
:1013D0008601D09187018153883058F400918401AF
:1013E000109185010E94FE07BC01C8010E94251BC7
:1013F000EB018E010BC08091BB019091BC01019665
:101400009093BC018093BB01C00FD11F1695079527
:101410000E94DF078E3279F380919D01882339F095
:10142000CE019695879580939E01C81BD109FF2018
:1014300011F0EE24EA948E2DBE01409188010E94A5
:101440003C07CDB7DEB7ECE00C94AB1B10926F00FD
:101450009093BC018093BB0181E080939F01109227
:101460009E010E942B0808950E94260A089510925A
:101470006F009093BC018093BB0110929F0110926A
:101480009E010E942B0808950E94370A08951F921A
:101490000F920FB60F9211242F933F934F935F93A8
:1014A0006F937F938F939F93AF93BF93EF93FF932C
:1014B0008091A1019091A20101979093A201809344
:1014C000A101019611F510926F007894809181002E
:1014D000887F81608093810080E197E2909389000A
:1014E0008093880010928B0010928A0081E0809394
:1014F0008C018091BB019091BC01892B31F08091CE
:10150000A001882311F40E942B08FF91EF91BF9155
:10151000AF919F918F917F916F915F914F913F918B
:101520002F910F900FBE0F901F90189510926F0083
:1015300080918C01882341F08091BB019091BC0186
:10154000892B11F00E942B0881E080936F0020E02E
:101550008091BB019091BC01892B09F021E0822F81
:1015600008958093A001882311F40E94960A08959B
:101570000E94B10A08950E94960A08950895089558
:1015800080E090E00895EF92FF920F931F936AB16D
:1015900057985A98289AE090A701F090A8010091D6
:1015A000A9011091AA0120E030E041E050E0CA0119
:1015B0006F9364E06A95F1F76F910197C9F75C9AB0
:1015C000CA016F9364E06A95F1F76F910197C9F7CB
:1015D00089B15C98FA016F9364E06A95F1F76F91B5
:1015E0003197C9F75C9AFA016F9364E06A95F1F755
:1015F0006F913197C9F75C9887FF0BC02C5F3F4F05
:10160000C901A0E0B0E08E159F05A007B10708F45E
:10161000CECF6AB91F910F91FF90EF90089565B1F9
:1016200090E0AC0141705070440F551F9C01267032
:10163000307053E0220F331F5A95E1F7422B6D7C37
:10164000462B45B92BB18870907034E0880F991FF4
:101650003A95E1F72F77282B2BB95C9A81E090E03F
:10166000FC016F9364E06A95F1F76F913197C9F7C8
:101670005C986F9364E06A95F1F76F910197C9F7F1
:1016800008958091A3019091A401009711F00E9408
:10169000731C80918A0190E0019720918B0130E0CA
:1016A000AC01429FC001439F900D529F900D1124A9
:1016B0000E94C61B9093A4018093A301009729F177
:1016C00060E070E208C0E091A301F091A401E40F92
:1016D000F51F70836F5F462F50E080918A0190E084
:1016E000019720918B0130E0FC01E29FC001E39F54
:1016F000900DF29F900D11244817590724F384E8A8
:101700009DE060EC7AE00E94CB1C089580938B01F1
:1017100060938A010E94410B089580938B0160932E
:101720008A010E94410B08950E94410B089580E1B7
:1017300097E2A0E0B0E08093A7019093A801A09366
:10174000A901B093AA01529A209A549A8EE190E08E
:101750000E94B41283E00E94CA0E86E090E00E94CC
:10176000B41283E00E94CA0E82E090E00E94B4129C
:1017700083E00E94CA0E82E090E00E94B41282E0F0
:101780000E94CA0E82E090E00E94B41288E20E9499
:10179000140C88E00E94140C81E00E94140C86E076
:1017A0000E94140C8CE00E94140C08958091AB01EF
:1017B000882329F481E08093AB010E94970B089560
:1017C000BF92CF92DF92EF92FF920F931F93082F59
:1017D000162FF42E0E94D60B0E94C30AB4B0C5B0D7
:1017E000DAB0EBB02898112311F05A9A01C05A9838
:1017F00084B1826384B9579A81E0F81629F0802F6A
:1018000082958F700E940F0B802F8F700E940F0B9C
:10181000DAB8EBB8B4B8C5B81F910F91FF90EF904C
:10182000DF90CF90BF90089560E042E00E94E00B0F
:1018300008950F931F93082F162F08C0002311F44B
:1018400080E101C084E10E94140C11501123B1F712
:101850001F910F9108950E94190C08958CE00E9429
:10186000140C08950E942E0C0895813011F48FE01D
:1018700001C08EE00E94140C08950E94350C08955A
:10188000A4E0B0E0E6E4FCE00C94971B182F062FD0
:1018900080E8898380EC8A8384E98B8384ED8C8360
:1018A000FE01E60FF11D8181810F0E94140C10933F
:1018B000A6010093A5012496E4E00C94B31B0E94BA
:1018C000400C089581E00E94140C8091A301909136
:1018D000A401892B19F160E070E208C0E091A30136
:1018E000F091A401E40FF51F70836F5F462F50E065
:1018F00080918A0190E0019720918B0130E0FC01FA
:10190000E29FC001E39F900DF29F900D11244817B4
:10191000590724F31092A6011092A50108950E9480
:10192000620C089561E042E00E94E00B08950F937D
:101930001F93CF93DF9300E010E8C82FD0E0812FF2
:1019400090E08C239D23892B11F081E301C080E37B
:101950000E94920C0F5F083011F01695F0CFDF91C6
:10196000CF911F910F9108950E94970C08958A308E
:1019700010F4805D01C0895C0E94920C08951F9351
:10198000182F82958F700E94B70C812F8F700E9444
:10199000B70C1F9108951F93182F892F0E94BF0C19
:1019A000812F0E94BF0C1F9108950E94CB0C0895B7
:1019B0000E94BF0C08956F927F928F929F92AF9278
:1019C000BF92CF92DF92FF920F93DF93CF93CDB769
:1019D000DEB72A970FB6F894DEBF0FBECDBF5B010E
:1019E0006C010AE03E010894611C711CFA2CC601CE
:1019F000B5012AE030E040E050E00E944C1BC901F4
:101A0000DA015C016D0101504301800E911C80E3FD
:101A1000F80EC601B5012AE030E040E050E00E9437
:101A2000FA1AF61AF401F082A114B104C104D10427
:101A3000E9F608C0F601E00FF11D80810E94920CCA
:101A40000F5F04C06E010894C11CD11C0A3090F3D2
:101A50002A960FB6F894DEBF0FBECDBFCF91DF91AF
:101A60000F91FF90DF90CF90BF90AF909F908F909D
:101A70007F906F9008950E94DB0C0895EF92FF9283
:101A80000F931F937B018C0197FF0BC0109500955E
:101A9000F094E094E11CF11C011D111D8DE20E94E7
:101AA000920CC801B7010E94DB0C1F910F91FF90AF
:101AB000EF9008950E943E0D0895CF93DF93EC01BF
:101AC00003C00E94920C2196FE0184918823C9F7DD
:101AD000DF91CF9108950E945D0D0895CF93DF931C
:101AE000EC0103C021960E94920C88818823D1F7D3
:101AF000DF91CF9108950E946E0D08950E94920C7F
:101B000008950E94920C0895A0E0B0E0EAE8FDE09C
:101B10000C94931BE82E8091A3019091A401892B32
:101B200009F405C12AE0E21609F446C038E0E316DC
:101B3000C9F48091A60181508093A6018F3F51F492
:101B40008091A50181508093A50180918B018150E6
:101B50008093A6018091A5018F3F09F0E2C0109209
:101B6000A501DDC08E2D0E94920C2091A50122239B
:101B7000C9F030E02150304080918B0190E0AC0101
:101B8000249FC001259F900D349F900D112420911A
:101B9000A601E091A301F091A401E80FF91FE20F63
:101BA000F11DE0828091A6018F5F8093A601909144
:101BB0008B01891709F0BBC04091A501242F30E0AB
:101BC00080918A0190E001972817390709F0A4C095
:101BD000C0E0D0E044C080E06C2F0E94400CFF24A5
:101BE0006E010894C11CD11C35C00F2D10E090E08F
:101BF0009C01C29FC001C39F900DD29F900D1124E4
:101C0000E091A301F091A401E00FF11FE80FF91F8B
:101C100080810E94920CE091A301F091A401809137
:101C20008B0190E0C89FD001C99FB00DD89FB00D27
:101C30001124E00FF11FAE0FBF1FAC01C49EC00105
:101C4000C59E900DD49E900D1124E80FF91F808140
:101C50008C93F39480918B01F81638F2E601609131
:101C60008A01862F90E00297C817D9070CF4B3CFEA
:101C7000623008F440C0625080E00E94400CFF24B3
:101C8000E0E2DE2E34C00F2D10E080918A0190E05A
:101C9000029730E0AC01429FC001439F900D529FDC
:101CA000900D1124E091A301F091A401E00FF11F28
:101CB000E80FF91F80810E94920C20918A0130E088
:101CC0002250304080918B0190E0AC01249FC001F4
:101CD000259F900D349F900D1124E091A301F09168
:101CE000A401E00FF11FE80FF91FD082F3942091B7
:101CF0008B01F21640F260918A01615080E00E94EF
:101D0000400C00E004C080E20E94920C0F5F8091C2
:101D10008B010817C0F303C04F5F4093A5011092D9
:101D2000A6018091A6016091A5010E94400C2E2D74
:101D3000332727FD3095C901CDB7DEB7E8E00C9415
:101D4000AF1BEF92FF920F931F93CF93DF937C0112
:101D5000062F10E0F3E0000F111FFA95E1F7C0E045
:101D6000D0E09E01200F822F80640E94140CF701A6
:101D7000EC0FFD1FE4918E2F0E94920C2196C8302B
:101D8000D10579F7CDB7DEB7E6E00C94B11B0E9420
:101D9000A10E089560E041E00E94E00B08950F93CA
:101DA0001F93CF93DF93082F162FEA010BC0002358
:101DB00011F488E101C08CE10E94140CCE010E9454
:101DC000B4121150112399F7DF91CF911F910F9108
:101DD00008950E94CF0E0895282F883068F481E07E
:101DE00090E002C0880F991F2A95E2F7282FAAE2F7
:101DF000B0E0EBE2F0E029C08E3080F430E0285013
:101E0000304081E090E002C0880F991F2A95E2F7E8
:101E1000282FA4E2B0E0E5E2F0E017C0853130F011
:101E200020E0A0E0B0E0E0E0F0E00FC030E02E50B5
:101E3000304081E090E002C0880F991F2A95E2F7B8
:101E4000282FA7E2B0E0E8E2F0E06F3F19F48081CC
:101E5000822709C0662319F08081822B04C09081FB
:101E6000822F8095892380838C91822B8C93089577
:101E700008950895E0EBF0E083EF8083808184BDD6
:101E8000E1EBF0E082E08083808185BDE4EBF0E06F
:101E900010828081E3EBF0E08083808188BD88B58B
:101EA00087BD86E060E00E94EC0E85E060E00E9465
:101EB000EC0E8BE060E00E94EC0E83E060E00E949C
:101EC000EC0E08958091AC01882329F481E0809381
:101ED000AC010E943A0F0895CF93DF93EC010E946A
:101EE000620FD7FD02C020E004C0D095C195DF4F3E
:101EF00021E0CE01CF3FD10519F014F08FEF90E033
:101F0000222319F018BC87BD02C088BD17BCDF9121
:101F1000CF9108950E946C0F0895CF93DF93EC0149
:101F20000E94620FD7FD02C020E004C0D095C19589
:101F3000DF4F21E0CE01CF3FD10519F014F08FEF34
:101F400090E0222329F01092B4008093B30004C0E3
:101F50008093B4001092B300DF91CF9108950E9456
:101F60008D0F08950F931F938B010E946C0FC80172
:101F70000E948D0F1F910F9108950E94B20F089536
:101F800008950895282F8091AD01882391F481E070
:101F90008093AD0184B18D7C84B985B1826385B9AC
:101FA00085E090E06F9364E06A95F1F76F91019797
:101FB000C9F783B18095822308958091AD0188236C
:101FC00091F481E08093AD0184B18D7C84B985B1B9
:101FD000826385B985E090E06F9364E06A95F1F7DC
:101FE0006F910197C9F7089584B18D7C84B985B14B
:101FF000826385B985E090E06F9364E06A95F1F7BC
:102000006F910197C9F70895282F8091AD0188231A
:1020100091F481E08093AD0184B18D7C84B985B168
:10202000826385B985E090E06F9364E06A95F1F78B
:102030006F910197C9F783B18095822308950F931B
:102040001F93082F13B10E94E512AB01BC018091D0
:10205000AD01882391F481E08093AD0184B18D7C42
:1020600084B985B1826385B985E090E06F9364E0BF
:102070006A95F1F76F910197C9F78091B3018130AB
:1020800011F1813038F0823009F443C0833009F017
:1020900089C065C0202F30E0812F90E08095909519
:1020A00028233923232B09F47DC010951023109386
:1020B000AE014093AF015093B0016093B1017093B2
:1020C000B20181E06DC08091AF019091B001A0910B
:1020D000B101B091B201481B590B6A0B7B0B4F3019
:1020E00051056105710508F45DC04091AE01812F75
:1020F00090E080959095242F30E082239323892BC4
:1021000059F182E08093B301109514231093AE012E
:1021100049C0E091AE01AE2FB0E0212F30E0CD01FB
:1021200082239323892B79F083E08093B301E12309
:10213000E093AE014093AF015093B0016093B101C1
:102140007093B2012FC0802F90E0209530958223AC
:102150009323A817B90731F11092B30123C08091DE
:10216000AF019091B001A091B101B091B201481BB3
:10217000590B6A0B7B0B4F3051056105710590F0CF
:102180004091AE01842F90E0212F30E082239323F1
:10219000892B29F01092B301842F812304C082E09F
:1021A0008093B30180E01F910F9108950E941F104A
:1021B00008950F931F93082F13B110950E94E512F5
:1021C000AB01BC018091AD01882391F481E0809343
:1021D000AD0184B18D7C84B985B1826385B985E018
:1021E00090E06F9364E06A95F1F76F910197C9F7FA
:1021F0008091B901813011F1813038F0823009F4D9
:1022000043C0833009F089C065C0202F30E0812FA2
:1022100090E08095909528233923232B09F47DC0E5
:10222000109510231093B4014093B5015093B6015B
:102230006093B7017093B80181E06DC08091B501E2
:102240009091B601A091B701B091B801481B590B0C
:102250006A0B7B0B4F3051056105710508F45DC0B9
:102260004091B401812F90E080959095242F30E02B
:1022700082239323892B59F182E08093B901109531
:1022800014231093B40149C0A091B401212F30E070
:10229000EA2FF0E0C9018E239F23892B79F083E098
:1022A0008093B9011A231093B4014093B501509360
:1022B000B6016093B7017093B8012FC0802F90E0F2
:1022C0002095309582239323E817F90731F1109276
:1022D000B90123C08091B5019091B601A091B701D9
:1022E000B091B801481B590B6A0B7B0B4F3051055D
:1022F0006105710590F04091B401812F90E0242F89
:1023000030E082239323892B29F01092B901812F89
:10231000842304C082E08093B90180E01F910F9173
:1023200008950E94D91008951F93CF93DF93182F1B
:102330008091AD01882391F481E08093AD0184B157
:102340008D7C84B985B1826385B985E090E06F9317
:1023500064E06A95F1F76F910197C9F7C12FD0E05A
:1023600083B190E08C239D23892BD1F38AE090E008
:102370000E94B41283B190E08C239D23892B81F3BA
:1023800083B18123DF91CF911F9108950E94941111
:1023900008951F93CF93DF93182F8091AD01882369
:1023A00091F481E08093AD0184B18D7C84B985B1D5
:1023B000826385B985E090E06F9364E06A95F1F7F8
:1023C0006F910197C9F7C12FD0E083B190E080955C
:1023D00090958C239D23892BC1F38AE090E00E9485
:1023E000B41283B190E0809590958C239D23892B26
:1023F00061F383B180958123DF91CF911F9108957F
:102400001F930E94C911182F0E949411812F1F91B0
:1024100008950E94001208950E94C9110895A2E033
:10242000B0E0E5E1F2E10C94991B209110023091AB
:102430001102CE0101962115310519F48A519240FD
:1024400002C0821B930B9A83898389819A81229689
:10245000E2E00C94B51B08950895A2E0B0E0E3E338
:10246000F2E10C94991B2091100230911102CE01DF
:1024700001962115310519F48A51924002C0821B40
:10248000930B9A83898389819A812296E2E00C9446
:10249000B51B2F928F939F932FB68091BE01909181
:1024A000BF0101968093BE019093BF0190E080919F
:1024B000C001891F8093C0019091C6019C5F9093D9
:1024C000C6018091C50180519742C0F09093C6012A
:1024D0008093C5018091C1019091C20101968093C2
:1024E000C1019093C20190E08091C301891F809344
:1024F000C3018091C401891F8093C4012FBE9F91A5
:102500008F912F9018956F5F7F4F8F4F9F4F660F62
:10251000771F881F991F25E030E040E050E00E94BF
:102520004C1BCA01B901089528EE33E009C0F90136
:102530006F9364E06A95F1F76F913197C9F701974E
:102540000097A9F708956F5F7F4F8F4F9F4F660FDA
:10255000771F881F991F25E030E040E050E00E947F
:102560004C1BCA01B901089528EE33E009C0F901F6
:102570006F9364E06A95F1F76F913197C9F701970E
:102580000097A9F70895A0E7B0E08C918E7F8C9317
:10259000E0EBF0E0808183608083E1EBF0E080811C
:1025A000807F8083808182608083B89A8C918160F3
:1025B0008C93789408958091C701882329F481E051
:1025C0008093C7010E94C31208950E94DB12E0E7C6
:1025D000F0E080818E7F80832091C1013091C20123
:1025E0004091C3015091C401808181608083B90111
:1025F000CA0108950E94E51208950E94DB1280919D
:1026000070008E7F809370006091B2008091BD0158
:102610009091BE01A091BF01B091C001B89905C0D1
:10262000262F30E040E050E011C08091B2002091B0
:10263000BD013091BE014091BF015091C0012050B9
:102640003F4F4F4F5F4F90E0A0E0B0E0282B392B79
:102650004A2B5B2B80917000816080937000B901E0
:10266000CA0108950E94FD1208950E94DB12E0E75E
:10267000F0E080818E7F80831092C1011092C201B0
:102680001092C3011092C4011092C6011092C501AC
:1026900080818160808308950E9435130895809120
:1026A000C8019091C90108958091CA019091CB0110
:1026B00008958091CC019091CD0108958091CE0133
:1026C0009091CF0108958091C8019091C90108951A
:1026D0008091CA019091CB0108958091CC01909195
:1026E000CD0108958091CE019091CF010895089574
:1026F00088EC91E00E946A19089588EC91E00E94AC
:10270000911808959C01462F88EC91E0B90121E0D1
:102710000E94911808959C01462F88EC91E0B90120
:1027200020E00E949118089588EC91E00E94D4174F
:1027300008959C01462F88EC91E0B9010E94D417BE
:10274000089588EC91E00E948A1A0895682F88EC19
:1027500091E00E948A1A089588EC91E00E94AD14DD
:10276000089588EC91E00E94AD14089588EC91E002
:102770000E94C514089588EC91E00E94C514089544
:102780009C01462F88EC91E0B9010E94351708950D
:102790009C01462F88EC91E0B9010E9435170895FD
:1027A0000F93DF93CF9300D000D00F92CDB7DEB759
:1027B0009C01962FDE011196EDE8F1E085E0019095
:1027C0000D928150E1F7BE016F5F7F4F992329F091
:1027D00088EC91E045E00FEF04C088EC91E045E023
:1027E00003E10E942D1588EC91E00E94AD140E9437
:1027F00035130F900F900F900F900F90CF91DF91A6
:102800000F91089561E00E94D013089560E00E9446
:10281000D013089588EC91E00E94DC140895A091F3
:102820000E02B0910F021C96ED91FC911D9730970E
:1028300079F0808119969C911997892B80831A963B
:10284000ED91FC911B97808119969C91892B808337
:102850000895A0910E02B0910F021C96ED91FC918B
:102860001D97309781F0808119969C911997892B3B
:1028700080831A96ED91FC911B97908119968C910B
:102880008095892380830895E0910E02F0910F02D4
:10289000808191810895E0910E02F0910F02828172
:1028A00093810895E0910E02F0910F028481958149
:1028B0000895E0910E02F0910F02868197810895AC
:1028C000FC011182108213821282158214821782F7
:1028D0001682613118F080E1808701C06087208B0B
:1028E000483060F481E090E002C0880F991F4A955B
:1028F000E2F74AE250E02BE230E029C04E3080F4AB
:10290000242F30E02850304081E090E002C0880F52
:10291000991F2A95E2F744E250E025E230E017C023
:10292000453130F080E040E050E020E030E00FC082
:10293000242F30E02E50304081E090E002C0880F1C
:10294000991F2A95E2F747E250E028E230E08187BC
:1029500033872287558744870895DC011C96ED91C3
:10296000FC911D97309781F0808119969C91199761
:10297000892B80831A96ED91FC911B979081199673
:102980008C918095892380830895DC011C96ED91BC
:10299000FC911D97309779F0808119969C91199739
:1029A000892B80831A96ED91FC911B978081199653
:1029B0009C91892B80830895DC0120E040C0ED913B
:1029C000FC911197309761F0822F90E0880F991F4A
:1029D000E80FF91F1E968D919C911F97918380831C
:1029E0001496ED91FC911597309761F0822F90E04D
:1029F000880F991FE80FF91F1E968D919C911F97C4
:102A0000918380831296ED91FC911397309741F05A
:102A1000822F90E0880F991FE80FF91F1182108212
:102A20001696ED91FC911797309741F0822F90E028
:102A3000880F991FE80FF91F118210822F5F1896D7
:102A40008C911897281708F4BACF089580910E0238
:102A500090910F020E94DC140895A0E0B0E0E3E33F
:102A6000F5E10C94911BEC015B01642F7901402F7F
:102A700020E00E946014CE018F5B9F4FFC0110820A
:102A8000DE01AE5BBF4F1C92FE01ED5BFF4F10827B
:102A9000FF86EE8640E061E070E06F017D018C0111
:102AA0004EC0F501E40FF11D8081883050F49B0188
:102AB00002C0220F331F8A95E2F7922F29E230E0FD
:102AC0001FC08E3060F490E00897FB0102C0EE0F4B
:102AD000FF1F8A95E2F79E2F23E230E011C0853177
:102AE00020F090E020E030E00BC090E00E979B01DA
:102AF00002C0220F331F8A95E2F7922F26E230E0C0
:102B0000E42FF0E0DE01AE0FBF1F51969C93EE0F55
:102B1000FF1FEC0FFD1F32A321A32332310511F457
:102B2000F80109C02632310511F4F70104C0293239
:102B3000310521F4F6018081982B90834F5F8885C1
:102B4000481708F4AECFCDB7DEB7EAE00C94AD1B62
:102B50000F930E942D150F9108950F930E942D152C
:102B60000F910895A0E0B0E0E8EBF5E10C948F1B25
:102B7000EC015B01CF5BDF4F4991A9918880C35481
:102B8000D04090E009C0E92FF0E0EE0FFF1FEA0D02
:102B9000FB1D118210829F5F88859817A0F384B176
:102BA000CF5BDF4F3991832B84B987B12991822B79
:102BB00087B98AB19881C354D040892B8AB985B12D
:102BC000832B85B988B1822B88B98BB1892B8BB9BE
:102BD000EAE0F0E06F9364E06A95F1F76F91319766
:102BE000C9F784B13095832384B987B120958223B6
:102BF00087B98AB1909589238AB985B1382335B9C7
:102C000088B1282328B98BB198239BB99090B00044
:102C1000C090B1008091B00083608093B00082E0EA
:102C20008093B100D090B20060E070E03AC0509163
:102C3000B2005D19650F711DE3B0E41609F04FC0D5
:102C4000F6B0FA1609F04BC089B1881509F047C0F3
:102C500025C0A42FB0E09D01220F331F8501020F74
:102C6000131FF80180819181892BA1F42C0F3D1F46
:102C7000F90181A192A1FC01208130E0AC0FBD1FC0
:102C800051968C9190E028233923232B19F4F801D5
:102C9000718360834F5F88854817D8F2D50E4E2D1B
:102CA000AF2D8E859F856817790708F29092B00046
:102CB000C092B10020E00FC0E22FF0E0EE0FFF1F46
:102CC000EA0DFB1D80819181892B21F48E859F85E2
:102CD000918380832F5F8885281770F305C0E3B048
:102CE000F6B089B040E0D7CFCDB7DEB7ECE00C94BA
:102CF000AB1BEF92FF920F931F93CF93DF93EC01E7
:102D00007B01122F642F402F21E00E94601419A331
:102D10001AA230E041E050E013C0E32FF0E0D70109
:102D2000AE0FBF1FEC0FFD1F8C91818BCA010C9061
:102D300002C0880F991F0A94E2F7282B2AA33F5F4D
:102D400088852AA1381748F32F732AA38FEF93E0C1
:102D50009F878E87CDB7DEB7E6E00C94B11B0F934B
:102D60000E9479160F9108950F930E9479160F9182
:102D70000895A0E0B0E0EFEBF6E10C94931BEC01BA
:102D80008B01D0907C00E0907A00C7B0F8B08091C1
:102D90007A0086FDFCCF90E009C0E92FF0E0EE0F4D
:102DA000FF1FE00FF11F118210829F5F8885981727
:102DB000A0F397B18AA18095982397B998B18923F8
:102DC00088B987E880937A0050E025C0FE01E40FBF
:102DD000F11D8189806480937C0080917A008064F9
:102DE00080937A0080917A0086FDFCCFE42FF0E09A
:102DF000EE0FFF1FE00FF11F209178003091790056
:102E000080819181820F931F918380834F5F88859A
:102E10004817E0F25F5F89A1581710F040E017C033
:102E200040E0F5CFE42FF0E0EE0FFF1FE00FF11FC1
:102E300069A1862F90E09595879520813181820F39
:102E4000931F70E00E94251B718360834F5F88850C
:102E5000481740F3D0927C00E0927A00F8B8C7B8E7
:102E6000CDB7DEB7E8E00C94AF1BA0E2B0E0EBE337
:102E7000F7E10C94921B8C017B01D42E842F81509E
:102E80008230B0F4D8011C96ED91FC911D973097DB
:102E900079F0808119969C911997892B80831A96D5
:102EA000ED91FC911B97808119969C91892B8083D1
:102EB000F8018089882349F5C02EB12EC801B701D9
:102EC0000E94B215D8011C96ED91FC911D97309788
:102ED00081F0808119969C911997892B80831A968D
:102EE000ED91FC911B97908119968C918095892387
:102EF0008083B2E0DB1609F053C08C2D9B2DBE0100
:102F00006F5F7F4F0E94B21527C0C02EB12EC8013F
:102F1000B7010E94B916D8011C96ED91FC911D973E
:102F2000309781F0808119969C911997892B808325
:102F30001A96ED91FC911B97908119968C91809532
:102F400089238083B2E0DB1659F58C2D9B2DBE01C1
:102F50006F5F7F4F0E94B91640E0BE016F5F7F4FE9
:102F60001AC0E42FF0E0EE0FFF1F6701CE0EDF1E48
:102F7000E60FF71FD8011E962D913C911F97808177
:102F80009181281B390BF60180819181820F931F5B
:102F9000918380834F5FD80118968C91481708F36E
:102FA000A096E9E00C94AE1BA0E0B0E0EAEDF7E1FA
:102FB0000C94901BEC01162F072F942E22E0421741
:102FC00011F0442351F48C819D81892B09F4A4C014
:102FD0008E819F81892B09F49FC0892D8150823079
:102FE00050F488819981892B09F496C08A819B814C
:102FF000892B09F491C0CE01612F702F492D0E94B9
:103000003517812F902F9C015901CC24DD2400E03D
:1030100010E07CC081E0981669F4EA81FB81E00F42
:10302000F11F20813181E881F981E00FF11F40819A
:1030300051813DC0AC81BD81992059F4EE81FF8161
:10304000E00FF11F20813181A00FB11F4D915C91E4
:103050002EC0A00FB11F8D919C91E881F981E00FE6
:10306000F11F20813181EE85FF858217930710F4CF
:10307000AF0105C0A9014E0F5F1F481B590BEE8120
:10308000FF81E00FF11F60817181EA81FB81E00F18
:10309000F11F80819181EE85FF856817790710F413
:1030A0009F0105C09C012E0F3F1F261B370B790186
:1030B000E41AF50A01F1F5016081718180E090E088
:1030C0009A0140E050E0621B730B840B950B28EED5
:1030D00033E040E050E00E94FA1A970140E050E0EF
:1030E0000E946E1BC901F3E0293E3F0714F088EEF1
:1030F00093E097FF02C080E090E0F5018193919307
:103100005F010894C11CD11C0E5F1F4F888590E0A1
:10311000C816D9060CF47ECFCDB7DEB7EBE00C9421
:10312000AC1BA4E0B0E0E7E9F8E10C94891B8C014A
:10313000F62EE72E2A830E94D417D8011896BC9148
:10314000B9832F2D3E2DC9018C01552444246624BA
:10315000772443011C821B82AA24BB246501B8EE9C
:103160002B2EB3E03B2E32C0F801E080F180FA81D3
:10317000FF2321F091012E193F09790139ECE31663
:10318000F10414F04424439483E3E816F1049CF022
:10319000B701882777FD8095982FA60195010E9499
:1031A000FA1A660E771E881E991EAB81BC81AE0D81
:1031B000BF1DBC83AB83539488EE93E0A0E0B0E0E6
:1031C000A80EB91ECA1EDB1E0E5F1F4F998159162D
:1031D00058F2442021F5692F70E084EF91E0DC0182
:1031E0006A9FC0016B9F900D7A9F900D1124845FA0
:1031F000914020910C0230910D02281739071CF4E0
:1032000040E050E01AC088EE93E0689FA001699FFB
:10321000500D789F500D1124485E53400EC0EB8135
:10322000FC819F0140E050E0C401B3010E944C1BAF
:10323000A90130930D0220930C02CA012496E2E109
:103240000C94A51B9C01462F80910E0290910F02B9
:10325000B90121E00E94911808959C01462F8091A8
:103260000E0290910F02B90120E00E94911808957A
:103270009C01462F80910E0290910F02B9010E948D
:10328000D41708959C01462F80910E0290910F0251
:10329000B9010E9435170895CF93DF93EC018A811D
:1032A0009B81009711F00E94731C8E819F81009773
:1032B00011F00E94731C88819981009711F00E947F
:1032C000731C8C819D81009711F00E94731CDF910B
:1032D000CF910895CF93DF93EC018A819B81009772
:1032E00011F00E94731C8E819F81009711F00E9443
:1032F000731C88819981009711F00E94731C8C8146
:103300009D81009711F00E94731CDF91CF91089569
:10331000A3E6B0E0EEE8F9E10C94891B7C015B01C7
:103320006A01A2962FAFA297DA018D919C91892B09
:1033300011F5F701808590E0880F991F0E94C61B48
:10334000D6018D939C93009709F4DFC020E030E014
:103350000CC0C901880F991FD601ED91FC91E80FAF
:10336000F91F118210822F5F3F4FF701808590E097
:103370002817390774F3D5018D919C91892B89F019
:1033800000E010E03E010894611C711C41E4242E11
:10339000312C2C0E3D1E31E2432E512C4C0E5D1E65
:1033A00028C0F701808590E0880F991F0E94C61BF6
:1033B000D5018D939C93009709F4A7C020E030E0DD
:1033C00011C0C901880F991FD501ED91FC91E80F3B
:1033D000F91FD7011E968D919C911F979183808331
:1033E0002F5F3F4FF701808590E0281739074CF396
:1033F000C7CFC701B301A2964FADA2970E94351760
:10340000D70118968C91882E9924A101F301A496D6
:103410005FAE4EAEA49760E070E034C001151105B8
:1034200059F0A496AEADBFADA4972D913C9180818B
:1034300091812817390758F480819181A496AEAD07
:10344000BFADA4978D939C930115110541F0DA014E
:103450002D913C91808191818217930728F480817E
:103460009181DA018D939C936F5F7F4F4E5F5F4F29
:103470003296A4968EAD9FADA4970296A4969FAF68
:103480008EAFA497681579054CF20F5F1F4F0A3075
:10349000110509F0AECF40E050E020E030E08E01B1
:1034A0000F5B1F4FBE016F5D7F4F28C0F801E20F19
:1034B000F31F80809180F601A081B181A20FB31F1C
:1034C0008D919C9111978815990510F48D929C927D
:1034D000FB01E20FF31F80809180F501A081B18193
:1034E000A20FB31F8D919C9111978816990610F425
:1034F0008D929C924F5F5F4F2E5F3F4FD701189682
:103500008C9190E0481759078CF2CD59DF4FE2E1DA
:103510000C94A51B1F93CF93DF93EC01162F862FDE
:103520008150823040F4AE014E5F5F4FCE01BE014C
:1035300021E00E948819123011F0112349F4AE01E4
:103540004A5F5F4FCE012496BE0120E00E94881999
:10355000DF91CF911F910895682F80910E02909175
:103560000F020E948A1A0895A0E0B0E0EAEBFAE1A7
:103570000C94941B8C01F62EE42ED22E83E290E064
:103580000E94C61BEC01009711F480E00BC0B8014B
:103590004F2D2E2D0D2D0E947916D0930F02C09322
:1035A0000E0281E0CDB7DEB7E7E00C94B01BA0E0DF
:1035B000B0E0EDEDFAE10C94931B8C01D62E7A016C
:1035C000C22E84E490E00E94C61BEC01009711F427
:1035D00080E00BC0B8014D2D97010C2D0E942D15D8
:1035E000D0930F02C0930E0281E0CDB7DEB7E8E0C2
:1035F0000C94AF1B629FD001739FF001829FE00D7E
:10360000F11D649FE00DF11D929FF00D839FF00D61
:10361000749FF00D659FF00D9927729FB00DE11D0D
:10362000F91F639FB00DE11DF91FBD01CF011124EA
:103630000895991B79E004C0991F961708F0961B0E
:10364000881F7A95C9F780950895AA1BBB1B51E185
:1036500007C0AA1FBB1FA617B70710F0A61BB70B02
:10366000881F991F5A95A9F780959095BC01CD01A7
:10367000089597FB092E07260AD077FD04D0E5DFD1
:1036800006D000201AF4709561957F4F0895F6F7E3
:10369000909581959F4F0895A1E21A2EAA1BBB1BFE
:1036A000FD010DC0AA1FBB1FEE1FFF1FA217B3070E
:1036B000E407F50720F0A21BB30BE40BF50B661F24
:1036C000771F881F991F1A9469F7609570958095E8
:1036D00090959B01AC01BD01CF01089597FB092E88
:1036E00005260ED057FD04D0D7DF0AD0001C38F4D1
:1036F00050954095309521953F4F4F4F5F4F08951E
:10370000F6F790958095709561957F4F8F4F9F4FFD
:1037100008952F923F924F925F926F927F928F9275
:103720009F92AF92BF92CF92DF92EF92FF920F9350
:103730001F93CF93DF93CDB7DEB7CA1BDB0B0FB65A
:10374000F894DEBF0FBECDBF09942A883988488817
:103750005F846E847D848C849B84AA84B984C884AD
:10376000DF80EE80FD800C811B81AA81B981CE0FA4
:10377000D11D0FB6F894DEBF0FBECDBFED01089589
:10378000EE0FFF1F0590F491E02D0994CF93DF9386
:10379000BC018230910510F462E070E0A091120249
:1037A000B0911302ED01E0E0F0E040E050E021C014
:1037B000888199818617970769F48A819B81309760
:1037C00019F09383828304C09093130280931202B2
:1037D000FE0134C06817790738F44115510519F016
:1037E0008417950708F4AC01FE018A819B819C0136
:1037F000E9012097E9F641155105A9F1CA01861B97
:10380000970B049708F4BA01E0E0F0E02AC08D912C
:103810009C91119784179507F9F46417750781F443
:1038200012968D919C911397309719F09383828310
:1038300004C09093130280931202FD0132964FC090
:10384000CA01861B970BFD01E80FF91F6193719365
:1038500002978D939C9343C0FD01828193819C01CB
:10386000D9011097A1F68091100290911102892B35
:1038700041F480919401909195019093110280936D
:10388000100240919601509197014115510541F464
:103890004DB75EB78091920190919301481B590BEF
:1038A000209110023091110224173507B0F4CA019B
:1038B000821B930B8617970780F0AB014E5F5F4F1B
:1038C0008417950750F0420F531F509311024093F5
:1038D0001002F9016193719302C0E0E0F0E0CF01C2
:1038E000DF91CF910895CF93DF93009709F450C0F3
:1038F000EC0122971B821A82A0911202B09113024E
:10390000109709F140E050E0AC17BD0708F1BB8308
:10391000AA83FE0121913191E20FF31FAE17BF0779
:1039200079F48D919C911197280F391F2E5F3F4F8D
:103930003983288312968D919C9113979B838A8358
:103940004115510571F4D0931302C093120220C0A7
:1039500012968D919C911397AD01009711F0DC01A7
:10396000D3CFFA01D383C28321913191E20FF31FA8
:10397000CE17DF0769F488819981280F391F2E5FE0
:103980003F4FFA01318320838A819B819383828315
:10399000DF91CF9108950F931F93CF93DF938C0105
:1039A000EB01009731F46115710519F420E030E066
:1039B00038C081E090E06EE070E00E94171DFC01CD
:1039C0009C01009771F180E88383209771F0D38781
:1039D000C28781E883838091140290911502892B1C
:1039E00021F4F0931502E093140201151105C9F0BA
:1039F0001187008783818260838380911602909172
:103A00001702892B71F4F0931702E093160280914C
:103A1000180290911902892B21F4F0931902E09376
:103A20001802C901DF91CF911F910F9108950F9353
:103A30001F93CF93DF93689F8001699F100D789F3C
:103A4000100D1124C8010E94C61BEC01009729F03B
:103A500060E070E0A8010E94331DCE01DF91CF919C
:103A60001F910F910895DC0101C06D9341505040AA
:103A7000E0F7089510E0C2EDD0E004C0FE010E941E
:0E3A8000C21B2296C43DD107C9F7F894FFCFB0
:103A8E006D560050726573732042004148484821BC
:103A9E000000000000000000000000000000000018
:103AAE000000000000000000000000000000000008
:103ABE0000000000000000000000000000000000F8
:103ACE0000000000000000000000000000000000E8
:103ADE0000000000000000000000000000000000D8
:103AEE0000000000000000000000000000000000C8
:103AFE000000000000200000010203040506FF88FC
:103B0E0013040400D007F4010F000208010E0F1079
:083B1E00111220001A02000040
:00000001FF
