:100000000C9463000C948B000C948B000C948B006C
:100010000C948B000C948B000C948B000C948B0034
:100020000C948B000C9414120C948B000C948B0089
:100030000C948B000C94120A0C948B000C948B0083
:100040000C948B000C948B000C948B000C948B0004
:100050000C948B000C948B000C948B000C948B00F4
:100060000C948B000C948B0035073B073E0741072F
:10007000440747074A074D075007530756075907D4
:1000800020506F6C6F6C750033F720526F626F7485
:10009000004D617A6500736F6C7665720000000038
:1000A000000000001F1F1F1F1F1F1F3E6733323E2F
:1000B0003E633332004C493620636465677265677E
:1000C00034004213431311241FBECFEFD8E0DEBF2C
:1000D000CDBF11E0A0E0B1E0E4E2FAE302C0059098
:1000E0000D92A639B107D9F712E0A6E9B1E001C037
:1000F0001D92A431B107E1F710E0C4ECD0E004C0D8
:100100002297FE010E948D1BC23CD107C9F70E94B5
:10011000CC030C94051D0C940000882311F08CE492
:100120000895662311F083E50895442311F482E4D1
:10013000089582E50895CF93DF933091960133308F
:1001400008F44CC0C32FD0E0FE01E35FFE4F808176
:10015000823409F043C0FE01E25FFE4F80E090E090
:10016000AE01455F5E4F20812C3441F0223519F0FD
:10017000223449F406C0865A9F4F05C0825F9E4FC5
:1001800002C08C549F4F3197E417F50761F768E67A
:1001900071E00E94041B8A35910589F08B35910529
:1001A0001CF4892B41F017C0843B910561F08E50FF
:1001B000914089F40CC0C45FDE4F83E50BC0C45F7F
:1001C000DE4F82E507C0C45FDE4F82E403C0C45F38
:1001D000DE4F8CE48883325030939601DF91CF91CB
:1001E000089580EB9FEF60EB7FEF0E94880F80E91E
:1001F00091E00E945F1280E590E060EB7FEF0E944B
:10020000880F80E991E00E945F1280E090E060E555
:1002100070E00E94880F80E293E00E945F1280EA03
:1002200090E060E070E00E94880F80E293E00E941E
:100230005F1280E090E060E070E00E94880F84EF41
:1002400091E00E945F12FFCF8C3429F0823541F09B
:100250008234D9F410C080EB9FEF60E570E004C0F9
:1002600080E590E060EB7FEF0E94880F88EC90E0E3
:100270000E945F12089580E590E060EB7FEF0E949E
:10028000880F80E991E00E945F1208952F923F92BB
:100290004F925F926F927F928F929F92AF92BF9296
:1002A000CF92DF92EF92FF920F931F93DF93CF9342
:1002B000CDB7DEB72A970FB6F894DEBF0FBECDBF1D
:1002C00066247724AA24BB2465011E010894211CFE
:1002D000311C60E5462E512CC10161E00E9456138D
:1002E00050E3852E58EF952E880E991EC401AA273B
:1002F00097FDA095BA2FA80EB91ECA1EDB1EC60117
:10030000B50120E137E240E050E00E94391B79015D
:100310008A01940126193709C901880F991F820F94
:10032000931F62E070E00E94041B9B012E0D3F1D95
:10033000C40164E170E00E94041B260F371F2135C1
:1003400031057CF48FEF203B38071CF420EB3FEFA6
:1003500002C037FF08C0C901805B9F4F60E570E0B5
:1003600007C020E530E0B201621B730B80E590E02E
:100370000E94880F8B819C818436910550F48D8179
:100380009E818436910528F48F8198858436910565
:1003900060F089819A81893C910538F4340189851E
:1003A0009A85893C910508F497CF2A960FB6F89460
:1003B000DEBF0FBECDBFCF91DF911F910F91FF9098
:1003C000EF90DF90CF90BF90AF909F908F907F90F5
:1003D0006F905F904F903F902F900895E09196011D
:1003E000F0E0E15FFE4F10820E945A0C8FE091E036
:1003F0000E94460D80919601893040F080E061E0D6
:100400000E942A0C87E191E00E94460D0895CF9248
:10041000DF92EF92FF920F931F93DF93CF93CDB7AD
:10042000DEB72A970FB6F894DEBF0FBECDBF6E01C0
:100430000894C11CD11C0E94460182E390E062E353
:1004400070E00E94880F82E390E00E945F12C60174
:1004500061E00E94561309811A81E984FA8488E2D6
:1004600090E068E270E00E94880F88EC90E00E94C3
:100470005F12C60161E00E9456138B819C812D8121
:100480003E81893C910550F4293C310578F420E007
:100490008F819885893C910550F008C0293C310531
:1004A00028F08F819885893C910548F521E0053633
:1004B000110510F01CE40BC0222311F013E507C056
:1004C00085E6E816F10410F412E401C012E5812F6C
:1004D0000E94240180919601E82FF0E0E15FFE4F39
:1004E00010838F5F809396010E949B000E94EE0113
:1004F000A2CF80E090E060E070E00E94880F80E191
:100500000E948D0F8823A9F300E010E01EC00E9416
:10051000460182E390E062E370E00E94880F82E38C
:1005200090E00E945F1288E290E068E270E00E9432
:10053000880F88EC90E00E945F12F801E15FFE4FA7
:1005400080810E9424010F5F1F4F8091960190E0EF
:1005500008171907E4F20E94460180E090E060E08D
:1005600070E00E94880F88E893E10E945F120E9469
:10057000F100C5CF0F931F93CF93DF938C01C0E0A1
:10058000D0E0F801EC0FFD1F8081918165E670E0FD
:100590000E94F01AFB01ED58FE4F80810E944C0D25
:1005A0002296CA30D10569F7DF91CF911F910F9143
:1005B00008950F931F930DE910E0C80160E00E94B9
:1005C000920EC801019661E00E94920EC801029647
:1005D00062E00E94920EC801039663E00E94920EB0
:1005E000C801049664E00E94920EC801059665E079
:1005F0000E94920EC801069666E00E94920E0E942A
:100600005A0C1F910F910895CF92DF92EF92FF92B3
:100610000F931F93DF93CF93CDB7DEB72A970FB613
:10062000F894DEBF0FBECDBF80ED97E00E94D113DE
:100630000E94D90280E890E00E94360D80E061E0DF
:100640000E942A0C88E890E00E94360D8BEA90E028
:100650000E94FF0988EE93E00E945F120E945A0CEC
:1006600081E990E00E94360D80E061E00E942A0C52
:1006700086E990E00E94360D88EE93E01BC00E9450
:10068000D5057C010E945A0C0027F7FC0095102F1D
:10069000C801B7010E94250D80E091E00E94460D3F
:1006A00080E061E00E942A0C83E091E00E94460D08
:1006B00084E690E00E945F1280E10E948D0F882303
:1006C000F1F280E10E94911188EE93E00E945F12A6
:1006D0000CEE1FEF0832110528F088E290E068ED7B
:1006E0007FEF04C088ED9FEF68E270E00E94880F02
:1006F00081E00E94711384E190E00E945F120F5F1D
:100700001F4F0C33110531F780E090E060E070E09E
:100710000E94880F6E010894C11CD11C18C0C6012C
:1007200061E00E9456137C010E945A0C00E010E028
:10073000C801B7010E94250D80E061E00E942A0CEB
:10074000C6010E94BA0284E690E00E945F1280E136
:100750000E948D0F882319F380E10E9491110E945D
:100760005A0C8BE091E00E94460D85EB90E00E94D0
:10077000FF090E9401068823E1F72A960FB6F89434
:10078000DEBF0FBECDBFCF91DF911F910F91FF90C4
:10079000EF90DF90CF9008950E9404030E9407021B
:1007A000FFCF982F803278F487E880937A00809189
:1007B0007C0080648076892B80937C0080917A0015
:1007C000806480937A00089580917C0085FF05C045
:1007D00080917900282F30E004C02091780030917A
:1007E0007900C901089590937E0180937D01089559
:1007F0000895089580917C0085FF05C0809179005F
:10080000282F30E004C02091780030917900C90190
:100810000895282F8032B0F487E880937A00809181
:100820007C00982F9064662311F0806C02C0892FA1
:100830008F77807E822B80937C0080917A00806409
:1008400080937A000895982F803278F487E8809317
:100850007A0080917C0080648076892B80937C0074
:1008600080917A00806480937A0080917A0086FD7E
:10087000FCCF80917C0085FF05C080917900282FF6
:1008800030E004C02091780030917900C9010895CA
:100890000E9423040895EF92FF920F931F93982FC5
:1008A000803278F487E880937A0080917C008064BD
:1008B0008076892B80937C0080917A00806480937D
:1008C0007A0080917A0086FDFCCFFB01EE24FF24A4
:1008D000870180917A00806480937A0080917A0009
:1008E00086FDFCCF80917C0085FF04C0809179005B
:1008F00090E004C08091780090917900A0E0B0E091
:10090000E80EF91E0A1F1B1F319719F7CB019695A8
:1009100087956034710538F48E0D9F1D70E00E943C
:10092000F01A9B010DC0A0E0B0E0E80EF91E0A1F0E
:100930001B1F9B0140E050E0C801B7010E94171B3C
:10094000C9011F910F91FF90EF90089587E064E136
:1009500070E00E944B0408950E944B040895909308
:100960007E0180937D0108951F9310917C008091FA
:100970007C008F7D80937C008EE164E170E00E94BA
:100980004B048EE164E170E00E944B049C0115FD74
:1009900004C080917C008F7D03C080917C008062C8
:1009A00080937C00B9017695679580E090E06C5467
:1009B000744D8E4E9F4F40E050E00E94171BC901BE
:1009C0001F9108950E94B4040895A0E0B0E0209122
:1009D0007D0130917E0140E050E0BC01CD010E94DC
:1009E000C51A9B01AC0180917C0085FF0BC0B90149
:1009F000CA0161587F4F8F4F9F4F2FEF30E040E08B
:100A000050E00AC0B901CA0161507E4F8F4F9F4F1D
:100A10002FEF33E040E050E00E94171BC90108951A
:100A20000E944B040E94E50408950E941005089559
:100A300080917C0085FF06C08091790090E00E9443
:100A4000E504089580917800909179000E94E50472
:100A50000895982F803278F487E880937A00809107
:100A60007C0080648076892B80937C0080917A0062
:100A7000806480937A0080917A0086FDFCCF0E948A
:100A8000180508950E94290508950E9418050895E3
:100A900087E064E170E00E944B040E94E504089541
:100AA0000E94E50408951F9310917C0080917C00C2
:100AB0008F7D80937C0086E064E170E00E941005E9
:100AC0009C0115FD04C080917C008F7D03C0809146
:100AD0007C00806280937C00C901880F991F820F7F
:100AE000931F880F991F880F991F8A5792406DE0B6
:100AF00070E00E94041BCB011F9108950E945305D2
:100B000008951F9310917C0080917C008F7D8093CD
:100B10007C0086E064E170E00E9410059C0115FDF8
:100B200004C080917C008F7D03C080917C00806236
:100B300080937C0084E190E0AC01249FC001259F5C
:100B4000900D349F900D11248E529F4167E270E00A
:100B50000E94041BCB011F9108950E9481050895F6
:100B60001F9310917C0080917C008F7D80937C008E
:100B700086E06AE070E00E941005AC0115FD04C03B
:100B800080917C008F7D03C080917C008062809387
:100B90007C009A01220F331F240F351F2F5F3F4F18
:100BA00036952795C9011F9108950E94B0050895B3
:100BB0001F9310917C0080917C008F7D80937C003E
:100BC00086E06AE070E00E941005AC0115FD04C0EB
:100BD00080917C008F7D03C080917C008062809337
:100BE0007C009A01220F331F240F351FC9011F916A
:100BF00008950E94D80508950E94D8050895089583
:100C0000089580918A01882339F020E08091B50110
:100C10009091B601892B09F021E0822F089510925E
:100C20006F00E1E8F0E08081887F8160808380E16F
:100C300097E2909389008093880010928B00109225
:100C40008A0081E080938A011092B6011092B5016A
:100C5000089510926F0083E28093800081E1809379
:100C600081001092820080E197E290938900809346
:100C7000880010928B0010928A00229A789408952E
:100C8000A0E0B0E0E6E4F6E00C945C1BFC015B0144
:100C9000C42E8091B4018823C9F481E08093B4010B
:100CA00010926F0083E28093800081E18093810045
:100CB0001092820080E197E29093890080938800EF
:100CC00010928B0010928A00229A789410928A01D6
:100CD000F7FD03C0DD24D39403C0FF772AE0D22EB2
:100CE00080918100082F10E0087F107088ECD89E5A
:100CF000C00111248E179F07C0F4EF0187E2E13194
:100D0000F80710F0C0E1D7E2BE017695679580E064
:100D100090E06058794687469F4F9E0140E050E042
:100D20000E94171B7901016024C088E2D89E802DA3
:100D30001124C82FD0E0CE17DF0708F4EF01BE0161
:100D4000769567959E0140E050E08AE0D81639F428
:100D500080E090E0605E734481449F4F06C080E075
:100D600090E060537D4E8C4E9F4F0E94171B79017F
:100D700002608AE0D81639F4CE0105966AE070E088
:100D80000E94F01AEB0183E0C83ED80711F4B501C8
:100D90000FC0BE0180E090E0950140E050E00E946D
:100DA000C51A28EE33E040E050E00E94391BB9013B
:100DB00010926F0000938100F0928900E092880009
:100DC000E0918800F0918900AC2DA03108F0AFE0EF
:100DD00080E190E08A1B910902C0F695E7958A951B
:100DE000E2F7F0938B00E0938A0070939C0160938C
:100DF0009B0186B38FEF86BB81E080936F00CDB7F8
:100E0000DEB7EAE00C94781B0E9440060895CF9369
:100E1000DF93EB018F3F11F0442329F488EE93E038
:100E2000BE0140E067C0813110F420E005C0282FEA
:100E30002051203608F02FE5822F6CE00E94E41A42
:100E4000382F682F70E084EF9FEF689FF001699F53
:100E5000F00D789FF00D1124E20FF11DEC30F1053B
:100E600038F4EC5CFF4F0C948B1B8CE991E023C0B1
:100E700080E090E020C085EB91E01DC08FEC91E018
:100E80001AC08AEE91E017C087E092E014C086E2B3
:100E900092E011C087E492E00EC089E692E00BC0B8
:100EA0008EE892E008C085EB92E005C08EED92E0FE
:100EB00002C08AE093E0373071F002C0880F991FBA
:100EC0006A95E2F7323020F005966AE070E00BC0D8
:100ED000805090480BC036E0880F991F3A95E1F793
:100EE000029665E070E00E94F01ACB01403108F0F4
:100EF0004FE0BE010E944006DF91CF9108950E940D
:100F00000707089580918A01882339F020E08091B5
:100F1000B5019091B601892B09F021E0822F089547
:100F200010926F00E1E8F0E08081887F816080832B
:100F300080E197E2909389008093880010928B0063
:100F400010928A0081E080938A011092B60110927B
:100F5000B501089530919901E091B501F091B60184
:100F6000332311F0249101C02081822F81548A31D2
:100F700008F4205E203259F48091B5019091B601B9
:100F800001969093B6018093B501019729F7822FBE
:100F90000895CF93DF930E94AA07282FC0E0D0E0E6
:100FA0001DC0CE0153E0880F991F5A95E1F7CC0F71
:100FB000DD1FC80FD91F822F992787FD9095C80F75
:100FC000D91FE0978091B5019091B6010196909359
:100FD000B6018093B5010E94AA07282F822F805363
:100FE0008A30F8F2CE01DF91CF910895A0E0B0E011
:100FF000ECEFF7E00C945A1B80907F01B0909701C2
:10100000BB2021F060919801662399F4A09098018B
:101010000091840110918501E0908001F0908101A0
:10102000C0918201D0918301C0908601D090870148
:1010300008C18FEF70E040E00E940707109298010E
:10104000CBC194E0892EBB2404EF11E084E0E82EAC
:10105000F12CC0EDD7E0B4E09B2EAFE0CA2ED12C2E
:101060000E94AA07282F8091B5019091B6010196A0
:101070009093B6018093B501263609F498C02736BF
:10108000CCF42236A1F1233674F42E3361F12F33E0
:1010900034F42132B1F22C3309F00BC126C02136D1
:1010A00009F007C121C1243609F451C025360CF0DE
:1010B00066C035C02F3609F4C1C0203754F42C3631
:1010C00009F4A5C02D3609F4A6C0273609F0F1C0F1
:1010D00086C0243709F4D1C0263709F4E6C0223788
:1010E00009F0E7C0B0C08394BBCF8A94B9CFA09277
:1010F0009801B09297011093850100938401F092BA
:101100008101E0928001D0938301C093820190928B
:101110007F01D0928701C09286012BE0FCC0A09293
:101120009801B09297011093850100938401F09289
:101130008101E0928001D0938301C093820190925B
:101140007F01D0928701C092860120E0E4C0A09286
:101150009801B09297011093850100938401F09259
:101160008101E0928001D0938301C093820190922B
:101170007F01D0928701C092860122E0CCC0A0926C
:101180009801B09297011093850100938401F09229
:101190008101E0928001D0938301C09382019092FB
:1011A0007F01D0928701C092860124E0B4C0A09252
:1011B0009801B09297011093850100938401F092F9
:1011C0008101E0928001D0938301C09382019092CB
:1011D0007F01D0928701C092860125E09CC0A09239
:1011E0009801B09297011093850100938401F092C9
:1011F0008101E0928001D0938301C093820190929B
:101200007F01D0928701C092860127E084C00E94AE
:10121000C9077C0144C00E94AA078C3611F4BB2484
:1012200003C0AA24BB24B3948091B5019091B60168
:1012300001969093B6018093B50112CF0E94C90721
:10124000882E982C0DCFA0929801B0929701109300
:10125000850100938401F0928101E0928001D09396
:101260008301C093820190927F01D0928701C09246
:10127000860120E0FF24F3944FC00E94C907BC01FF
:1012800080EC9DE50E94F01ACB01EB01F3E0CC0F5E
:10129000DD1FFA95E1F7880F991FC80FD91FCE01FE
:1012A000B7010E94F01A8B01DBCE0E94C9076C01C6
:1012B000D7CEA0929801B092970110938501009328
:1012C0008401F0928101E0928001D0938301C09368
:1012D000820190927F01D0928701C0928601109284
:1012E000B6011092B50178C0A0929801B092970112
:1012F0001093850100938401F0928101E0928001B6
:10130000D0938301C093820190927F01D092870194
:10131000C092860129E0FF248CE0889EC001112440
:10132000E22EE80E0AC08091B5019091B6010196B7
:101330009093B6018093B501E3940E94AA078B3283
:1013400091F3833281F30CC08091B5019091B60185
:1013500001969093B6018093B501EA940E94AA0782
:101360008D3291F3C0918401D091850181538830F1
:1013700058F400918201109183010E94C907BC01B9
:10138000C8010E94F01AEB018E010BC08091B501DB
:101390009091B60101969093B6018093B501C00F6C
:1013A000D11F169507950E94AA078E3279F3809176
:1013B0009701882339F0CE019695879580939801FF
:1013C000C81BD109FF2011F0EE24EA948E2DBE0136
:1013D000409186010E940707CDB7DEB7ECE00C9480
:1013E000761B10926F009093B6018093B50181E057
:1013F00080939901109298010E94F60708950E9427
:10140000F109089510926F009093B6018093B50191
:1014100010929901109298010E94F60708950E9477
:10142000020A08951F920F920FB60F9211242F9364
:101430003F934F935F936F937F938F939F93AF935C
:10144000BF93EF93FF9380919B0190919C01019733
:1014500090939C0180939B01019611F510926F006F
:10146000789480918100887F81608093810080E101
:1014700097E2909389008093880010928B001092DD
:101480008A0081E080938A018091B5019091B60134
:10149000892B31F080919A01882311F40E94F6077C
:1014A000FF91EF91BF91AF919F918F917F916F913C
:1014B0005F914F913F912F910F900FBE0F901F9012
:1014C000189510926F0080918A01882341F08091D5
:1014D000B5019091B601892B11F00E94F60781E0C9
:1014E00080936F0020E08091B5019091B601892B27
:1014F00009F021E0822F089580939A01882311F446
:101500000E94610A08950E947C0A08950E94610A5F
:1015100008950895089580E090E00895EF92FF9275
:101520000F931F936AB157985A98289AE090A10197
:10153000F090A2010091A3011091A40120E030E0FD
:1015400041E050E0CA016F9364E06A95F1F76F9152
:101550000197C9F75C9ACA016F9364E06A95F1F745
:101560006F910197C9F789B15C98FA016F9364E0B4
:101570006A95F1F76F913197C9F75C9AFA016F9309
:1015800064E06A95F1F76F913197C9F75C9887FF2E
:101590000BC02C5F3F4FC901A0E0B0E08E159F0546
:1015A000A007B10708F4CECF6AB91F910F91FF9041
:1015B000EF90089565B190E0AC0141705070440F18
:1015C000551F9C012670307053E0220F331F5A952F
:1015D000E1F7422B6D7C462B45B92BB1887090709A
:1015E00034E0880F991F3A95E1F72F77282B2BB914
:1015F0005C9A81E090E0FC016F9364E06A95F1F7FA
:101600006F913197C9F75C986F9364E06A95F1F731
:101610006F910197C9F7089580919D0190919E0166
:10162000009711F00E943E1C8091880190E0019784
:101630002091890130E0AC01429FC001439F900D91
:10164000529F900D11240E94911B90939E018093B4
:101650009D01009729F160E070E208C0E0919D01D2
:10166000F0919E01E40FF51F70836F5F462F50E0ED
:101670008091880190E001972091890130E0FC0180
:10168000E29FC001E39F900DF29F900D1124481737
:10169000590724F38FE49DE06BE87AE00E94961CE2
:1016A000089580938901609388010E940C0B08952E
:1016B00080938901609388010E940C0B08950E9419
:1016C0000C0B089580E197E2A0E0B0E08093A101C7
:1016D0009093A201A093A301B093A401529A209ADF
:1016E000549A8EE190E00E947F1283E00E94950E52
:1016F00086E090E00E947F1283E00E94950E82E0D7
:1017000090E00E947F1283E00E94950E82E090E0BC
:101710000E947F1282E00E94950E82E090E00E947B
:101720007F1288E20E94DF0B88E00E94DF0B81E0DD
:101730000E94DF0B86E00E94DF0B8CE00E94DF0B33
:1017400008958091A501882329F481E08093A50163
:101750000E94620B0895BF92CF92DF92EF92FF92A8
:101760000F931F93082F162FF42E0E94A10B0E9497
:101770008E0AB4B0C5B0DAB0EBB02898112311F0DE
:101780005A9A01C05A9884B1826384B9579A81E009
:10179000F81629F0802F82958F700E94DA0A802F28
:1017A0008F700E94DA0ADAB8EBB8B4B8C5B81F91E6
:1017B0000F91FF90EF90DF90CF90BF90089560E081
:1017C00042E00E94AB0B08950F931F93082F162F32
:1017D00008C0002311F480E101C084E10E94DF0B06
:1017E00011501123B1F71F910F9108950E94E40B3E
:1017F00008958CE00E94DF0B08950E94F90B089574
:10180000813011F48FE001C08EE00E94DF0B08955B
:101810000E94000C0895A4E0B0E0E1E1FCE00C942B
:10182000621B182F062F80E8898380EC8A8384E965
:101830008B8384ED8C83FE01E60FF11D8181810F86
:101840000E94DF0B1093A00100939F012496E4E017
:101850000C947E1B0E940B0C089581E00E94DF0B0C
:1018600080919D0190919E01892B19F160E070E2B9
:1018700008C0E0919D01F0919E01E40FF51F708377
:101880006F5F462F50E08091880190E00197209192
:10189000890130E0FC01E29FC001E39F900DF29FBF
:1018A000900D11244817590724F31092A0011092AB
:1018B0009F0108950E942D0C089561E042E00E946E
:1018C000AB0B08950F931F93CF93DF9300E010E8C5
:1018D000C82FD0E0812F90E08C239D23892B11F01D
:1018E00081E301C080E30E945D0C0F5F083011F0BE
:1018F0001695F0CFDF91CF911F910F9108950E941F
:10190000620C08958A3010F4805D01C0895C0E94E9
:101910005D0C08951F93182F82958F700E94820C82
:10192000812F8F700E94820C1F9108951F93182F92
:10193000892F0E948A0C812F0E948A0C1F91089582
:101940000E94960C08950E948A0C08956F927F92CF
:101950008F929F92AF92BF92CF92DF92FF920F939E
:10196000DF93CF93CDB7DEB72A970FB6F894DEBFDB
:101970000FBECDBF5B016C010AE03E010894611C03
:10198000711CFA2CC601B5012AE030E040E050E0BD
:101990000E94171BC901DA015C016D01015043016E
:1019A000800E911C80E3F80EC601B5012AE030E0FC
:1019B00040E050E00E94C51AF61AF401F082A1142A
:1019C000B104C104D104E9F608C0F601E00FF11D2D
:1019D00080810E945D0C0F5F04C06E010894C11CE1
:1019E000D11C0A3090F32A960FB6F894DEBF0FBED2
:1019F000CDBFCF91DF910F91FF90DF90CF90BF903F
:101A0000AF909F908F907F906F9008950E94A60C4A
:101A10000895EF92FF920F931F937B018C0197FF24
:101A20000BC010950095F094E094E11CF11C011D91
:101A3000111D8DE20E945D0CC801B7010E94A60C29
:101A40001F910F91FF90EF9008950E94090D089546
:101A5000CF93DF93EC0103C00E945D0C2196FE0141
:101A600084918823C9F7DF91CF9108950E94280DB2
:101A70000895CF93DF93EC0103C021960E945D0C83
:101A800088818823D1F7DF91CF9108950E94390D85
:101A900008950E945D0C08950E945D0C0895A0E0D9
:101AA000B0E0E5E5FDE00C945E1BE82E80919D0121
:101AB00090919E01892B09F405C12AE0E21609F4F0
:101AC00046C038E0E316C9F48091A00181508093AC
:101AD000A0018F3F51F480919F01815080939F011D
:101AE0008091890181508093A00180919F018F3F57
:101AF00009F0E2C010929F01DDC08E2D0E945D0CA6
:101B000020919F012223C9F030E021503040809184
:101B1000890190E0AC01249FC001259F900D349F66
:101B2000900D11242091A001E0919D01F0919E0162
:101B3000E80FF91FE20FF11DE0828091A0018F5F95
:101B40008093A00190918901891709F0BBC0409151
:101B50009F01242F30E08091880190E001972817A1
:101B6000390709F0A4C0C0E0D0E044C080E06C2F89
:101B70000E940B0CFF246E010894C11CD11C35C0BF
:101B80000F2D10E090E09C01C29FC001C39F900DFB
:101B9000D29F900D1124E0919D01F0919E01E00FE4
:101BA000F11FE80FF91F80810E945D0CE0919D01FB
:101BB000F0919E018091890190E0C89FD001C99F5A
:101BC000B00DD89FB00D1124E00FF11FAE0FBF1F55
:101BD000AC01C49EC001C59E900DD49E900D1124F1
:101BE000E80FF91F80818C93F39480918901F81696
:101BF00038F2E60160918801862F90E00297C817BD
:101C0000D9070CF4B3CF623008F440C0625080E0D2
:101C10000E940B0CFF24E0E2DE2E34C00F2D10E0FA
:101C20008091880190E0029730E0AC01429FC001B2
:101C3000439F900D529F900D1124E0919D01F091D2
:101C40009E01E00FF11FE80FF91F80810E945D0CDB
:101C50002091880130E0225030408091890190E04D
:101C6000AC01249FC001259F900D349F900D11243D
:101C7000E0919D01F0919E01E00FF11FE80FF91F27
:101C8000D082F39420918901F21640F2609188018C
:101C9000615080E00E940B0C00E004C080E20E94D2
:101CA0005D0C0F5F809189010817C0F303C04F5F7F
:101CB00040939F011092A0018091A00160919F012B
:101CC0000E940B0C2E2D332727FD3095C901CDB76F
:101CD000DEB7E8E00C947A1BEF92FF920F931F930C
:101CE000CF93DF937C01062F10E0F3E0000F111F6C
:101CF000FA95E1F7C0E0D0E09E01200F822F8064CA
:101D00000E94DF0BF701EC0FFD1FE4918E2F0E9464
:101D10005D0C2196C830D10579F7CDB7DEB7E6E086
:101D20000C947C1B0E946C0E089560E041E00E94C0
:101D3000AB0B08950F931F93CF93DF93082F162FAC
:101D4000EA010BC0002311F488E101C08CE10E947C
:101D5000DF0BCE010E947F121150112399F7DF9102
:101D6000CF911F910F9108950E949A0E0895282FE8
:101D7000883068F481E090E002C0880F991F2A95AE
:101D8000E2F7282FAAE2B0E0EBE2F0E029C08E30C3
:101D900080F430E02850304081E090E002C0880FAD
:101DA000991F2A95E2F7282FA4E2B0E0E5E2F0E0DF
:101DB00017C0853130F020E0A0E0B0E0E0E0F0E0D6
:101DC0000FC030E02E50304081E090E002C0880F1C
:101DD000991F2A95E2F7282FA7E2B0E0E8E2F0E0A9
:101DE0006F3F19F48081822709C0662319F0808132
:101DF000822B04C09081822F8095892380838C91CF
:101E0000822B8C93089508950895E0EBF0E083EF22
:101E10008083808184BDE1EBF0E082E0808380817B
:101E200085BDE4EBF0E010828081E3EBF0E080839D
:101E3000808188BD88B587BD86E060E00E94B70ECE
:101E400085E060E00E94B70E8BE060E00E94B70E74
:101E500083E060E00E94B70E08958091A601882378
:101E600029F481E08093A6010E94050F0895CF9385
:101E7000DF93EC010E942D0FD7FD02C020E004C0CB
:101E8000D095C195DF4F21E0CE01CF3FD10519F0AC
:101E900014F08FEF90E0222319F018BC87BD02C028
:101EA00088BD17BCDF91CF9108950E94370F089528
:101EB000CF93DF93EC010E942D0FD7FD02C020E0ED
:101EC00004C0D095C195DF4F21E0CE01CF3FD105B1
:101ED00019F014F08FEF90E0222329F01092B40053
:101EE0008093B30004C08093B4001092B300DF91DC
:101EF000CF9108950E94580F08950F931F938B015F
:101F00000E94370FC8010E94580F1F910F9108952A
:101F10000E947D0F089508950895282F8091A701AC
:101F2000882391F481E08093A70184B18D7C84B9EA
:101F300085B1826385B985E090E06F9364E06A952E
:101F4000F1F76F910197C9F783B1809582230895C6
:101F50008091A701882391F481E08093A70184B147
:101F60008D7C84B985B1826385B985E090E06F93FB
:101F700064E06A95F1F76F910197C9F7089584B10C
:101F80008D7C84B985B1826385B985E090E06F93DB
:101F900064E06A95F1F76F910197C9F70895282FCA
:101FA0008091A701882391F481E08093A70184B1F7
:101FB0008D7C84B985B1826385B985E090E06F93AB
:101FC00064E06A95F1F76F910197C9F783B1809545
:101FD000822308950F931F93082F13B10E94B0120C
:101FE000AB01BC018091A701882391F481E080932B
:101FF000A70184B18D7C84B985B1826385B985E000
:1020000090E06F9364E06A95F1F76F910197C9F7DB
:102010008091AD01813011F1813038F0823009F4C6
:1020200043C0833009F089C065C0202F30E0812F84
:1020300090E08095909528233923232B09F47DC0C7
:10204000109510231093A8014093A9015093AA0161
:102050006093AB017093AC0181E06DC08091A901E8
:102060009091AA01A091AB01B091AC01481B590B12
:102070006A0B7B0B4F3051056105710508F45DC09B
:102080004091A801812F90E080959095242F30E019
:1020900082239323892B59F182E08093AD0110951F
:1020A00014231093A80149C0E091A801AE2FB0E01D
:1020B000212F30E0CD0182239323892B79F083E017
:1020C0008093AD01E123E093A8014093A9015093CF
:1020D000AA016093AB017093AC012FC0802F90E0F8
:1020E0002095309582239323A817B90731F11092D8
:1020F000AD0123C08091A9019091AA01A091AB01EB
:10210000B091AC01481B590B6A0B7B0B4F3051054A
:102110006105710590F04091A801842F90E0212F76
:1021200030E082239323892B29F01092AD01842F74
:10213000812304C082E08093AD0180E01F910F9164
:1021400008950E94EA0F08950F931F93082F13B16B
:1021500010950E94B012AB01BC018091A7018823A9
:1021600091F481E08093A70184B18D7C84B985B11D
:10217000826385B985E090E06F9364E06A95F1F73A
:102180006F910197C9F78091B301813011F18130CE
:1021900038F0823009F443C0833009F089C065C04B
:1021A000202F30E0812F90E08095909528233923CF
:1021B000232B09F47DC0109510231093AE0140939A
:1021C000AF015093B0016093B1017093B20181E00F
:1021D0006DC08091AF019091B001A091B101B0911B
:1021E000B201481B590B6A0B7B0B4F30510561053F
:1021F000710508F45DC04091AE01812F90E080959B
:102200009095242F30E082239323892B59F182E08B
:102210008093B301109514231093AE0149C0A0918F
:10222000AE01212F30E0EA2FF0E0C9018E239F2379
:10223000892B79F083E08093B3011A231093AE01C8
:102240004093AF015093B0016093B1017093B2011C
:102250002FC0802F90E02095309582239323E8179C
:10226000F90731F11092B30123C08091AF01909131
:10227000B001A091B101B091B201481B590B6A0B9A
:102280007B0B4F3051056105710590F04091AE0117
:10229000812F90E0242F30E082239323892B29F093
:1022A0001092B301812F842304C082E08093B30194
:1022B00080E01F910F9108950E94A41008951F932C
:1022C000CF93DF93182F8091A701882391F481E0A9
:1022D0008093A70184B18D7C84B985B1826385B96F
:1022E00085E090E06F9364E06A95F1F76F91019754
:1022F000C9F7C12FD0E083B190E08C239D23892BB7
:10230000D1F38AE090E00E947F1283B190E08C23A9
:102310009D23892B81F383B18123DF91CF911F917D
:1023200008950E945F1108951F93CF93DF93182F94
:102330008091A701882391F481E08093A70184B163
:102340008D7C84B985B1826385B985E090E06F9317
:1023500064E06A95F1F76F910197C9F7C12FD0E05A
:1023600083B190E0809590958C239D23892BC1F3B8
:102370008AE090E00E947F1283B190E08095909572
:102380008C239D23892B61F383B180958123DF9179
:10239000CF911F9108951F930E949411182F0E94AE
:1023A0005F11812F1F9108950E94CB1108950E9403
:1023B00094110895A2E0B0E0E0EEF1E10C94641B0A
:1023C00020910A0230910B02CE01019621153105B0
:1023D00019F48451924002C0821B930B9A83898323
:1023E00089819A812296E2E00C94801B08950895D9
:1023F000A2E0B0E0EEEFF1E10C94641B20910A0240
:1024000030910B02CE0101962115310519F484514A
:10241000924002C0821B930B9A83898389819A819F
:102420002296E2E00C94801B2F928F939F932FB6FD
:102430008091B8019091B90101968093B801909371
:10244000B90190E08091BA01891F8093BA019091FF
:10245000C0019C5F9093C0018091BF018051974261
:10246000C0F09093C0018093BF018091BB01909117
:10247000BC0101968093BB019093BC0190E08091D8
:10248000BD01891F8093BD018091BE01891F80938A
:10249000BE012FBE9F918F912F9018956F5F7F4F38
:1024A0008F4F9F4F660F771F881F991F25E030E0E1
:1024B00040E050E00E94171BCA01B901089528EEC0
:1024C00033E009C0F9016F9364E06A95F1F76F9109
:1024D0003197C9F701970097A9F708956F5F7F4F6C
:1024E0008F4F9F4F660F771F881F991F25E030E0A1
:1024F00040E050E00E94171BCA01B901089528EE80
:1025000033E009C0F9016F9364E06A95F1F76F91C8
:102510003197C9F701970097A9F70895A0E7B0E0B0
:102520008C918E7F8C93E0EBF0E0808183608083E0
:10253000E1EBF0E08081807F808380818260808316
:10254000B89A8C9181608C93789408958091C101A0
:10255000882329F481E08093C1010E948E1208959E
:102560000E94A612E0E7F0E080818E7F80832091B8
:10257000BB013091BC014091BD015091BE018081F1
:1025800081608083B901CA0108950E94B012089544
:102590000E94A612809170008E7F809370006091DF
:1025A000B2008091B7019091B801A091B901B091AA
:1025B000BA01B89905C0262F30E040E050E011C0C4
:1025C0008091B2002091B7013091B8014091B901DA
:1025D0005091BA0120503F4F4F4F5F4F90E0A0E025
:1025E000B0E0282B392B4A2B5B2B80917000816047
:1025F00080937000B901CA0108950E94C81208951D
:102600000E94A612E0E7F0E080818E7F8083109226
:10261000BB011092BC011092BD011092BE0110923C
:10262000C0011092BF0180818160808308950E9463
:10263000001308958091C2019091C3010895809183
:10264000C4019091C50108958091C6019091C70180
:1026500008958091C8019091C90108958091C201A7
:102660009091C30108958091C4019091C50108958E
:102670008091C6019091C70108958091C801909101
:10268000C9010895089582EC91E00E9435190895DA
:1026900082EC91E00E945C1808959C01462F82EC28
:1026A00091E0B90121E00E945C1808959C01462F39
:1026B00082EC91E0B90120E00E945C18089582EC60
:1026C00091E00E949F1708959C01462F82EC91E0B3
:1026D000B9010E949F17089582EC91E00E94551A5B
:1026E0000895682F82EC91E00E94551A089582ECBB
:1026F00091E00E947814089582EC91E00E94781491
:10270000089582EC91E00E949014089582EC91E08B
:102710000E94901408959C01462F82EC91E0B9012B
:102720000E94001708959C01462F82EC91E0B901A8
:102730000E94001708950F93DF93CF9300D000D02D
:102740000F92CDB7DEB79C01962FDE011196EBE814
:10275000F1E085E001900D928150E1F7BE016F5FDD
:102760007F4F992329F082EC91E045E00FEF04C000
:1027700082EC91E045E003E10E94F81482EC91E0E4
:102780000E9478140E9400130F900F900F900F90EA
:102790000F90CF91DF910F91089561E00E949B13FC
:1027A000089560E00E949B13089582EC91E00E94DE
:1027B000A7140895A0910802B09109021C96ED910A
:1027C000FC911D97309779F0808119969C9119970B
:1027D000892B80831A96ED91FC911B978081199625
:1027E0009C91892B80830895A0910802B0910902E1
:1027F0001C96ED91FC911D97309781F08081199680
:102800009C911997892B80831A96ED91FC911B97C7
:10281000908119968C918095892380830895E09109
:102820000802F0910902808191810895E0910802E7
:10283000F0910902828193810895E0910802F0915C
:102840000902848195810895E0910802F0910902BE
:10285000868197810895FC01118210821382128271
:102860001582148217821682613118F080E1808708
:1028700001C06087208B483060F481E090E002C0A6
:10288000880F991F4A95E2F74AE250E02BE230E0C8
:1028900029C04E3080F4242F30E02850304081E0B1
:1028A00090E002C0880F991F2A95E2F744E250E0B9
:1028B00025E230E017C0453130F080E040E050E0E4
:1028C00020E030E00FC0242F30E02E50304081E077
:1028D00090E002C0880F991F2A95E2F747E250E086
:1028E00028E230E08187338722875587448708951F
:1028F000DC011C96ED91FC911D97309781F0808151
:1029000019969C911997892B80831A96ED91FC91C9
:102910001B97908119968C918095892380830895C7
:10292000DC011C96ED91FC911D97309779F0808128
:1029300019969C911997892B80831A96ED91FC9199
:102940001B97808119969C91892B80830895DC01C7
:1029500020E040C0ED91FC911197309761F0822FFB
:1029600090E0880F991FE80FF91F1E968D919C919A
:102970001F97918380831496ED91FC911597309762
:1029800061F0822F90E0880F991FE80FF91F1E96C3
:102990008D919C911F97918380831296ED91FC916C
:1029A0001397309741F0822F90E0880F991FE80F1E
:1029B000F91F118210821696ED91FC9117973097AE
:1029C00041F0822F90E0880F991FE80FF91F1182C4
:1029D00010822F5F18968C911897281708F4BACF99
:1029E000089580910802909109020E94A714089509
:1029F000A0E0B0E0EEEFF4E10C945C1BEC015B01B5
:102A0000642F7901402F20E00E942B14CE018F5BB0
:102A10009F4FFC011082DE01AE5BBF4F1C92FE0196
:102A2000ED5BFF4F1082FF86EE8640E061E070E0D4
:102A30006F017D018C014EC0F501E40FF11D808115
:102A4000883050F49B0102C0220F331F8A95E2F7B1
:102A5000922F29E230E01FC08E3060F490E008979A
:102A6000FB0102C0EE0FFF1F8A95E2F79E2F23E2C3
:102A700030E011C0853120F090E020E030E00BC064
:102A800090E00E979B0102C0220F331F8A95E2F758
:102A9000922F26E230E0E42FF0E0DE01AE0FBF1F00
:102AA00051969C93EE0FFF1FEC0FFD1F32A321A345
:102AB0002332310511F4F80109C02632310511F431
:102AC000F70104C02932310521F4F6018081982BE9
:102AD00090834F5F8885481708F4AECFCDB7DEB737
:102AE000EAE00C94781B0F930E94F8140F9108955C
:102AF0000F930E94F8140F910895A0E0B0E0E3E86E
:102B0000F5E10C945A1BEC015B01CF5BDF4F49915F
:102B1000A9918880C354D04090E009C0E92FF0E02B
:102B2000EE0FFF1FEA0DFB1D118210829F5F88854B
:102B30009817A0F384B1CF5BDF4F3991832B84B911
:102B400087B12991822B87B98AB19881C354D0402B
:102B5000892B8AB985B1832B85B988B1822B88B935
:102B60008BB1892B8BB9EAE0F0E06F9364E06A9552
:102B7000F1F76F913197C9F784B13095832384B908
:102B800087B12095822387B98AB1909589238AB924
:102B900085B1382335B988B1282328B98BB198235A
:102BA0009BB99090B000C090B1008091B00083605C
:102BB0008093B00082E08093B100D090B20060E0DA
:102BC00070E03AC05091B2005D19650F711DE3B01D
:102BD000E41609F04FC0F6B0FA1609F04BC089B1FF
:102BE000881509F047C025C0A42FB0E09D01220F31
:102BF000331F8501020F131FF80180819181892BFA
:102C0000A1F42C0F3D1FF90181A192A1FC012081AB
:102C100030E0AC0FBD1F51968C9190E028233923F2
:102C2000232B19F4F801718360834F5F888548175F
:102C3000D8F2D50E4E2DAF2D8E859F85681779075A
:102C400008F29092B000C092B10020E00FC0E22FD5
:102C5000F0E0EE0FFF1FEA0DFB1D80819181892BB3
:102C600021F48E859F85918380832F5F8885281727
:102C700070F305C0E3B0F6B089B040E0D7CFCDB770
:102C8000DEB7ECE00C94761BEF92FF920F931F934C
:102C9000CF93DF93EC017B01122F642F402F21E0B3
:102CA0000E942B1419A31AA230E041E050E013C097
:102CB000E32FF0E0D701AE0FBF1FEC0FFD1F8C918B
:102CC000818BCA010C9002C0880F991F0A94E2F709
:102CD000282B2AA33F5F88852AA1381748F32F7332
:102CE0002AA38FEF93E09F878E87CDB7DEB7E6E00C
:102CF0000C947C1B0F930E9444160F9108950F9320
:102D00000E9444160F910895A0E0B0E0EAE8F6E1D1
:102D10000C945E1BEC018B01D0907C00E0907A005B
:102D2000C7B0F8B080917A0086FDFCCF90E009C072
:102D3000E92FF0E0EE0FFF1FE00FF11F118210826C
:102D40009F5F88859817A0F397B18AA180959823F3
:102D500097B998B1892388B987E880937A0050E0C1
:102D600025C0FE01E40FF11D8189806480937C0001
:102D700080917A00806480937A0080917A0086FD49
:102D8000FCCFE42FF0E0EE0FFF1FE00FF11F2091CA
:102D900078003091790080819181820F931F918317
:102DA00080834F5F88854817E0F25F5F89A15817DD
:102DB00010F040E017C040E0F5CFE42FF0E0EE0F58
:102DC000FF1FE00FF11F69A1862F90E09595879571
:102DD00020813181820F931F70E00E94F01A71836D
:102DE00060834F5F8885481740F3D0927C00E09263
:102DF0007A00F8B8C7B8CDB7DEB7E8E00C947A1B14
:102E0000A0E2B0E0E6E0F7E10C945D1B8C017B01F1
:102E1000D42E842F81508230B0F4D8011C96ED91CD
:102E2000FC911D97309779F0808119969C911997A4
:102E3000892B80831A96ED91FC911B9780811996BE
:102E40009C91892B8083F8018089882349F5C02EC5
:102E5000B12EC801B7010E947D15D8011C96ED91D5
:102E6000FC911D97309781F0808119969C9119975C
:102E7000892B80831A96ED91FC911B97908119966E
:102E80008C91809589238083B2E0DB1609F053C0D2
:102E90008C2D9B2DBE016F5F7F4F0E947D1527C03B
:102EA000C02EB12EC801B7010E948416D8011C960D
:102EB000ED91FC911D97309781F0808119969C913E
:102EC0001997892B80831A96ED91FC911B9790811D
:102ED00019968C91809589238083B2E0DB1659F591
:102EE0008C2D9B2DBE016F5F7F4F0E94841640E0AA
:102EF000BE016F5F7F4F1AC0E42FF0E0EE0FFF1F9F
:102F00006701CE0EDF1EE60FF71FD8011E962D912A
:102F10003C911F9780819181281B390BF60180819C
:102F20009181820F931F918380834F5FD801189600
:102F30008C91481708F3A096E9E00C94791BA0E067
:102F4000B0E0E5EAF7E10C945B1BEC01162F072FCC
:102F5000942E22E0421711F0442351F48C819D817C
:102F6000892B09F4A4C08E819F81892B09F49FC00D
:102F7000892D8150823050F488819981892B09F400
:102F800096C08A819B81892B09F491C0CE01612F63
:102F9000702F492D0E940017812F902F9C015901FD
:102FA000CC24DD2400E010E07CC081E0981669F4B8
:102FB000EA81FB81E00FF11F20813181E881F981F5
:102FC000E00FF11F408151813DC0AC81BD8199204E
:102FD00059F4EE81FF81E00FF11F20813181A00FB4
:102FE000B11F4D915C912EC0A00FB11F8D919C918E
:102FF000E881F981E00FF11F20813181EE85FF85A5
:103000008217930710F4AF0105C0A9014E0F5F1F8F
:10301000481B590BEE81FF81E00FF11F6081718128
:10302000EA81FB81E00FF11F80819181EE85FF85B0
:103030006817790710F49F0105C09C012E0F3F1FF0
:10304000261B370B7901E41AF50A01F1F5016081BD
:10305000718180E090E09A0140E050E0621B730BC8
:10306000840B950B28EE33E040E050E00E94C51A37
:10307000970140E050E00E94391BC901F3E0293E6E
:103080003F0714F088EE93E097FF02C080E090E0E5
:10309000F501819391935F010894C11CD11C0E5FCF
:1030A0001F4F888590E0C816D9060CF47ECFCDB7A7
:1030B000DEB7EBE00C94771BA4E0B0E0E2E6F8E1C9
:1030C0000C94541B8C01F62EE72E2A830E949F1726
:1030D000D8011896BC91B9832F2D3E2DC9018C01C2
:1030E000552444246624772443011C821B82AA248D
:1030F000BB246501B8EE2B2EB3E03B2E32C0F801A5
:10310000E080F180FA81FF2321F091012E193F091F
:10311000790139ECE316F10414F04424439483E379
:10312000E816F1049CF0B701882777FD8095982F69
:10313000A60195010E94C51A660E771E881E991E6B
:10314000AB81BC81AE0DBF1DBC83AB83539488EEB5
:1031500093E0A0E0B0E0A80EB91ECA1EDB1E0E5F11
:103160001F4F9981591658F2442021F5692F70E0BC
:1031700084EF91E0DC016A9FC0016B9F900D7A9F04
:10318000900D1124845F9140209106023091070236
:10319000281739071CF440E050E01AC088EE93E08D
:1031A000689FA001699F500D789F500D1124485EC3
:1031B00053400EC0EB81FC819F0140E050E0C40110
:1031C000B3010E94171BA901309307022093060246
:1031D000CA012496E2E10C94701B9C01462F809159
:1031E000080290910902B90121E00E945C1808953B
:1031F0009C01462F8091080290910902B90120E0BC
:103200000E945C1808959C01462F809108029091BD
:103210000902B9010E949F1708959C01462F8091D1
:10322000080290910902B9010E9400170895CF93F6
:10323000DF93EC018A819B81009711F00E943E1C74
:103240008E819F81009711F00E943E1C8881998198
:10325000009711F00E943E1C8C819D81009711F017
:103260000E943E1CDF91CF910895CF93DF93EC0134
:103270008A819B81009711F00E943E1C8E819F8164
:10328000009711F00E943E1C88819981009711F0EF
:103290000E943E1C8C819D81009711F00E943E1C73
:1032A000DF91CF910895A3E6B0E0E9E5F9E10C9450
:1032B000541B7C015B016A01A2962FAFA297DA0131
:1032C0008D919C91892B11F5F701808590E0880FF5
:1032D000991F0E94911BD6018D939C93009709F42E
:1032E000DFC020E030E00CC0C901880F991FD60173
:1032F000ED91FC91E80FF91F118210822F5F3F4F73
:10330000F701808590E02817390774F3D5018D9176
:103310009C91892B89F000E010E03E010894611C2B
:10332000711C41E4242E312C2C0E3D1E31E2432E23
:10333000512C4C0E5D1E28C0F701808590E0880F4F
:10334000991F0E94911BD5018D939C93009709F4BE
:10335000A7C020E030E011C0C901880F991FD50136
:10336000ED91FC91E80FF91FD7011E968D919C916C
:103370001F97918380832F5F3F4FF701808590E0F7
:10338000281739074CF3C7CFC701B301A2964FAD39
:10339000A2970E940017D70118968C91882E992425
:1033A000A101F301A4965FAE4EAEA49760E070E079
:1033B00034C00115110559F0A496AEADBFADA49768
:1033C0002D913C91808191812817390758F4808193
:1033D0009181A496AEADBFADA4978D939C9301153A
:1033E000110541F0DA012D913C9180819181821784
:1033F000930728F480819181DA018D939C936F5F0C
:103400007F4F4E5F5F4F3296A4968EAD9FADA497CF
:103410000296A4969FAF8EAFA497681579054CF2DB
:103420000F5F1F4F0A30110509F0AECF40E050E0AA
:1034300020E030E08E010F5B1F4FBE016F5D7F4FBC
:1034400028C0F801E20FF31F80809180F601A0816F
:10345000B181A20FB31F8D919C9111978815990589
:1034600010F48D929C92FB01E20FF31F80809180FB
:10347000F501A081B181A20FB31F8D919C9111978D
:103480008816990610F48D929C924F5F5F4F2E5FC5
:103490003F4FD70118968C9190E0481759078CF24E
:1034A000CD59DF4FE2E10C94701B1F93CF93DF9354
:1034B000EC01162F862F8150823040F4AE014E5F12
:1034C0005F4FCE01BE0121E00E945319123011F06E
:1034D000112349F4AE014A5F5F4FCE012496BE012D
:1034E00020E00E945319DF91CF911F910895682F1A
:1034F00080910802909109020E94551A0895A0E057
:10350000B0E0E5E8FAE10C945F1B8C01F62EE42EA6
:10351000D22E83E290E00E94911BEC01009711F4FF
:1035200080E00BC0B8014F2D2E2D0D2D0E944416AA
:10353000D0930902C093080281E0CDB7DEB7E7E07F
:103540000C947B1BA0E0B0E0E8EAFAE10C945E1B6F
:103550008C01D62E7A01C22E84E490E00E94911B49
:10356000EC01009711F480E00BC0B8014D2D9701DC
:103570000C2D0E94F814D0930902C093080281E038
:10358000CDB7DEB7E8E00C947A1B629FD001739F41
:10359000F001829FE00DF11D649FE00DF11D929FEF
:1035A000F00D839FF00D749FF00D659FF00D99272E
:1035B000729FB00DE11DF91F639FB00DE11DF91F52
:1035C000BD01CF0111240895991B79E004C0991F12
:1035D000961708F0961B881F7A95C9F7809508956D
:1035E000AA1BBB1B51E107C0AA1FBB1FA617B70729
:1035F00010F0A61BB70B881F991F5A95A9F7809545
:103600009095BC01CD01089597FB092E07260AD09D
:1036100077FD04D0E5DF06D000201AF4709561959F
:103620007F4F0895F6F7909581959F4F0895A1E2F9
:103630001A2EAA1BBB1BFD010DC0AA1FBB1FEE1F2C
:10364000FF1FA217B307E407F50720F0A21BB30B77
:10365000E40BF50B661F771F881F991F1A9469F7F3
:1036600060957095809590959B01AC01BD01CF014F
:10367000089597FB092E05260ED057FD04D0D7DFFD
:103680000AD0001C38F450954095309521953F4F55
:103690004F4F5F4F0895F6F790958095709561951F
:1036A0007F4F8F4F9F4F08952F923F924F925F927F
:1036B0006F927F928F929F92AF92BF92CF92DF9242
:1036C000EF92FF920F931F93CF93DF93CDB7DEB7A7
:1036D000CA1BDB0B0FB6F894DEBF0FBECDBF09943B
:1036E0002A88398848885F846E847D848C849B8492
:1036F000AA84B984C884DF80EE80FD800C811B81A0
:10370000AA81B981CE0FD11D0FB6F894DEBF0FBECE
:10371000CDBFED010895EE0FFF1F0590F491E02D50
:103720000994CF93DF93BC018230910510F462E0DD
:1037300070E0A0910C02B0910D02ED01E0E0F0E02C
:1037400040E050E021C0888199818617970769F48D
:103750008A819B81309719F09383828304C0909370
:103760000D0280930C02FE0134C06817790738F40B
:103770004115510519F08417950708F4AC01FE01B5
:103780008A819B819C01E9012097E9F64115510549
:10379000A9F1CA01861B970B049708F4BA01E0E06F
:1037A000F0E02AC08D919C91119784179507F9F448
:1037B0006417750781F412968D919C911397309739
:1037C00019F09383828304C090930D0280930C02BE
:1037D000FD0132964FC0CA01861B970BFD01E80F11
:1037E000F91F6193719302978D939C9343C0FD01E0
:1037F000828193819C01D9011097A1F680910A02E0
:1038000090910B02892B41F4809192019091930148
:1038100090930B0280930A0240919401509195017C
:103820004115510541F44DB75EB7809190019091DB
:103830009101481B590B20910A0230910B02241769
:103840003507B0F4CA01821B930B8617970780F0E7
:10385000AB014E5F5F4F8417950750F0420F531F27
:1038600050930B0240930A02F9016193719302C0D5
:10387000E0E0F0E0CF01DF91CF910895CF93DF93A7
:10388000009709F450C0EC0122971B821A82A09184
:103890000C02B0910D02109709F140E050E0AC1716
:1038A000BD0708F1BB83AA83FE0121913191E20F8C
:1038B000F31FAE17BF0779F48D919C911197280FD4
:1038C000391F2E5F3F4F3983288312968D919C912B
:1038D00013979B838A834115510571F4D0930D0290
:1038E000C0930C0220C012968D919C911397AD014C
:1038F000009711F0DC01D3CFFA01D383C283219169
:103900003191E20FF31FCE17DF0769F488819981A7
:10391000280F391F2E5F3F4FFA01318320838A81A0
:103920009B8193838283DF91CF9108950F931F939F
:10393000CF93DF938C01EB01009731F46115710592
:1039400019F420E030E038C081E090E06EE070E0F3
:103950000E94E21CFC019C01009771F180E88383C6
:10396000209771F0D387C28781E8838380910E020C
:1039700090910F02892B21F4F0930F02E0930E0235
:1039800001151105C9F01187008783818260838347
:103990008091100290911102892B71F4F093110221
:1039A000E09310028091120290911302892B21F46E
:1039B000F0931302E0931202C901DF91CF911F919E
:1039C0000F9108950F931F93CF93DF93689F80010A
:1039D000699F100D789F100D1124C8010E94911B42
:1039E000EC01009729F060E070E0A8010E94FE1C45
:1039F000CE01DF91CF911F910F910895DC0101C09D
:103A00006D9341505040E0F7089510E0C4ECD0E0D1
:103A100004C0FE010E948D1B2296C63CD107C9F747
:043A2000F894FFCF48
:103A24006D56005072657373204200476F21000089
:103A34000000000000000000000000000000000082
:103A44000000000000000000000000000000000072
:103A54000000000000000000000000000000000062
:103A64000000000000000000000000000000000052
:103A74000000000000000000000000000000000042
:103A84000000000000000000000000000000000032
:103A9400000000200000010203040506FF8813044F
:103AA4000400D007F4010F000208010E0F101112D8
:063AB400200014020000D6
:00000001FF
