:100000000C9464000C948C000C948C000C948C0068
:100010000C948C000C948C000C948C000C948C0030
:100020000C948C000C9470100C948C000C948C002C
:100030000C948C000C946E080C948C000C948C0026
:100040000C948C000C948C000C948C000C948C0000
:100050000C948C000C948C000C948C000C948C00F0
:100060000C948C000C948C00910597059A059D05C5
:10007000A005A305A605A905AC05AF05B205B50504
:1000800020506F6C6F6C750033F720526F626F7485
:10009000004C696E6500666F6C6C6F776572003E30
:1000A0006733323E3E633332004C31362063646541
:1000B000677265673400000000000000001F1F1F0A
:1000C0001F1F1F1F9E119F1111241FBECFEFD8E0CD
:1000D000DEBFCDBF11E0A0E0B1E0ECEDF6E302C081
:1000E00005900D92A233B107D9F711E0A2E3B1E078
:1000F00001C01D92AF3AB107E1F710E0C6ECD0E0C5
:1001000004C02297FE010E94E919C43CD107C9F737
:100110000E94EC010C94611B0C940000282F883085
:1001200068F481E090E002C0880F991F2A95E2F7F9
:10013000282FAAE2B0E0EBE2F0E029C08E3080F494
:1001400030E02850304081E090E002C0880F991FD5
:100150002A95E2F7282FA4E2B0E0E5E2F0E017C02C
:10016000853130F020E0A0E0B0E0E0E0F0E00FC04A
:1001700030E02E50304081E090E002C0880F991F9F
:100180002A95E2F7282FA7E2B0E0E8E2F0E06F3F1F
:1001900019F48081822709C0662319F08081822B9F
:1001A00004C09081822F8095892380838C91822B3B
:1001B0008C9308950F931F93CF93DF938C01C0E02E
:1001C000D0E0F801EC0FFD1F8081918165E670E0C1
:1001D0000E944C19FB01E15FFE4F80810E94A80B39
:1001E0002296CA30D10569F7DF91CF911F910F9107
:1001F00008950F931F9306EB10E0C80160E00E9482
:10020000EE0CC801019661E00E94EE0CC801029656
:1002100062E00E94EE0CC801039663E00E94EE0CBF
:10022000C801049664E00E94EE0CC801059665E0E2
:100230000E94EE0CC801069666E00E94EE0C0E9439
:10024000B60A1F910F910895CF92DF92EF92FF921D
:100250000F931F93DF93CF93CDB7DEB72A970FB6D7
:10026000F894DEBF0FBECDBF80ED97E00E942D1247
:100270000E94F90080E890E00E94920B80E061E02B
:100280000E94860A88E890E00E94920B8FE990E035
:100290000E945B0888EE93E00E94BB100E94B60AA1
:1002A00081E990E00E94920B80E061E00E94860A62
:1002B00086E990E00E94920B88EE93E01BC00E94BA
:1002C00031047C010E94B60A0027F7FC0095102F2C
:1002D000C801B7010E94810B80E091E00E94A20B4F
:1002E00080E061E00E94860A83E091E00E94A20B18
:1002F00084E690E00E94BB1080E10E94E90D882313
:10030000F1F280E10E94ED0F88EE93E00E94BB10B5
:100310000CEE1FEF0832110528F088E290E068ED3E
:100320007FEF04C088ED9FEF68E270E00E94E40D6B
:1003300081E00E94CD1184E190E00E94BB100F5F2C
:100340001F4F0C33110531F780E090E060E070E062
:100350000E94E40D6E010894C11CD11C18C0C60196
:1003600061E00E94B2117C010E94B60A00E010E038
:10037000C801B7010E94810B80E061E00E94860AFB
:10038000C6010E94DA0084E690E00E94BB1080E182
:100390000E94E90D882319F380E10E94ED0F0E946D
:1003A000B60A8BE091E00E94A20B89EA90E00E94DD
:1003B0005B080E945D048823E1F72A960FB6F89443
:1003C000DEBF0FBECDBFCF91DF911F910F91FF9088
:1003D000EF90DF90CF9008950F931F93DF93CF930B
:1003E000CDB7DEB72A970FB6F894DEBF0FBECDBFEC
:1003F0000E9424018E010F5F1F4FC80161E00E941F
:10040000B21123E0883E920768F480E090E064E651
:1004100070E00E94E40D81E061E00E948E0087E0C0
:1004200060E018C0885B9B4048F484E690E064E696
:1004300070E00E94E40D81E061E008C084E690E095
:1004400060E070E00E94E40D81E060E00E948E00B8
:1004500087E061E00E948E00D0CF982F803278F440
:1004600087E880937A0080917C0080648076892B75
:1004700080937C0080917A00806480937A00089554
:1004800080917C0085FF05C080917900282F30E0A5
:1004900004C02091780030917900C90108959093AB
:1004A0001A018093190108950895089580917C00A0
:1004B00085FF05C080917900282F30E004C020918D
:1004C000780030917900C9010895282F8032B0F466
:1004D00087E880937A0080917C00982F906466234F
:1004E00011F0806C02C0892F8F77807E822B8093E1
:1004F0007C0080917A00806480937A000895982F20
:10050000803278F487E880937A0080917C00806460
:100510008076892B80937C0080917A008064809320
:100520007A0080917A0086FDFCCF80917C0085FF67
:1005300005C080917900282F30E004C02091780018
:1005400030917900C90108950E947F020895EF92C9
:10055000FF920F931F93982F803278F487E880934F
:100560007A0080917C0080648076892B80937C0067
:1005700080917A00806480937A0080917A0086FD71
:10058000FCCFFB01EE24FF24870180917A00806478
:1005900080937A0080917A0086FDFCCF80917C0068
:1005A00085FF04C08091790090E004C080917800BC
:1005B00090917900A0E0B0E0E80EF91E0A1F1B1F21
:1005C000319719F7CB01969587956034710538F40A
:1005D0008E0D9F1D70E00E944C199B010DC0A0E084
:1005E000B0E0E80EF91E0A1F1B1F9B0140E050E01F
:1005F000C801B7010E947319C9011F910F91FF90A3
:10060000EF90089587E064E170E00E94A7020895EA
:100610000E94A702089590931A01809319010895EA
:100620001F9310917C0080917C008F7D80937C00D3
:100630008EE164E170E00E94A7028EE164E170E067
:100640000E94A7029C0115FD04C080917C008F7D53
:1006500003C080917C00806280937C00B901769514
:10066000679580E090E06C54744D8E4E9F4F40E053
:1006700050E00E947319C9011F9108950E94100350
:100680000895A0E0B0E02091190130911A0140E0F6
:1006900050E0BC01CD010E9421199B01AC01809169
:1006A0007C0085FF0BC0B901CA0161587F4F8F4F95
:1006B0009F4F2FEF30E040E050E00AC0B901CA017F
:1006C00061507E4F8F4F9F4F2FEF33E040E050E05F
:1006D0000E947319C90108950E94A7020E94410354
:1006E00008950E946C03089580917C0085FF06C0E8
:1006F0008091790090E00E944103089580917800F4
:10070000909179000E9441030895982F803278F4E7
:1007100087E880937A0080917C0080648076892BC2
:1007200080937C0080917A00806480937A0080912D
:100730007A0086FDFCCF0E94740308950E94850311
:1007400008950E947403089587E064E170E00E94B8
:10075000A7020E94410308950E94410308951F9338
:1007600010917C0080917C008F7D80937C0086E0DE
:1007700064E170E00E946C039C0115FD04C080914F
:100780007C008F7D03C080917C00806280937C0020
:10079000C901880F991F820F931F880F991F880F17
:1007A000991F8A5792406DE070E00E946019CB015A
:1007B0001F9108950E94AF0308951F9310917C002C
:1007C00080917C008F7D80937C0086E064E170E006
:1007D0000E946C039C0115FD04C080917C008F7DFC
:1007E00003C080917C00806280937C0084E190E073
:1007F000AC01249FC001259F900D349F900D1124C2
:100800008E529F4167E270E00E946019CB011F91F8
:1008100008950E94DD0308951F9310917C0080913C
:100820007C008F7D80937C0086E06AE070E00E940F
:100830006C03AC0115FD04C080917C008F7D03C06A
:1008400080917C00806280937C009A01220F331F8C
:10085000240F351F2F5F3F4F36952795C9011F91F4
:1008600008950E940C0408951F9310917C008091BC
:100870007C008F7D80937C0086E06AE070E00E94BF
:100880006C03AC0115FD04C080917C008F7D03C01A
:1008900080917C00806280937C009A01220F331F3C
:1008A000240F351FC9011F9108950E943404089533
:1008B0000E943404089508950895809126018823A4
:1008C00039F020E08091500190915101892B09F07D
:1008D00021E0822F089510926F00E1E8F0E080811E
:1008E000887F8160808380E197E290938900809384
:1008F000880010928B0010928A0081E0809326017C
:100900001092510110925001089510926F0083E2ED
:100910008093800081E1809381001092820080E1C9
:1009200097E2909389008093880010928B00109238
:100930008A00229A78940895A0E0B0E0E2EAF4E018
:100940000C94B819FC015B01C42E80914F018823DF
:10095000C9F481E080934F0110926F0083E280938D
:10096000800081E1809381001092820080E197E213
:10097000909389008093880010928B0010928A00D7
:10098000229A789410922601F7FD03C0DD24D394B7
:1009900003C0FF772AE0D22E80918100082F10E05B
:1009A000087F107088ECD89EC00111248E179F0715
:1009B000C0F4EF0187E2E131F80710F0C0E1D7E2BF
:1009C000BE017695679580E090E06058794687464D
:1009D0009F4F9E0140E050E00E9473197901016031
:1009E00024C088E2D89E802D1124C82FD0E0CE17D5
:1009F000DF0708F4EF01BE01769567959E0140E0A0
:100A000050E08AE0D81639F480E090E0605E7344EC
:100A100081449F4F06C080E090E060537D4E8C4E35
:100A20009F4F0E947319790102608AE0D81639F449
:100A3000CE0105966AE070E00E944C19EB0183E05C
:100A4000C83ED80711F4B5010FC0BE0180E090E0A8
:100A5000950140E050E00E94211928EE33E040E08B
:100A600050E00E949519B90110926F000093810027
:100A7000F0928900E0928800E0918800F09189006E
:100A8000AC2DA03108F0AFE080E190E08A1B910925
:100A900002C0F695E7958A95E2F7F0938B00E09314
:100AA0008A00709337016093360186B38FEF86BB5F
:100AB00081E080936F00CDB7DEB7EAE00C94D419E3
:100AC0000E949C040895CF93DF93EB018F3F11F0B8
:100AD000442329F488EE93E0BE0140E067C08131F1
:100AE00010F420E005C0282F2051203608F02FE513
:100AF000822F6CE00E944019382F682F70E084EF3D
:100B00009FEF689FF001699FF00D789FF00D112411
:100B1000E20FF11DEC30F10538F4EC5CFF4F0C9462
:100B2000E7198CE991E023C080E090E020C085EBDC
:100B300091E01DC08FEC91E01AC08AEE91E017C0E1
:100B400087E092E014C086E292E011C087E492E070
:100B50000EC089E692E00BC08EE892E008C085EBFB
:100B600092E005C08EED92E002C08AE093E037305B
:100B700071F002C0880F991F6A95E2F7323020F0B9
:100B800005966AE070E00BC0805090480BC036E0DC
:100B9000880F991F3A95E1F7029665E070E00E9490
:100BA0004C19CB01403108F04FE0BE010E949C047B
:100BB000DF91CF9108950E946305089580912601E9
:100BC000882339F020E08091500190915101892BC8
:100BD00009F021E0822F089510926F00E1E8F0E023
:100BE0008081887F8160808380E197E29093890093
:100BF0008093880010928B0010928A0081E080938D
:100C00002601109251011092500108953091340143
:100C1000E0915001F0915101332311F0249101C072
:100C20002081822F81548A3108F4205E203259F4C9
:100C300080915001909151010196909351018093C0
:100C40005001019729F7822F0895CF93DF930E94D7
:100C50000606282FC0E0D0E01DC0CE0153E0880F6B
:100C6000991F5A95E1F7CC0FDD1FC80FD91F822FAE
:100C7000992787FD9095C80FD91FE0978091500163
:100C800090915101019690935101809350010E94DF
:100C90000606282F822F80538A30F8F2CE01DF918A
:100CA000CF910895A0E0B0E0E8E5F6E00C94B61925
:100CB00080901B01B0903201BB2021F06091330184
:100CC000662399F4A0903301009120011091210135
:100CD000E0901C01F0901D01C0911E01D0911F01F8
:100CE000C0902201D090230108C18FEF70E040E056
:100CF0000E94630510923301CBC194E0892EBB247E
:100D000004EF11E084E0E82EF12CC0EDD7E0B4E070
:100D10009B2EAFE0CA2ED12C0E940606282F809170
:100D2000500190915101019690935101809350018F
:100D3000263609F498C02736CCF42236A1F12336A2
:100D400074F42E3361F12F3334F42132B1F22C33A9
:100D500009F00BC126C0213609F007C121C1243694
:100D600009F451C025360CF066C035C02F3609F4A1
:100D7000C1C0203754F42C3609F4A5C02D3609F42F
:100D8000A6C0273609F0F1C086C0243709F4D1C0C7
:100D9000263709F4E6C0223709F0E7C0B0C08394D3
:100DA000BBCF8A94B9CFA0923301B0923201109395
:100DB000210100932001F0921D01E0921C01D093CB
:100DC0001F01C0931E0190921B01D0922301C0927B
:100DD00022012BE0FCC0A0923301B09232011093AB
:100DE000210100932001F0921D01E0921C01D0939B
:100DF0001F01C0931E0190921B01D0922301C0924B
:100E0000220120E0E4C0A0923301B092320110939D
:100E1000210100932001F0921D01E0921C01D0936A
:100E20001F01C0931E0190921B01D0922301C0921A
:100E3000220122E0CCC0A0923301B0923201109383
:100E4000210100932001F0921D01E0921C01D0933A
:100E50001F01C0931E0190921B01D0922301C092EA
:100E6000220124E0B4C0A0923301B0923201109369
:100E7000210100932001F0921D01E0921C01D0930A
:100E80001F01C0931E0190921B01D0922301C092BA
:100E9000220125E09CC0A0923301B0923201109350
:100EA000210100932001F0921D01E0921C01D093DA
:100EB0001F01C0931E0190921B01D0922301C0928A
:100EC000220127E084C00E9425067C0144C00E94C4
:100ED00006068C3611F4BB2403C0AA24BB24B394A9
:100EE000809150019091510101969093510180930E
:100EF000500112CF0E942506882E982C0DCFA0926B
:100F00003301B09232011093210100932001F0923D
:100F10001D01E0921C01D0931F01C0931E0190920D
:100F20001B01D0922301C092220120E0FF24F39400
:100F30004FC00E942506BC0180EC9DE50E944C1923
:100F4000CB01EB01F3E0CC0FDD1FFA95E1F7880F41
:100F5000991FC80FD91FCE01B7010E944C198B01F0
:100F6000DBCE0E9425066C01D7CEA0923301B09251
:100F700032011093210100932001F0921D01E092B3
:100F80001C01D0931F01C0931E0190921B01D092AF
:100F90002301C0922201109251011092500178C099
:100FA000A0923301B09232011093210100932001ED
:100FB000F0921D01E0921C01D0931F01C0931E010D
:100FC00090921B01D0922301C092220129E0FF24BC
:100FD0008CE0889EC0011124E22EE80E0AC08091A8
:100FE00050019091510101969093510180935001CD
:100FF000E3940E9406068B3291F3833281F30CC096
:1010000080915001909151010196909351018093EC
:101010005001EA940E9406068D3291F3C09120019E
:10102000D09121018153883058F400911E01109114
:101030001F010E942506BC01C8010E944C19EB014A
:101040008E010BC0809150019091510101969093B7
:10105000510180935001C00FD11F169507950E9432
:1010600006068E3279F380913201882339F0CE0161
:101070009695879580933301C81BD109FF2011F005
:10108000EE24EA948E2DBE01409122010E94630558
:10109000CDB7DEB7ECE00C94D21910926F009093AC
:1010A00051018093500181E080933401109233010B
:1010B0000E94520608950E944D08089510926F00F4
:1010C000909351018093500110923401109233019A
:1010D0000E94520608950E945E0808951F920F9282
:1010E0000FB60F9211242F933F934F935F936F93FB
:1010F0007F938F939F93AF93BF93EF93FF938091D1
:101100003601909137010197909337018093360112
:10111000019611F510926F00789480918100887F7C
:1011200081608093810080E197E2909389008093B1
:10113000880010928B0010928A0081E08093260133
:101140008091500190915101892B31F080913501AE
:10115000882311F40E945206FF91EF91BF91AF9145
:101160009F918F917F916F915F914F913F912F91BF
:101170000F900FBE0F901F90189510926F008091E6
:101180002601882341F08091500190915101892BD3
:1011900011F00E94520681E080936F0020E0809160
:1011A000500190915101892B09F021E0822F08957F
:1011B00080933501882311F40E94BD0808950E9490
:1011C000D80808950E94BD0808950895089580E004
:1011D00090E00895EF92FF920F931F936AB1579892
:1011E0005A98289AE0903C01F0903D0100913E0110
:1011F00010913F0120E030E041E050E0CA016F93E0
:1012000064E06A95F1F76F910197C9F75C9ACA019A
:101210006F9364E06A95F1F76F910197C9F789B10F
:101220005C98FA016F9364E06A95F1F76F913197DA
:10123000C9F75C9AFA016F9364E06A95F1F76F91D0
:101240003197C9F75C9887FF0BC02C5F3F4FC901EE
:10125000A0E0B0E08E159F05A007B10708F4CECF3F
:101260006AB91F910F91FF90EF90089565B190E0DA
:10127000AC0141705070440F551F9C0126703070B6
:1012800053E0220F331F5A95E1F7422B6D7C462B1A
:1012900045B92BB18870907034E0880F991F3A954A
:1012A000E1F72F77282B2BB95C9A81E090E0FC01C5
:1012B0006F9364E06A95F1F76F913197C9F75C9885
:1012C0006F9364E06A95F1F76F910197C9F70895FC
:1012D0008091380190913901009711F00E949A1A7B
:1012E0008091240190E001972091250130E0AC012C
:1012F000429FC001439F900D529F900D11240E9468
:10130000ED199093390180933801009729F160E03D
:1013100070E208C0E0913801F0913901E40FF51F47
:1013200070836F5F462F50E08091240190E0019719
:101330002091250130E0FC01E29FC001E39F900D68
:10134000F29F900D11244817590724F38BEA9BE074
:1013500067EE78E00E94F21A089580932501609369
:1013600024010E9468090895809325016093240157
:101370000E94680908950E946809089580E197E233
:10138000A0E0B0E080933C0190933D01A0933E012A
:10139000B0933F01529A209A549A8EE190E00E94B5
:1013A000DB1083E00E94F10C86E090E00E94DB10ED
:1013B00083E00E94F10C82E090E00E94DB1083E069
:1013C0000E94F10C82E090E00E94DB1082E00E941B
:1013D000F10C82E090E00E94DB1088E20E943B0A60
:1013E00088E00E943B0A81E00E943B0A86E00E945E
:1013F0003B0A8CE00E943B0A0895809140018823BB
:1014000029F481E0809340010E94BE090895BF92B3
:10141000CF92DF92EF92FF920F931F93082F162F18
:10142000F42E0E94FD090E94EA08B4B0C5B0DAB0FB
:10143000EBB02898112311F05A9A01C05A9884B140
:10144000826384B9579A81E0F81629F0802F82953B
:101450008F700E943609802F8F700E943609DAB88B
:10146000EBB8B4B8C5B81F910F91FF90EF90DF9023
:10147000CF90BF90089560E042E00E94070A08956F
:101480000F931F93082F162F08C0002311F480E13B
:1014900001C084E10E943B0A11501123B1F71F9152
:1014A0000F9108950E94400A08958CE00E943B0A23
:1014B00008950E94550A0895813011F48FE001C00B
:1014C0008EE00E943B0A08950E945C0A0895A4E001
:1014D000B0E0EDE6FAE00C94BE19182F062F80E874
:1014E000898380EC8A8384E98B8384ED8C83FE017D
:1014F000E60FF11D8181810F0E943B0A10933B0191
:1015000000933A012496E4E00C94DA190E94670AE9
:10151000089581E00E943B0A809138019091390141
:10152000892B19F160E070E208C0E0913801F09178
:101530003901E40FF51F70836F5F462F50E08091F3
:10154000240190E001972091250130E0FC01E29F09
:10155000C001E39F900DF29F900D11244817590789
:1015600024F310923B0110923A0108950E94890AD7
:10157000089561E042E00E94070A08950F931F93C7
:10158000CF93DF9300E010E8C82FD0E0812F90E0E8
:101590008C239D23892B11F081E301C080E30E94FD
:1015A000B90A0F5F083011F01695F0CFDF91CF9197
:1015B0001F910F9108950E94BE0A08958A3010F479
:1015C000805D01C0895C0E94B90A08951F93182F9D
:1015D00082958F700E94DE0A812F8F700E94DE0A32
:1015E0001F9108951F93182F892F0E94E60A812FBB
:1015F0000E94E60A1F9108950E94F20A08950E942F
:10160000E60A08956F927F928F929F92AF92BF9257
:10161000CF92DF92FF920F93DF93CF93CDB7DEB7D8
:101620002A970FB6F894DEBF0FBECDBF5B016C01E9
:101630000AE03E010894611C711CFA2CC601B50138
:101640002AE030E040E050E00E947319C901DA015D
:101650005C016D0101504301800E911C80E3F80E86
:10166000C601B5012AE030E040E050E00E942119B7
:10167000F61AF401F082A114B104C104D104E9F610
:1016800008C0F601E00FF11D80810E94B90A0F5FCA
:1016900004C06E010894C11CD11C0A3090F32A9634
:1016A0000FB6F894DEBF0FBECDBFCF91DF910F9183
:1016B000FF90DF90CF90BF90AF909F908F907F90E2
:1016C0006F9008950E94020B0895EF92FF920F937E
:1016D0001F937B018C0197FF0BC010950095F09430
:1016E000E094E11CF11C011D111D8DE20E94B90A5C
:1016F000C801B7010E94020B1F910F91FF90EF905C
:1017000008950E94650B0895CF93DF93EC0103C009
:101710000E94B90A2196FE0184918823C9F7DF91BE
:10172000CF9108950E94840B0895CF93DF93EC012D
:1017300003C021960E94B90A88818823D1F7DF91DE
:10174000CF9108950E94950B08950E94B90A0895BB
:101750000E94B90A0895A0E0B0E0E1EBFBE00C9430
:10176000BA19E82E8091380190913901892B09F43A
:1017700005C12AE0E21609F446C038E0E316C9F4D0
:1017800080913B01815080933B018F3F51F48091C8
:101790003A01815080933A018091250181508093D4
:1017A0003B0180913A018F3F09F0E2C010923A016B
:1017B000DDC08E2D0E94B90A20913A012223C9F082
:1017C00030E0215030408091250190E0AC01249F11
:1017D000C001259F900D349F900D112420913B0155
:1017E000E0913801F0913901E80FF91FE20FF11D86
:1017F000E08280913B018F5F80933B0190912501B6
:10180000891709F0BBC040913A01242F30E0809144
:10181000240190E001972817390709F0A4C0C0E01F
:10182000D0E044C080E06C2F0E94670AFF246E0164
:101830000894C11CD11C35C00F2D10E090E09C0114
:10184000C29FC001C39F900DD29F900D1124E091C3
:101850003801F0913901E00FF11FE80FF91F808185
:101860000E94B90AE0913801F09139018091250177
:1018700090E0C89FD001C99FB00DD89FB00D112432
:10188000E00FF11FAE0FBF1FAC01C49EC001C59E8B
:10189000900DD49E900D1124E80FF91F80818C9338
:1018A000F39480912501F81638F2E6016091240145
:1018B000862F90E00297C817D9070CF4B3CF623097
:1018C00008F440C0625080E00E94670AFF24E0E212
:1018D000DE2E34C00F2D10E08091240190E002979D
:1018E00030E0AC01429FC001439F900D529F900D8C
:1018F0001124E0913801F0913901E00FF11FE80F58
:10190000F91F80810E94B90A2091240130E0225001
:1019100030408091250190E0AC01249FC001259FBB
:10192000900D349F900D1124E0913801F091390110
:10193000E00FF11FE80FF91FD082F39420912501E9
:10194000F21640F260912401615080E00E94670A23
:1019500000E004C080E20E94B90A0F5F8091250177
:101960000817C0F303C04F5F40933A0110923B0148
:1019700080913B0160913A010E94670A2E2D332726
:1019800027FD3095C901CDB7DEB7E8E00C94D61934
:10199000EF92FF920F931F93CF93DF937C01062F5B
:1019A00010E0F3E0000F111FFA95E1F7C0E0D0E07E
:1019B0009E01200F822F80640E943B0AF701EC0FEA
:1019C000FD1FE4918E2F0E94B90A2196C830D105DF
:1019D00079F7CDB7DEB7E6E00C94D8190E94C80CB1
:1019E000089560E041E00E94070A08950F931F9355
:1019F000CF93DF93082F162FEA010BC0002311F4B9
:101A000088E101C08CE10E943B0ACE010E94DB10FC
:101A10001150112399F7DF91CF911F910F910895E4
:101A20000E94F60C0895282F883068F481E090E039
:101A300002C0880F991F2A95E2F7282FAAE2B0E08A
:101A4000EBE2F0E029C08E3080F430E028503040E6
:101A500081E090E002C0880F991F2A95E2F7282FB5
:101A6000A4E2B0E0E5E2F0E017C0853130F020E01C
:101A7000A0E0B0E0E0E0F0E00FC030E02E503040F9
:101A800081E090E002C0880F991F2A95E2F7282F85
:101A9000A7E2B0E0E8E2F0E06F3F19F4808182272E
:101AA00009C0662319F08081822B04C09081822FA7
:101AB0008095892380838C91822B8C93089508953F
:101AC0000895E0EBF0E083EF8083808184BDE1EB5B
:101AD000F0E082E08083808185BDE4EBF0E010825D
:101AE0008081E3EBF0E08083808188BD88B587BD8D
:101AF00086E060E00E94130D85E060E00E94130D17
:101B00008BE060E00E94130D83E060E00E94130D03
:101B1000089580914101882329F481E08093410157
:101B20000E94610D0895CF93DF93EC010E94890D0F
:101B3000D7FD02C020E004C0D095C195DF4F21E061
:101B4000CE01CF3FD10519F014F08FEF90E02223A2
:101B500019F018BC87BD02C088BD17BCDF91CF91BA
:101B600008950E94930D0895CF93DF93EC010E9496
:101B7000890DD7FD02C020E004C0D095C195DF4F8C
:101B800021E0CE01CF3FD10519F014F08FEF90E0A6
:101B9000222329F01092B4008093B30004C08093F4
:101BA000B4001092B300DF91CF9108950E94B40D5C
:101BB00008950F931F938B010E94930DC8010E94FB
:101BC000B40D1F910F9108950E94D90D08950895A5
:101BD0000895282F80914201882391F481E0809319
:101BE000420184B18D7C84B985B1826385B985E079
:101BF00090E06F9364E06A95F1F76F910197C9F7F0
:101C000083B180958223089580914201882391F4C5
:101C100081E08093420184B18D7C84B985B1826377
:101C200085B985E090E06F9364E06A95F1F76F9174
:101C30000197C9F7089584B18D7C84B985B1826319
:101C400085B985E090E06F9364E06A95F1F76F9154
:101C50000197C9F70895282F80914201882391F4B4
:101C600081E08093420184B18D7C84B985B1826327
:101C700085B985E090E06F9364E06A95F1F76F9124
:101C80000197C9F783B18095822308950F931F931D
:101C9000082F13B10E940C11AB01BC0180914201CD
:101CA000882391F481E08093420184B18D7C84B9D2
:101CB00085B1826385B985E090E06F9364E06A95B1
:101CC000F1F76F910197C9F780914801813011F1C7
:101CD000813038F0823009F443C0833009F089C084
:101CE00065C0202F30E0812F90E0809590952823CB
:101CF0003923232B09F47DC0109510231093430141
:101D0000409344015093450160934601709347010D
:101D100081E06DC08091440190914501A091460100
:101D2000B0914701481B590B6A0B7B0B4F30510593
:101D30006105710508F45DC040914301812F90E079
:101D400080959095242F30E082239323892B59F19D
:101D500082E080934801109514231093430149C0F9
:101D6000E0914301AE2FB0E0212F30E0CD0182237E
:101D70009323892B79F083E080934801E123E0935A
:101D80004301409344015093450160934601709391
:101D900047012FC0802F90E0209530958223932318
:101DA000A817B90731F11092480123C0809144016E
:101DB00090914501A0914601B0914701481B590BF4
:101DC0006A0B7B0B4F3051056105710590F0409116
:101DD0004301842F90E0212F30E082239323892B2D
:101DE00029F010924801842F812304C082E080935F
:101DF000480180E01F910F9108950E94460E0895BA
:101E00000F931F93082F13B110950E940C11AB0173
:101E1000BC0180914201882391F481E080934201CA
:101E200084B18D7C84B985B1826385B985E090E009
:101E30006F9364E06A95F1F76F910197C9F780910C
:101E40004E01813011F1813038F0823009F443C005
:101E5000833009F089C065C0202F30E0812F90E0E9
:101E60008095909528233923232B09F47DC0109564
:101E700010231093490140934A0150934B01609302
:101E80004C0170934D0181E06DC080914A019091A9
:101E90004B01A0914C01B0914D01481B590B6A0BAD
:101EA0007B0B4F3051056105710508F45DC0409111
:101EB0004901812F90E080959095242F30E0822376
:101EC0009323892B59F182E080934E0110951423BE
:101ED0001093490149C0A0914901212F30E0EA2F18
:101EE000F0E0C9018E239F23892B79F083E0809352
:101EF0004E011A231093490140934A0150934B011C
:101F000060934C0170934D012FC0802F90E020957D
:101F1000309582239323E817F90731F110924E018F
:101F200023C080914A0190914B01A0914C01B09146
:101F30004D01481B590B6A0B7B0B4F305105610556
:101F4000710590F040914901812F90E0242F30E0FD
:101F500082239323892B29F010924E01812F842311
:101F600004C082E080934E0180E01F910F9108959C
:101F70000E94000F08951F93CF93DF93182F809135
:101F80004201882391F481E08093420184B18D7CE9
:101F900084B985B1826385B985E090E06F9364E090
:101FA0006A95F1F76F910197C9F7C12FD0E083B11E
:101FB00090E08C239D23892BD1F38AE090E00E944E
:101FC000DB1083B190E08C239D23892B81F383B1B7
:101FD0008123DF91CF911F9108950E94BB0F089537
:101FE0001F93CF93DF93182F80914201882391F4A0
:101FF00081E08093420184B18D7C84B985B1826394
:1020000085B985E090E06F9364E06A95F1F76F9190
:102010000197C9F7C12FD0E083B190E080959095EA
:102020008C239D23892BC1F38AE090E00E94DB1072
:1020300083B190E0809590958C239D23892B61F34B
:1020400083B180958123DF91CF911F9108951F93D4
:102050000E94F00F182F0E94BB0F812F1F9108952F
:102060000E94271008950E94F00F0895A2E0B0E0AA
:10207000ECE3F0E10C94C0192091A5013091A60188
:10208000CE0101962115310519F48F5A914002C0F5
:10209000821B930B9A83898389819A812296E2E03D
:1020A0000C94DC1908950895A2E0B0E0EAE5F0E1AF
:1020B0000C94C0192091A5013091A601CE01019682
:1020C0002115310519F48F5A914002C0821B930BE0
:1020D0009A83898389819A812296E2E00C94DC19A3
:1020E0002F928F939F932FB680915301909154011B
:1020F0000196809353019093540190E08091550193
:10210000891F8093550190915B019C5F90935B01C7
:1021100080915A0180519742C0F090935B01809367
:102120005A01809156019091570101968093560172
:102130009093570190E080915801891F8093580136
:1021400080915901891F809359012FBE9F918F91D2
:102150002F9018956F5F7F4F8F4F9F4F660F771FA0
:10216000881F991F25E030E040E050E00E9473197D
:10217000CA01B901089528EE33E009C0F9016F934F
:1021800064E06A95F1F76F913197C9F7019700976D
:10219000A9F708956F5F7F4F8F4F9F4F660F771F8F
:1021A000881F991F25E030E040E050E00E9473193D
:1021B000CA01B901089528EE33E009C0F9016F930F
:1021C00064E06A95F1F76F913197C9F7019700972D
:1021D000A9F70895A0E7B0E08C918E7F8C93E0EB97
:1021E000F0E0808183608083E1EBF0E08081807F9C
:1021F0008083808182608083B89A8C9181608C9387
:102200007894089580915C01882329F481E080937B
:102210005C010E94EA1008950E940211E0E7F0E0DC
:1022200080818E7F808320915601309157014091AB
:10223000580150915901808181608083B901CA01A0
:1022400008950E940C1108950E940211809170005F
:102250008E7F809370006091B200809152019091C6
:102260005301A0915401B0915501B89905C0262F92
:1022700030E040E050E011C08091B2002091520166
:1022800030915301409154015091550120503F4FDE
:102290004F4F5F4F90E0A0E0B0E0282B392B4A2B46
:1022A0005B2B80917000816080937000B901CA013E
:1022B00008950E94241108950E940211E0E7F0E0C1
:1022C00080818E7F80831092560110925701109268
:1022D00058011092590110925B0110925A018081AD
:1022E0008160808308950E945C11089580915D0152
:1022F00090915E01089580915F0190916001089531
:1023000080916101909162010895809163019091A3
:102310006401089580915D0190915E01089580911E
:102320005F01909160010895809161019091620137
:1023300008958091630190916401089508958DE559
:1023400091E00E94911708958DE591E00E94B816E2
:1023500008959C01462F8DE591E0B90121E00E948E
:10236000B81608959C01462F8DE591E0B90120E053
:102370000E94B81608958DE591E00E94FB1508951E
:102380009C01462F8DE591E0B9010E94FB1508954F
:102390008DE591E00E94B1180895682F8DE591E0D8
:1023A0000E94B11808958DE591E00E94D41208951D
:1023B0008DE591E00E94D41208958DE591E00E9490
:1023C000EC1208958DE591E00E94EC1208959C01B5
:1023D000462F8DE591E0B9010E945C1508959C019E
:1023E000462F8DE591E0B9010E945C1508950F9389
:1023F000DF93CF9300D000D00F92CDB7DEB79C0112
:10240000962FDE011196E7E2F1E085E001900D9252
:102410008150E1F7BE016F5F7F4F992329F08DE571
:1024200091E045E00FEF04C08DE591E045E003E168
:102430000E9454138DE591E00E94D4120E945C1119
:102440000F900F900F900F900F90CF91DF910F9101
:10245000089561E00E94F711089560E00E94F7116D
:1024600008958DE591E00E9403130895A091A301C2
:10247000B091A4011C96ED91FC911D97309779F0D5
:10248000808119969C911997892B80831A96ED91DA
:10249000FC911B97808119969C91892B80830895CC
:1024A000A091A301B091A4011C96ED91FC911D9700
:1024B000309781F0808119969C911997892B8083A0
:1024C0001A96ED91FC911B97908119968C918095AD
:1024D000892380830895E091A301F091A401808174
:1024E00091810895E091A301F091A40182819381EB
:1024F0000895E091A301F091A4018481958108954C
:10250000E091A301F091A401868197810895FC01D7
:10251000118210821382128215821482178216820F
:10252000613118F080E1808701C06087208B4830DE
:1025300060F481E090E002C0880F991F4A95E2F7AD
:102540004AE250E02BE230E029C04E3080F4242FE4
:1025500030E02850304081E090E002C0880F991FA1
:102560002A95E2F744E250E025E230E017C0453119
:1025700030F080E040E050E020E030E00FC0242F59
:1025800030E02E50304081E090E002C0880F991F6B
:102590002A95E2F747E250E028E230E0818733876E
:1025A0002287558744870895DC011C96ED91FC91A4
:1025B0001D97309781F0808119969C911997892BEE
:1025C00080831A96ED91FC911B97908119968C91BE
:1025D0008095892380830895DC011C96ED91FC9100
:1025E0001D97309779F0808119969C911997892BC6
:1025F00080831A96ED91FC911B97808119969C918E
:10260000892B80830895DC0120E040C0ED91FC918E
:102610001197309761F0822F90E0880F991FE80F93
:10262000F91F1E968D919C911F979183808314961C
:10263000ED91FC911597309761F0822F90E0880F13
:10264000991FE80FF91F1E968D919C911F979183FA
:1026500080831296ED91FC911397309741F0822F71
:1026600090E0880F991FE80FF91F118210821696CB
:10267000ED91FC911797309741F0822F90E0880FF1
:10268000991FE80FF91F118210822F5F18968C9105
:102690001897281708F4BACF08958091A301909154
:1026A000A4010E9403130895A0E0B0E0EAE5F3E17D
:1026B0000C94B819EC015B01642F7901402F20E0E4
:1026C0000E948712CE018F5B9F4FFC011082DE01BA
:1026D000AE5BBF4F1C92FE01ED5BFF4F1082FF8689
:1026E000EE8640E061E070E06F017D018C014EC03C
:1026F000F501E40FF11D8081883050F49B0102C088
:10270000220F331F8A95E2F7922F29E230E01FC093
:102710008E3060F490E00897FB0102C0EE0FFF1FBF
:102720008A95E2F79E2F23E230E011C0853120F038
:1027300090E020E030E00BC090E00E979B0102C0DB
:10274000220F331F8A95E2F7922F26E230E0E42F22
:10275000F0E0DE01AE0FBF1F51969C93EE0FFF1FFE
:10276000EC0FFD1F32A321A32332310511F4F80130
:1027700009C02632310511F4F70104C029323105B0
:1027800021F4F6018081982B90834F5F888548174C
:1027900008F4AECFCDB7DEB7EAE00C94D4190F93AE
:1027A0000E9454130F9108950F930E9454130F9198
:1027B0000895A0E0B0E0EFEDF3E10C94B619EC0160
:1027C0005B01CF5BDF4F4991A9918880C354D04012
:1027D00090E009C0E92FF0E0EE0FFF1FEA0DFB1DAE
:1027E000118210829F5F88859817A0F384B1CF5B18
:1027F000DF4F3991832B84B987B12991822B87B917
:102800008AB19881C354D040892B8AB985B1832B72
:1028100085B988B1822B88B98BB1892B8BB9EAE055
:10282000F0E06F9364E06A95F1F76F913197C9F723
:1028300084B13095832384B987B12095822387B9E9
:102840008AB1909589238AB985B1382335B988B181
:10285000282328B98BB198239BB99090B000C090E1
:10286000B1008091B00083608093B00082E08093DB
:10287000B100D090B20060E070E03AC05091B20078
:102880005D19650F711DE3B0E41609F04FC0F6B095
:10289000FA1609F04BC089B1881509F047C025C068
:1028A000A42FB0E09D01220F331F8501020F131FDB
:1028B000F80180819181892BA1F42C0F3D1FF90132
:1028C00081A192A1FC01208130E0AC0FBD1F519687
:1028D0008C9190E028233923232B19F4F80171837C
:1028E00060834F5F88854817D8F2D50E4E2DAF2DE7
:1028F0008E859F856817790708F29092B000C09284
:10290000B10020E00FC0E22FF0E0EE0FFF1FEA0D54
:10291000FB1D80819181892B21F48E859F85918378
:1029200080832F5F8885281770F305C0E3B0F6B069
:1029300089B040E0D7CFCDB7DEB7ECE00C94D21928
:10294000EF92FF920F931F93CF93DF93EC017B01E4
:10295000122F642F402F21E00E94871219A31AA280
:1029600030E041E050E013C0E32FF0E0D701AE0FBC
:10297000BF1FEC0FFD1F8C91818BCA010C9002C010
:10298000880F991F0A94E2F7282B2AA33F5F8885B6
:102990002AA1381748F32F732AA38FEF93E09F875C
:1029A0008E87CDB7DEB7E6E00C94D8190F930E945E
:1029B000A0140F9108950F930E94A0140F910895F1
:1029C000A0E0B0E0E6EEF4E10C94BA19EC018B0162
:1029D000D0907C00E0907A00C7B0F8B080917A0087
:1029E00086FDFCCF90E009C0E92FF0E0EE0FFF1F5D
:1029F000E00FF11F118210829F5F88859817A0F366
:102A000097B18AA18095982397B998B1892388B9FD
:102A100087E880937A0050E025C0FE01E40FF11DA5
:102A20008189806480937C0080917A0080648093A7
:102A30007A0080917A0086FDFCCFE42FF0E0EE0F63
:102A4000FF1FE00FF11F2091780030917900808105
:102A50009181820F931F918380834F5F88854817F0
:102A6000E0F25F5F89A1581710F040E017C040E026
:102A7000F5CFE42FF0E0EE0FFF1FE00FF11F69A18B
:102A8000862F90E09595879520813181820F931F45
:102A900070E00E944C19718360834F5F88854817EE
:102AA00040F3D0927C00E0927A00F8B8C7B8CDB776
:102AB000DEB7E8E00C94D619A0E2B0E0E2E6F5E17A
:102AC0000C94B9198C017B01D42E842F8150823053
:102AD000B0F4D8011C96ED91FC911D97309779F0D8
:102AE000808119969C911997892B80831A96ED9174
:102AF000FC911B97808119969C91892B8083F8010A
:102B00008089882349F5C02EB12EC801B7010E94E3
:102B1000D913D8011C96ED91FC911D97309781F047
:102B2000808119969C911997892B80831A96ED9133
:102B3000FC911B97908119968C91809589238083B5
:102B4000B2E0DB1609F053C08C2D9B2DBE016F5FE8
:102B50007F4F0E94D91327C0C02EB12EC801B701E4
:102B60000E94E014D8011C96ED91FC911D973097BE
:102B700081F0808119969C911997892B80831A96F0
:102B8000ED91FC911B97908119968C9180958923EA
:102B90008083B2E0DB1659F58C2D9B2DBE016F5F53
:102BA0007F4F0E94E01440E0BE016F5F7F4F1AC06C
:102BB000E42FF0E0EE0FFF1F6701CE0EDF1EE60FE1
:102BC000F71FD8011E962D913C911F97808191810E
:102BD000281B390BF60180819181820F931F91830D
:102BE00080834F5FD80118968C91481708F3A09600
:102BF000E9E00C94D519A0E0B0E0E1E0F6E10C9436
:102C0000B719EC01162F072F942E22E0421711F06E
:102C1000442351F48C819D81892B09F4A4C08E81B9
:102C20009F81892B09F49FC0892D8150823050F4F7
:102C300088819981892B09F496C08A819B81892B8F
:102C400009F491C0CE01612F702F492D0E945C15AF
:102C5000812F902F9C015901CC24DD2400E010E04D
:102C60007CC081E0981669F4EA81FB81E00FF11FD6
:102C700020813181E881F981E00FF11F408151818C
:102C80003DC0AC81BD81992059F4EE81FF81E00FF8
:102C9000F11F20813181A00FB11F4D915C912EC099
:102CA000A00FB11F8D919C91E881F981E00FF11F78
:102CB00020813181EE85FF858217930710F4AF01E3
:102CC00005C0A9014E0F5F1F481B590BEE81FF8104
:102CD000E00FF11F60817181EA81FB81E00FF11F3C
:102CE00080819181EE85FF856817790710F49F0137
:102CF00005C09C012E0F3F1F261B370B7901E41ADC
:102D0000F50A01F1F5016081718180E090E09A019E
:102D100040E050E0621B730B840B950B28EE33E010
:102D200040E050E00E942119970140E050E00E94ED
:102D30009519C901F3E0293E3F0714F088EE93E0AE
:102D400097FF02C080E090E0F501819391935F01CD
:102D50000894C11CD11C0E5F1F4F888590E0C816D7
:102D6000D9060CF47ECFCDB7DEB7EBE00C94D319C7
:102D7000A4E0B0E0EEEBF6E10C94B0198C01F62E75
:102D8000E72E2A830E94FB15D8011896BC91B983BF
:102D90002F2D3E2DC9018C0155244424662477240F
:102DA00043011C821B82AA24BB246501B8EE2B2E92
:102DB000B3E03B2E32C0F801E080F180FA81FF23BE
:102DC00021F091012E193F09790139ECE316F10444
:102DD00014F04424439483E3E816F1049CF0B70113
:102DE000882777FD8095982FA60195010E942119CB
:102DF000660E771E881E991EAB81BC81AE0DBF1D6D
:102E0000BC83AB83539488EE93E0A0E0B0E0A80EBF
:102E1000B91ECA1EDB1E0E5F1F4F9981591658F24C
:102E2000442021F5692F70E084EF91E0DC016A9F76
:102E3000C0016B9F900D7A9F900D1124845F91408B
:102E40002091A1013091A201281739071CF440E01C
:102E500050E01AC088EE93E0689FA001699F500D72
:102E6000789F500D1124485E53400EC0EB81FC81C9
:102E70009F0140E050E0C401B3010E947319A90111
:102E80003093A2012093A101CA012496E2E10C949F
:102E9000CC199C01462F8091A3019091A401B90106
:102EA00021E00E94B81608959C01462F8091A3014D
:102EB0009091A401B90120E00E94B81608959C01E8
:102EC000462F8091A3019091A401B9010E94FB15A6
:102ED00008959C01462F8091A3019091A401B9010E
:102EE0000E945C150895CF93DF93EC018A819B814A
:102EF000009711F00E949A1A8E819F81009711F01D
:102F00000E949A1A88819981009711F00E949A1A5A
:102F10008C819D81009711F00E949A1ADF91CF91C8
:102F20000895CF93DF93EC018A819B81009711F084
:102F30000E949A1A8E819F81009711F00E949A1A1E
:102F400088819981009711F00E949A1A8C819D8145
:102F5000009711F00E949A1ADF91CF910895A3E68D
:102F6000B0E0E5EBF7E10C94B0197C015B016A017C
:102F7000A2962FAFA297DA018D919C91892B11F522
:102F8000F701808590E0880F991F0E94ED19D60106
:102F90008D939C93009709F4DFC020E030E00CC0D3
:102FA000C901880F991FD601ED91FC91E80FF91F17
:102FB000118210822F5F3F4FF701808590E0281724
:102FC000390774F3D5018D919C91892B89F000E02C
:102FD00010E03E010894611C711C41E4242E312C48
:102FE0002C0E3D1E31E2432E512C4C0E5D1E28C08E
:102FF000F701808590E0880F991F0E94ED19D50197
:103000008D939C93009709F4A7C020E030E011C095
:10301000C901880F991FD501ED91FC91E80FF91FA7
:10302000D7011E968D919C911F97918380832F5F6E
:103030003F4FF701808590E0281739074CF3C7CF41
:10304000C701B301A2964FADA2970E945C15D701AC
:1030500018968C91882E9924A101F301A4965FAE55
:103060004EAEA49760E070E034C00115110559F030
:10307000A496AEADBFADA4972D913C918081918176
:103080002817390758F480819181A496AEADBFAD61
:10309000A4978D939C930115110541F0DA012D91B0
:1030A0003C91808191818217930728F480819181DE
:1030B000DA018D939C936F5F7F4F4E5F5F4F329627
:1030C000A4968EAD9FADA4970296A4969FAF8EAFA7
:1030D000A497681579054CF20F5F1F4F0A30110550
:1030E00009F0AECF40E050E020E030E08E010F5B11
:1030F0001F4FBE016F5D7F4F28C0F801E20FF31F25
:1031000080809180F601A081B181A20FB31F8D91C3
:103110009C9111978815990510F48D929C92FB0152
:10312000E20FF31F80809180F501A081B181A20F91
:10313000B31F8D919C9111978816990610F48D926A
:103140009C924F5F5F4F2E5F3F4FD70118968C9137
:1031500090E0481759078CF2CD59DF4FE2E10C940B
:10316000CC191F93CF93DF93EC01162F862F81503C
:10317000823040F4AE014E5F5F4FCE01BE0121E0D0
:103180000E94AF17123011F0112349F4AE014A5FCB
:103190005F4FCE012496BE0120E00E94AF17DF9161
:1031A000CF911F910895682F8091A3019091A40160
:1031B0000E94B1180895A0E0B0E0E1EEF8E10C94AF
:1031C000BB198C01F62EE42ED22E83E290E00E94F1
:1031D000ED19EC01009711F480E00BC0B8014F2D00
:1031E0002E2D0D2D0E94A014D093A401C093A301F5
:1031F00081E0CDB7DEB7E7E00C94D719A0E0B0E0EE
:10320000E4E0F9E10C94BA198C01D62E7A01C22EB1
:1032100084E490E00E94ED19EC01009711F480E045
:103220000BC0B8014D2D97010C2D0E945413D09363
:10323000A401C093A30181E0CDB7DEB7E8E00C9410
:10324000D619629FD001739FF001829FE00DF11D9E
:10325000649FE00DF11D929FF00D839FF00D749F10
:10326000F00D659FF00D9927729FB00DE11DF91FBC
:10327000639FB00DE11DF91FBD01CF011124089519
:10328000991B79E004C0991F961708F0961B881FB8
:103290007A95C9F780950895AA1BBB1B51E107C019
:1032A000AA1FBB1FA617B70710F0A61BB70B881FD6
:1032B000991F5A95A9F780959095BC01CD01089565
:1032C00097FB092E07260AD077FD04D0E5DF06D04C
:1032D00000201AF4709561957F4F0895F6F7909548
:1032E00081959F4F0895A1E21A2EAA1BBB1BFD01D9
:1032F0000DC0AA1FBB1FEE1FFF1FA217B307E407D5
:10330000F50720F0A21BB30BE40BF50B661F771F2C
:10331000881F991F1A9469F760957095809590950C
:103320009B01AC01BD01CF01089597FB092E052635
:103330000ED057FD04D0D7DF0AD0001C38F45095CA
:103340004095309521953F4F4F4F5F4F0895F6F7C9
:1033500090958095709561957F4F8F4F9F4F089501
:103360002F923F924F925F926F927F928F929F9295
:10337000AF92BF92CF92DF92EF92FF920F931F9383
:10338000CF93DF93CDB7DEB7CA1BDB0B0FB6F89434
:10339000DEBF0FBECDBF09942A88398848885F8474
:1033A0006E847D848C849B84AA84B984C884DF80E5
:1033B000EE80FD800C811B81AA81B981CE0FD11DC9
:1033C0000FB6F894DEBF0FBECDBFED010895EE0F2E
:1033D000FF1F0590F491E02D0994CF93DF93BC017A
:1033E0008230910510F462E070E0A091A701B091E5
:1033F000A801ED01E0E0F0E040E050E021C088816C
:1034000099818617970769F48A819B81309719F013
:103410009383828304C09093A8018093A701FE0147
:1034200034C06817790738F44115510519F084172D
:10343000950708F4AC01FE018A819B819C01E9019A
:103440002097E9F641155105A9F1CA01861B970B92
:10345000049708F4BA01E0E0F0E02AC08D919C9155
:10346000119784179507F9F46417750781F412967C
:103470008D919C911397309719F09383828304C0A8
:103480009093A8018093A701FD0132964FC0CA0115
:10349000861B970BFD01E80FF91F6193719302974B
:1034A0008D939C9343C0FD01828193819C01D9013E
:1034B0001097A1F68091A5019091A601892B41F466
:1034C00080912E0190912F019093A6018093A501E8
:1034D00040913001509131014115510541F44DB7F2
:1034E0005EB780912C0190912D01481B590B2091C2
:1034F000A5013091A60124173507B0F4CA01821B3B
:10350000930B8617970780F0AB014E5F5F4F8417D0
:10351000950750F0420F531F5093A6014093A50109
:10352000F9016193719302C0E0E0F0E0CF01DF9117
:10353000CF910895CF93DF93009709F450C0EC0129
:1035400022971B821A82A091A701B091A80110971F
:1035500009F140E050E0AC17BD0708F1BB83AA8336
:10356000FE0121913191E20FF31FAE17BF0779F4ED
:103570008D919C911197280F391F2E5F3F4F3983F2
:10358000288312968D919C9113979B838A83411572
:10359000510571F4D093A801C093A70120C01296E1
:1035A0008D919C911397AD01009711F0DC01D3CF61
:1035B000FA01D383C28321913191E20FF31FCE1719
:1035C000DF0769F488819981280F391F2E5F3F4FEB
:1035D000FA01318320838A819B8193838283DF91E7
:1035E000CF9108950F931F93CF93DF938C01EB013D
:1035F000009731F46115710519F420E030E038C00E
:1036000081E090E06EE070E00E943E1BFC019C01B6
:10361000009771F180E88383209771F0D387C28788
:1036200081E883838091A9019091AA01892B21F4DB
:10363000F093AA01E093A90101151105C9F01187C2
:1036400000878381826083838091AB019091AC017C
:10365000892B71F4F093AC01E093AB018091AD0143
:103660009091AE01892B21F4F093AE01E093AD016E
:10367000C901DF91CF911F910F9108950F931F936F
:10368000CF93DF93689F8001699F100D789F100D85
:103690001124C8010E94ED19EC01009729F060E0A7
:1036A00070E0A8010E945A1BCE01DF91CF911F91BB
:1036B0000F910895DC0101C06D9341505040E0F737
:1036C000089510E0C6ECD0E004C0FE010E94E919A4
:0C36D0002296C83CD107C9F7F894FFCF40
:1036DC006D56005072657373204200476F210020B5
:1036EC000000010203040506FF8813040400D00740
:1036FC00F4010F000208010E0F1011122000AF018F
:02370C000000BB
:00000001FF
