:100000000C9463000C948B000C948B000C948B006C
:100010000C948B000C948B000C948B000C948B0034
:100020000C948B000C9426120C948B000C948B0077
:100030000C948B000C94240A0C948B000C948B0071
:100040000C948B000C948B000C948B000C948B0004
:100050000C948B000C948B000C948B000C948B00F4
:100060000C948B000C948B0047074D0750075307E7
:10007000560759075C075F076207650768076B0744
:1000800020506F6C6F6C750033F720526F626F7485
:100090000044656D6F6E004368696C64003E6733B1
:1000A000323E3E633332004C313620636465677202
:1000B00065673400000000000000001F1F1F1F1FA5
:1000C0001F1F5413551311241FBECFEFD8E0DEBFFE
:1000D000CDBF11E0A0E0B1E0E8E4FAE302C0059092
:1000E0000D92A839B107D9F712E0A8E9B1E001C033
:1000F0001D92A631B107E1F710E0C4ECD0E004C0D6
:100100002297FE010E949F1BC23CD107C9F70E94A3
:10011000DE030C94171D0C940000882311F08CE46E
:100120000895662311F083E50895442311F482E4D1
:10013000089582E50895CF93DF933091980133308D
:1001400008F44CC0C32FD0E0FE01E15FFE4F808178
:10015000823409F043C0FE01E05FFE4F80E090E092
:10016000AE01435F5E4F20812C3441F0223519F0FF
:10017000223449F406C0865A9F4F05C0825F9E4FC5
:1001800002C08C549F4F3197E417F50761F768E67A
:1001900071E00E94161B8A35910589F08B35910517
:1001A0001CF4892B41F017C0843B910561F08E50FF
:1001B000914089F40CC0C25FDE4F83E50BC0C25F83
:1001C000DE4F82E507C0C25FDE4F82E403C0C25F3C
:1001D000DE4F8CE48883325030939801DF91CF91C9
:1001E00008950F931F93CF93DF9380EB9FEF60EB06
:1001F0007FEF0E949A0F80E991E00E94711280E5E2
:1002000090E060EB7FEF0E949A0F8CE791E00E94F4
:10021000711280E090E060E570E00E949A0F8EEE2F
:1002200092E00E94711280EA90E060E070E00E942B
:100230009A0F8EEE92E00E94711280E090E060E0F2
:1002400070E00E949A0F84EF91E00E947112C8ED55
:10025000DFEF00E510E0B8016C1B7D0BCE010E94C2
:100260009A0F84E190E00E9471122196C937D1055E
:1002700091F780EB9FEF60E570E00E949A0FFFCF4F
:100280008C3429F0823541F08234D9F410C080EBEF
:100290009FEF60E570E004C080E590E060EB7FEFE9
:1002A0000E949A0F8EEB90E00E947112089580E5F3
:1002B00090E060EB7FEF0E949A0F8CE791E00E9444
:1002C00071120895E0919801F0E0EF5EFE4F108208
:1002D0000E946C0C81E191E00E94580D8091980180
:1002E000893040F080E061E00E943C0C89E191E0BF
:1002F0000E94580D08950F931F93CF93DF938C01A5
:10030000C0E0D0E0F801EC0FFD1F8081918165E62F
:1003100070E00E94021BFB01EB58FE4F80810E949F
:100320005E0D2296CA30D10569F7DF91CF911F91FA
:100330000F9108950F931F9304EB10E0C80160E044
:100340000E94A40EC801019661E00E94A40EC8019B
:10035000029662E00E94A40EC801039663E00E9428
:10036000A40EC801049664E00E94A40EC80105967C
:1003700065E00E94A40EC801069666E00E94A40EE5
:100380000E946C0C1F910F9108952F923F924F92F3
:100390005F926F927F928F929F92AF92BF92CF9215
:1003A000DF92EF92FF920F931F93DF93CF93CDB71E
:1003B000DEB72A970FB6F894DEBF0FBECDBF662416
:1003C0007724AA24BB2465011E010894211C311C3A
:1003D0006FE5462E512CC10161E00E94681350E385
:1003E000852E58EF952E880E991EC401AA2797FDD9
:1003F000A095BA2FA80EB91ECA1EDB1EC601B501F4
:1004000020E137E240E050E00E944B1B79018A0175
:10041000940126193709C901880F991F820F931F6C
:1004200062E070E00E94161B9B012E0D3F1DC4016F
:1004300064E170E00E94161B260F371F203631053D
:100440007CF48FEF213A38071CF421EA3FEF02C019
:1004500037FF08C0C901815A9F4F6FE570E007C0A0
:100460002FE530E0B201621B730B8FE590E00E9434
:100470009A0F8B819C818436910550F48D819E81E9
:100480008436910528F48F8198858436910560F033
:1004900089819A81893C910538F4340189859A854E
:1004A000893C910508F497CF2A960FB6F894DEBFE1
:1004B0000FBECDBFCF91DF911F910F91FF90EF90B5
:1004C000DF90CF90BF90AF909F908F907F906F9074
:1004D0005F904F903F902F900895CF92DF92EF92D0
:1004E000FF920F931F93DF93CF93CDB7DEB72A9779
:1004F0000FB6F894DEBF0FBECDBF6E010894C11CCD
:10050000D11C0E94C50182E390E062E370E00E948A
:100510009A0F82E390E00E947112C60161E00E948E
:10052000681309811A81E984FA8484E690E064E61C
:1005300070E00E949A0F84E690E00E947112C6015A
:1005400061E00E9468138B819C812D813E81893CF2
:10055000910550F4293C310578F420E08F8198858D
:10056000893C910550F008C0293C310528F08F8165
:100570009885893C910548F521E00536110510F074
:100580001CE40BC0222311F013E507C085E6E81632
:10059000F10410F412E401C012E5812F0E94400121
:1005A00080919801E82FF0E0EF5EFE4F10838F5F9F
:1005B000809398010E949B000E946201A2CF80E07C
:1005C00090E060E070E00E949A0F80E10E949F0F2F
:1005D0008823A9F300E010E014C00E94C50184E65E
:1005E00090E064E670E00E949A0F88E790E00E9435
:1005F0007112F801EF5EFE4F80810E9440010F5F93
:100600001F4F8091980190E00817190734F30E945A
:10061000C50180E090E060E070E00E949A0F88E8F9
:1006200093E10E9471120E94F100CFCFCF92DF922E
:10063000EF92FF920F931F93DF93CF93CDB7DEB767
:100640002A970FB6F894DEBF0FBECDBF80ED97E0BE
:100650000E94E3130E949A0180E890E00E94480DF6
:1006600080E061E00E943C0C88E890E00E94480D28
:100670008DE990E00E94110A88EE93E00E947112C9
:100680000E946C0C81E990E00E94480D80E061E0DE
:100690000E943C0C87E990E00E94480D88EE93E0B0
:1006A0001BC00E94E7057C010E946C0C0027F7FC30
:1006B0000095102FC801B7010E94370D80E091E02E
:1006C0000E94580D80E061E00E943C0C83E091E0C4
:1006D0000E94580D84E690E00E94711280E10E9411
:1006E0009F0F8823F1F280E10E94A31188EE93E02E
:1006F0000E9471120CEE1FEF0832110528F088E2FB
:1007000090E068ED7FEF04C088ED9FEF68E270E055
:100710000E949A0F81E00E94831384E190E00E947E
:1007200071120F5F1F4F0C33110531F780E090E01D
:1007300060E070E00E949A0F6E010894C11CD11C09
:1007400018C0C60161E00E9468137C010E946C0C15
:1007500000E010E0C801B7010E94370D80E061E0C1
:100760000E943C0CC6010E947B0184E690E00E943E
:10077000711280E10E949F0F882319F380E10E948B
:10078000A3110E946C0C8BE091E00E94580D87EA47
:1007900090E00E94110A0E9413068823E1F72A962E
:1007A0000FB6F894DEBF0FBECDBFCF91DF911F9182
:1007B0000F91FF90EF90DF90CF9008950E94160365
:1007C0000E946D02FFCF982F803278F487E88093E3
:1007D0007A0080917C0080648076892B80937C00F5
:1007E00080917A00806480937A00089580917C00E3
:1007F00085FF05C080917900282F30E004C020914A
:10080000780030917900C901089590938001809318
:100810007F0108950895089580917C0085FF05C0AB
:1008200080917900282F30E004C020917800309129
:100830007900C9010895282F8032B0F487E88093A9
:100840007A0080917C00982F9064662311F0806C70
:1008500002C0892F8F77807E822B80937C008091CD
:100860007A00806480937A000895982F803278F41B
:1008700087E880937A0080917C0080648076892B61
:1008800080937C0080917A00806480937A008091CC
:100890007A0086FDFCCF80917C0085FF05C08091A9
:1008A0007900282F30E004C0209178003091790041
:1008B000C90108950E9435040895EF92FF920F93A5
:1008C0001F93982F803278F487E880937A00809184
:1008D0007C0080648076892B80937C0080917A00F4
:1008E000806480937A0080917A0086FDFCCFFB01C2
:1008F000EE24FF24870180917A00806480937A003F
:1009000080917A0086FDFCCF80917C0085FF04C039
:100910008091790090E004C08091780090917900F6
:10092000A0E0B0E0E80EF91E0A1F1B1F319719F76F
:10093000CB01969587956034710538F48E0D9F1D17
:1009400070E00E94021B9B010DC0A0E0B0E0E80E29
:10095000F91E0A1F1B1F9B0140E050E0C801B701B0
:100960000E94291BC9011F910F91FF90EF900895DC
:1009700087E064E170E00E945D0408950E945D04D8
:1009800008959093800180937F0108951F931091A3
:100990007C0080917C008F7D80937C008EE164E1FF
:1009A00070E00E945D048EE164E170E00E945D04ED
:1009B0009C0115FD04C080917C008F7D03C0809157
:1009C0007C00806280937C00B9017695679580E019
:1009D00090E06C54744D8E4E9F4F40E050E00E946A
:1009E000291BC9011F9108950E94C6040895A0E023
:1009F000B0E020917F013091800140E050E0BC01E7
:100A0000CD010E94D71A9B01AC0180917C0085FF2B
:100A10000BC0B901CA0161587F4F8F4F9F4F2FEF15
:100A200030E040E050E00AC0B901CA0161507E4F99
:100A30008F4F9F4F2FEF33E040E050E00E94291B83
:100A4000C90108950E945D040E94F70408950E9460
:100A50002205089580917C0085FF06C08091790071
:100A600090E00E94F70408958091780090917900B9
:100A70000E94F7040895982F803278F487E88093D5
:100A80007A0080917C0080648076892B80937C0042
:100A900080917A00806480937A0080917A0086FD4C
:100AA000FCCF0E942A0508950E943B0508950E94EC
:100AB0002A05089587E064E170E00E945D040E94C9
:100AC000F70408950E94F70408951F9310917C0085
:100AD00080917C008F7D80937C0086E064E170E0F3
:100AE0000E9422059C0115FD04C080917C008F7D31
:100AF00003C080917C00806280937C00C901880FD4
:100B0000991F820F931F880F991F880F991F8A576B
:100B100092406DE070E00E94161BCB011F9108957A
:100B20000E94650508951F9310917C0080917C00C0
:100B30008F7D80937C0086E064E170E00E94220556
:100B40009C0115FD04C080917C008F7D03C08091C5
:100B50007C00806280937C0084E190E0AC01249F63
:100B6000C001259F900D349F900D11248E529F41FE
:100B700067E270E00E94161BCB011F9108950E944E
:100B8000930508951F9310917C0080917C008F7DC8
:100B900080937C0086E06AE070E00E942205AC0150
:100BA00015FD04C080917C008F7D03C080917C0086
:100BB000806280937C009A01220F331F240F351F1F
:100BC0002F5F3F4F36952795C9011F9108950E94C9
:100BD000C20508951F9310917C0080917C008F7D49
:100BE00080937C0086E06AE070E00E942205AC0100
:100BF00015FD04C080917C008F7D03C080917C0036
:100C0000806280937C009A01220F331F240F351FCE
:100C1000C9011F9108950E94EA0508950E94EA05FE
:100C200008950895089580918C01882339F020E07B
:100C30008091B7019091B801892B09F021E0822FB2
:100C4000089510926F00E1E8F0E08081887F816074
:100C5000808380E197E290938900809388001092CE
:100C60008B0010928A0081E080938C011092B80171
:100C70001092B701089510926F0083E28093800074
:100C800081E1809381001092820080E197E290934D
:100C900089008093880010928B0010928A00229A1B
:100CA00078940895A0E0B0E0E8E5F6E00C946E1BBF
:100CB000FC015B01C42E8091B6018823C9F481E058
:100CC0008093B60110926F0083E28093800081E1EF
:100CD000809381001092820080E197E290938900D6
:100CE0008093880010928B0010928A00229A789448
:100CF00010928C01F7FD03C0DD24D39403C0FF776D
:100D00002AE0D22E80918100082F10E0087F107019
:100D100088ECD89EC00111248E179F07C0F4EF0104
:100D200087E2E131F80710F0C0E1D7E2BE01769525
:100D3000679580E090E06058794687469F4F9E0116
:100D400040E050E00E94291B7901016024C088E244
:100D5000D89E802D1124C82FD0E0CE17DF0708F4CD
:100D6000EF01BE01769567959E0140E050E08AE074
:100D7000D81639F480E090E0605E734481449F4F60
:100D800006C080E090E060537D4E8C4E9F4F0E94E5
:100D9000291B790102608AE0D81639F4CE01059644
:100DA0006AE070E00E94021BEB0183E0C83ED807B6
:100DB00011F4B5010FC0BE0180E090E0950140E064
:100DC00050E00E94D71A28EE33E040E050E00E9445
:100DD0004B1BB90110926F0000938100F0928900C3
:100DE000E0928800E0918800F0918900AC2DA0315C
:100DF00008F0AFE080E190E08A1B910902C0F6950F
:100E0000E7958A95E2F7F0938B00E0938A00709360
:100E10009E0160939D0186B38FEF86BB81E0809336
:100E20006F00CDB7DEB7EAE00C948A1B0E94520631
:100E30000895CF93DF93EB018F3F11F0442329F402
:100E400088EE93E0BE0140E067C0813110F420E0FD
:100E500005C0282F2051203608F02FE5822F6CE0A6
:100E60000E94F61A382F682F70E084EF9FEF689F7A
:100E7000F001699FF00D789FF00D1124E20FF11D34
:100E8000EC30F10538F4EC5CFF4F0C949D1B8CE9C1
:100E900091E023C080E090E020C085EB91E01DC090
:100EA0008FEC91E01AC08AEE91E017C087E092E0E3
:100EB00014C086E292E011C087E492E00EC089E699
:100EC00092E00BC08EE892E008C085EB92E005C08E
:100ED0008EED92E002C08AE093E0373071F002C0FC
:100EE000880F991F6A95E2F7323020F005966AE084
:100EF00070E00BC0805090480BC036E0880F991FFF
:100F00003A95E1F7029665E070E00E94021BCB0182
:100F1000403108F04FE0BE010E945206DF91CF91B0
:100F200008950E941907089580918C01882339F053
:100F300020E08091B7019091B801892B09F021E060
:100F4000822F089510926F00E1E8F0E08081887FA1
:100F50008160808380E197E290938900809388008C
:100F600010928B0010928A0081E080938C01109285
:100F7000B8011092B701089530919B01E091B7013B
:100F8000F091B801332311F0249101C02081822F08
:100F900081548A3108F4205E203259F48091B701DF
:100FA0009091B80101969093B8018093B701019791
:100FB00029F7822F0895CF93DF930E94BC07282F33
:100FC000C0E0D0E01DC0CE0153E0880F991F5A95B4
:100FD000E1F7CC0FDD1FC80FD91F822F992787FD9E
:100FE0009095C80FD91FE0978091B7019091B801F3
:100FF00001969093B8018093B7010E94BC07282FF7
:10100000822F80538A30F8F2CE01DF91CF9108957C
:10101000A0E0B0E0EEE0F8E00C946C1B8090810161
:10102000B0909901BB2021F060919A01662399F458
:10103000A0909A010091860110918701E0908201B1
:10104000F0908301C0918401D0918501C090880106
:10105000D090890108C18FEF70E040E00E9419072D
:1010600010929A01CBC194E0892EBB2404EF11E0C9
:1010700084E0E82EF12CC0EDD7E0B4E09B2EAFE089
:10108000CA2ED12C0E94BC07282F8091B7019091C5
:10109000B80101969093B8018093B701263609F400
:1010A00098C02736CCF42236A1F1233674F42E33BF
:1010B00061F12F3334F42132B1F22C3309F00BC13A
:1010C00026C0213609F007C121C1243609F451C0D8
:1010D00025360CF066C035C02F3609F4C1C0203764
:1010E00054F42C3609F4A5C02D3609F4A6C02736D1
:1010F00009F0F1C086C0243709F4D1C0263709F4BD
:10110000E6C0223709F0E7C0B0C08394BBCF8A9411
:10111000B9CFA0929A01B0929901109387010093E0
:101120008601F0928301E0928201D0938501C09301
:10113000840190928101D0928901C09288012BE0B4
:10114000FCC0A0929A01B09299011093870100937C
:101150008601F0928301E0928201D0938501C093D1
:10116000840190928101D0928901C092880120E08F
:10117000E4C0A0929A01B092990110938701009364
:101180008601F0928301E0928201D0938501C093A1
:10119000840190928101D0928901C092880122E05D
:1011A000CCC0A0929A01B09299011093870100934C
:1011B0008601F0928301E0928201D0938501C09371
:1011C000840190928101D0928901C092880124E02B
:1011D000B4C0A0929A01B092990110938701009334
:1011E0008601F0928301E0928201D0938501C09341
:1011F000840190928101D0928901C092880125E0FA
:101200009CC0A0929A01B09299011093870100931B
:101210008601F0928301E0928201D0938501C09310
:10122000840190928101D0928901C092880127E0C7
:1012300084C00E94DB077C0144C00E94BC078C363E
:1012400011F4BB2403C0AA24BB24B3948091B7013A
:101250009091B80101969093B8018093B70112CF95
:101260000E94DB07882E982C0DCFA0929A01B09295
:1012700099011093870100938601F0928301E09217
:101280008201D0938501C093840190928101D09214
:101290008901C092880120E0FF24F3944FC00E948E
:1012A000DB07BC0180EC9DE50E94021BCB01EB013A
:1012B000F3E0CC0FDD1FFA95E1F7880F991FC80FF7
:1012C000D91FCE01B7010E94021B8B01DBCE0E9409
:1012D000DB076C01D7CEA0929A01B09299011093CE
:1012E000870100938601F0928301E0928201D093FE
:1012F0008501C093840190928101D0928901C092AE
:1013000088011092B8011092B70178C0A0929A019A
:10131000B09299011093870100938601F0928301A6
:10132000E0928201D0938501C09384019092810163
:10133000D0928901C092880129E0FF248CE0889E28
:10134000C0011124E22EE80E0AC08091B7019091ED
:10135000B80101969093B8018093B701E3940E947D
:10136000BC078B3291F3833281F30CC08091B701BB
:101370009091B80101969093B8018093B701EA94D7
:101380000E94BC078D3291F3C0918601D0918701F4
:101390008153883058F400918401109185010E9496
:1013A000DB07BC01C8010E94021BEB018E010BC0D0
:1013B0008091B7019091B80101969093B801809304
:1013C000B701C00FD11F169507950E94BC078E323A
:1013D00079F380919901882339F0CE01969587950C
:1013E00080939A01C81BD109FF2011F0EE24EA94E2
:1013F0008E2DBE01409188010E941907CDB7DEB73E
:10140000ECE00C94881B10926F009093B8018093CD
:10141000B70181E080939B0110929A010E94080815
:1014200008950E94030A089510926F009093B801E6
:101430008093B70110929B0110929A010E940808B4
:1014400008950E94140A08951F920F920FB60F92EA
:1014500011242F933F934F935F936F937F938F93B9
:101460009F93AF93BF93EF93FF9380919D019091D2
:101470009E01019790939E0180939D01019611F525
:1014800010926F00789480918100887F81608093B2
:10149000810080E197E29093890080938800109208
:1014A0008B0010928A0081E080938C018091B701BB
:1014B0009091B801892B31F080919C01882311F41F
:1014C0000E940808FF91EF91BF91AF919F918F917A
:1014D0007F916F915F914F913F912F910F900FBE30
:1014E0000F901F90189510926F0080918C018823A7
:1014F00041F08091B7019091B801892B11F00E94C1
:10150000080881E080936F0020E08091B7019091FE
:10151000B801892B09F021E0822F089580939C0166
:10152000882311F40E94730A08950E948E0A089578
:101530000E94730A08950895089580E090E0089548
:10154000EF92FF920F931F936AB157985A98289A77
:10155000E090A301F090A4010091A5011091A601D3
:1015600020E030E041E050E0CA016F9364E06A950A
:10157000F1F76F910197C9F75C9ACA016F9364E024
:101580006A95F1F76F910197C9F789B15C98FA01F3
:101590006F9364E06A95F1F76F913197C9F75C9AA0
:1015A000FA016F9364E06A95F1F76F913197C9F78B
:1015B0005C9887FF0BC02C5F3F4FC901A0E0B0E0F3
:1015C0008E159F05A007B10708F4CECF6AB91F9109
:1015D0000F91FF90EF90089565B190E0AC014170DC
:1015E0005070440F551F9C012670307053E0220F3D
:1015F000331F5A95E1F7422B6D7C462B45B92BB131
:101600008870907034E0880F991F3A95E1F72F7732
:10161000282B2BB95C9A81E090E0FC016F9364E089
:101620006A95F1F76F913197C9F75C986F9364E011
:101630006A95F1F76F910197C9F7089580919F011D
:101640009091A001009711F00E94501C80918A0196
:1016500090E0019720918B0130E0AC01429FC001E6
:10166000439F900D529F900D11240E94A31B9093B5
:10167000A00180939F01009729F160E070E208C00B
:10168000E0919F01F091A001E40FF51F70836F5F5F
:10169000462F50E080918A0190E0019720918B01C4
:1016A00030E0FC01E29FC001E39F900DF29F900D9E
:1016B00011244817590724F381E69DE06DE97AE08B
:1016C0000E94A81C089580938B0160938A010E9458
:1016D0001E0B089580938B0160938A010E941E0B5C
:1016E00008950E941E0B089580E197E2A0E0B0E00B
:1016F0008093A3019093A401A093A501B093A601A8
:10170000529A209A549A8EE190E00E94911283E0BE
:101710000E94A70E86E090E00E94911283E00E9452
:10172000A70E82E090E00E94911283E00E94A70E33
:1017300082E090E00E94911282E00E94A70E82E077
:1017400090E00E94911288E20E94F10B88E00E94D2
:10175000F10B81E00E94F10B86E00E94F10B8CE01E
:101760000E94F10B08958091A701882329F481E05C
:101770008093A7010E94740B0895BF92CF92DF92CD
:10178000EF92FF920F931F93082F162FF42E0E94B3
:10179000B30B0E94A00AB4B0C5B0DAB0EBB0289881
:1017A000112311F05A9A01C05A9884B1826384B906
:1017B000579A81E0F81629F0802F82958F700E9449
:1017C000EC0A802F8F700E94EC0ADAB8EBB8B4B83C
:1017D000C5B81F910F91FF90EF90DF90CF90BF9011
:1017E000089560E042E00E94BD0B08950F931F939F
:1017F000082F162F08C0002311F480E101C084E1F6
:101800000E94F10B11501123B1F71F910F91089510
:101810000E94F60B08958CE00E94F10B08950E943F
:101820000B0C0895813011F48FE001C08EE00E940E
:10183000F10B08950E94120C0895A4E0B0E0E3E2D9
:10184000FCE00C94741B182F062F80E8898380EC31
:101850008A8384E98B8384ED8C83FE01E60FF11D7E
:101860008181810F0E94F10B1093A2010093A101CD
:101870002496E4E00C94901B0E941D0C089581E0D6
:101880000E94F10B80919F019091A001892B19F189
:1018900060E070E208C0E0919F01F091A001E40FC8
:1018A000F51F70836F5F462F50E080918A0190E0B2
:1018B000019720918B0130E0FC01E29FC001E39F82
:1018C000900DF29F900D11244817590724F31092A0
:1018D000A2011092A10108950E943F0C089561E0B9
:1018E00042E00E94BD0B08950F931F93CF93DF93A7
:1018F00000E010E8C82FD0E0812F90E08C239D23DA
:10190000892B11F081E301C080E30E946F0C0F5F0F
:10191000083011F01695F0CFDF91CF911F910F9104
:1019200008950E94740C08958A3010F4805D01C0FF
:10193000895C0E946F0C08951F93182F82958F70F9
:101940000E94940C812F8F700E94940C1F91089517
:101950001F93182F892F0E949C0C812F0E949C0C92
:101960001F9108950E94A80C08950E949C0C089550
:101970006F927F928F929F92AF92BF92CF92DF929F
:10198000FF920F93DF93CF93CDB7DEB72A970FB6B1
:10199000F894DEBF0FBECDBF5B016C010AE03E01D3
:1019A0000894611C711CFA2CC601B5012AE030E0D4
:1019B00040E050E00E94291BC901DA015C016D0181
:1019C00001504301800E911C80E3F80EC601B50161
:1019D0002AE030E040E050E00E94D71AF61AF40105
:1019E000F082A114B104C104D104E9F608C0F601E3
:1019F000E00FF11D80810E946F0C0F5F04C06E012B
:101A00000894C11CD11C0A3090F32A960FB6F894A2
:101A1000DEBF0FBECDBFCF91DF910F91FF90DF9062
:101A2000CF90BF90AF909F908F907F906F900895D0
:101A30000E94B80C0895EF92FF920F931F937B01C1
:101A40008C0197FF0BC010950095F094E094E11C79
:101A5000F11C011D111D8DE20E946F0CC801B70120
:101A60000E94B80C1F910F91FF90EF9008950E9473
:101A70001B0D0895CF93DF93EC0103C00E946F0C00
:101A80002196FE0184918823C9F7DF91CF910895B3
:101A90000E943A0D0895CF93DF93EC0103C0219685
:101AA0000E946F0C88818823D1F7DF91CF91089530
:101AB0000E944B0D08950E946F0C08950E946F0CB8
:101AC0000895A0E0B0E0E7E6FDE00C94701BE82E7E
:101AD00080919F019091A001892B09F405C12AE012
:101AE000E21609F446C038E0E316C9F48091A20179
:101AF00081508093A2018F3F51F48091A1018150C8
:101B00008093A10180918B0181508093A2018091EB
:101B1000A1018F3F09F0E2C01092A101DDC08E2D1E
:101B20000E946F0C2091A1012223C9F030E02150C6
:101B3000304080918B0190E0AC01249FC001259F33
:101B4000900D349F900D11242091A201E0919F01EE
:101B5000F091A001E80FF91FE20FF11DE0828091E2
:101B6000A2018F5F8093A20190918B01891709F0E8
:101B7000BBC04091A101242F30E080918A0190E008
:101B800001972817390709F0A4C0C0E0D0E044C08D
:101B900080E06C2F0E941D0CFF246E010894C11C74
:101BA000D11C35C00F2D10E090E09C01C29FC001F8
:101BB000C39F900DD29F900D1124E0919F01F09151
:101BC000A001E00FF11FE80FF91F80810E946F0C48
:101BD000E0919F01F091A00180918B0190E0C89F5E
:101BE000D001C99FB00DD89FB00D1124E00FF11F97
:101BF000AE0FBF1FAC01C49EC001C59E900DD49E08
:101C0000900D1124E80FF91F80818C93F39480913B
:101C10008B01F81638F2E60160918A01862F90E078
:101C20000297C817D9070CF4B3CF623008F440C04C
:101C3000625080E00E941D0CFF24E0E2DE2E34C0E2
:101C40000F2D10E080918A0190E0029730E0AC0106
:101C5000429FC001439F900D529F900D1124E0912F
:101C60009F01F091A001E00FF11FE80FF91F8081A3
:101C70000E946F0C20918A0130E022503040809108
:101C80008B0190E0AC01249FC001259F900D349FF3
:101C9000900D1124E0919F01F091A001E00FF11F40
:101CA000E80FF91FD082F39420918B01F21640F2D5
:101CB00060918A01615080E00E941D0C00E004C028
:101CC00080E20E946F0C0F5F80918B010817C0F3B8
:101CD00003C04F5F4093A1011092A2018091A20125
:101CE0006091A1010E941D0C2E2D332727FD3095F8
:101CF000C901CDB7DEB7E8E00C948C1BEF92FF92E0
:101D00000F931F93CF93DF937C01062F10E0F3E036
:101D1000000F111FFA95E1F7C0E0D0E09E01200FFF
:101D2000822F80640E94F10BF701EC0FFD1FE491FC
:101D30008E2F0E946F0C2196C830D10579F7CDB750
:101D4000DEB7E6E00C948E1B0E947E0E089560E0E4
:101D500041E00E94BD0B08950F931F93CF93DF9333
:101D6000082F162FEA010BC0002311F488E101C0EF
:101D70008CE10E94F10BCE010E94911211501123AF
:101D800099F7DF91CF911F910F9108950E94AC0EAA
:101D90000895282F883068F481E090E002C0880F11
:101DA000991F2A95E2F7282FAAE2B0E0EBE2F0E0D3
:101DB00029C08E3080F430E02850304081E090E03F
:101DC00002C0880F991F2A95E2F7282FA4E2B0E0FD
:101DD000E5E2F0E017C0853130F020E0A0E0B0E0AF
:101DE000E0E0F0E00FC030E02E50304081E090E0C5
:101DF00002C0880F991F2A95E2F7282FA7E2B0E0CA
:101E0000E8E2F0E06F3F19F48081822709C0662381
:101E100019F08081822B04C09081822F80958923C4
:101E200080838C91822B8C93089508950895E0EB24
:101E3000F0E083EF8083808184BDE1EBF0E082E01D
:101E40008083808185BDE4EBF0E010828081E3EB4C
:101E5000F0E08083808188BD88B587BD86E060E042
:101E60000E94C90E85E060E00E94C90E8BE060E030
:101E70000E94C90E83E060E00E94C90E089580911F
:101E8000A801882329F481E08093A8010E94170FFC
:101E90000895CF93DF93EC010E943F0FD7FD02C05E
:101EA00020E004C0D095C195DF4F21E0CE01CF3FA7
:101EB000D10519F014F08FEF90E0222319F018BC2F
:101EC00087BD02C088BD17BCDF91CF9108950E94E5
:101ED000490F0895CF93DF93EC010E943F0FD7FD88
:101EE00002C020E004C0D095C195DF4F21E0CE01B3
:101EF000CF3FD10519F014F08FEF90E0222329F0A5
:101F00001092B4008093B30004C08093B400109288
:101F1000B300DF91CF9108950E946A0F08950F9347
:101F20001F938B010E94490FC8010E946A0F1F91E5
:101F30000F9108950E948F0F089508950895282FF6
:101F40008091A901882391F481E08093A90184B153
:101F50008D7C84B985B1826385B985E090E06F930B
:101F600064E06A95F1F76F910197C9F783B18095A5
:101F7000822308958091A901882391F481E08093C0
:101F8000A90184B18D7C84B985B1826385B985E06E
:101F900090E06F9364E06A95F1F76F910197C9F74C
:101FA000089584B18D7C84B985B1826385B985E05B
:101FB00090E06F9364E06A95F1F76F910197C9F72C
:101FC0000895282F8091A901882391F481E08093BE
:101FD000A90184B18D7C84B985B1826385B985E01E
:101FE00090E06F9364E06A95F1F76F910197C9F7FC
:101FF00083B18095822308950F931F93082F13B107
:102000000E94C212AB01BC018091A901882391F406
:1020100081E08093A90184B18D7C84B985B182630C
:1020200085B985E090E06F9364E06A95F1F76F9170
:102030000197C9F78091AF01813011F1813038F0FB
:10204000823009F443C0833009F089C065C0202F75
:1020500030E0812F90E08095909528233923232B21
:1020600009F47DC0109510231093AA014093AB0191
:102070005093AC016093AD017093AE0181E06DC0EF
:102080008091AB019091AC01A091AD01B091AE01F6
:10209000481B590B6A0B7B0B4F30510561057105CD
:1020A00008F45DC04091AA01812F90E08095909541
:1020B000242F30E082239323892B59F182E08093EF
:1020C000AF01109514231093AA0149C0E091AA0111
:1020D000AE2FB0E0212F30E0CD0182239323892B56
:1020E00079F083E08093AF01E123E093AA0140936C
:1020F000AB015093AC016093AD017093AE012FC062
:10210000802F90E02095309582239323A817B9075C
:1021100031F11092AF0123C08091AB019091AC01DD
:10212000A091AD01B091AE01481B590B6A0B7B0B1E
:102130004F3051056105710590F04091AA01842F3F
:1021400090E0212F30E082239323892B29F01092F5
:10215000AF01842F812304C082E08093AF0180E02F
:102160001F910F9108950E94FC0F08950F931F93E4
:10217000082F13B110950E94C212AB01BC018091CF
:10218000A901882391F481E08093A90184B18D7C19
:1021900084B985B1826385B985E090E06F9364E08E
:1021A0006A95F1F76F910197C9F78091B501813078
:1021B00011F1813038F0823009F443C0833009F0E6
:1021C00089C065C0202F30E0812F90E080959095E8
:1021D00028233923232B09F47DC010951023109355
:1021E000B0014093B1015093B2016093B301709379
:1021F000B40181E06DC08091B1019091B201A091D4
:10220000B301B091B401481B590B6A0B7B0B4F30E3
:1022100051056105710508F45DC04091B001812F41
:1022200090E080959095242F30E082239323892B92
:1022300059F182E08093B501109514231093B001F9
:1022400049C0A091B001212F30E0EA2FF0E0C90190
:102250008E239F23892B79F083E08093B5011A2385
:102260001093B0014093B1015093B2016093B30158
:102270007093B4012FC0802F90E020953095822379
:102280009323E817F90731F11092B50123C080912B
:10229000B1019091B201A091B301B091B401481B7A
:1022A000590B6A0B7B0B4F3051056105710590F09E
:1022B0004091B001812F90E0242F30E082239323BE
:1022C000892B29F01092B501812F842304C082E06C
:1022D0008093B50180E01F910F9108950E94B61080
:1022E00008951F93CF93DF93182F8091A90188231E
:1022F00091F481E08093A90184B18D7C84B985B18A
:10230000826385B985E090E06F9364E06A95F1F7A8
:102310006F910197C9F7C12FD0E083B190E08C2372
:102320009D23892BD1F38AE090E00E94911283B122
:1023300090E08C239D23892B81F383B18123DF914E
:10234000CF911F9108950E94711108951F93CF930B
:10235000DF93182F8091A901882391F481E0809365
:10236000A90184B18D7C84B985B1826385B985E08A
:1023700090E06F9364E06A95F1F76F910197C9F768
:10238000C12FD0E083B190E0809590958C239D2360
:10239000892BC1F38AE090E00E94911283B190E012
:1023A000809590958C239D23892B61F383B1809533
:1023B0008123DF91CF911F9108951F930E94A61151
:1023C000182F0E947111812F1F9108950E94DD1115
:1023D00008950E94A6110895A2E0B0E0E2EFF1E1B5
:1023E0000C94761B20910C0230910D02CE010196C7
:1023F0002115310519F48651924002C0821B930BBE
:102400009A83898389819A812296E2E00C94921BB7
:1024100008950895A2E0B0E0E0E1F2E10C94761BAB
:1024200020910C0230910D02CE010196211531054B
:1024300019F48651924002C0821B930B9A838983C0
:1024400089819A812296E2E00C94921B2F928F93BD
:102450009F932FB68091BA019091BB010196809312
:10246000BA019093BB0190E08091BC01891F8093D9
:10247000BC019091C2019C5F9093C2018091C10107
:1024800080519742C0F09093C2018093C101809126
:10249000BD019091BE0101968093BD019093BE0154
:1024A00090E08091BF01891F8093BF018091C0019E
:1024B000891F8093C0012FBE9F918F912F901895F7
:1024C0006F5F7F4F8F4F9F4F660F771F881F991F3A
:1024D00025E030E040E050E00E94291BCA01B9012C
:1024E000089528EE33E009C0F9016F9364E06A951E
:1024F000F1F76F913197C9F701970097A9F7089500
:102500006F5F7F4F8F4F9F4F660F771F881F991FF9
:1025100025E030E040E050E00E94291BCA01B901EB
:10252000089528EE33E009C0F9016F9364E06A95DD
:10253000F1F76F913197C9F701970097A9F70895BF
:10254000A0E7B0E08C918E7F8C93E0EBF0E080818F
:1025500083608083E1EBF0E08081807F80838081F5
:1025600082608083B89A8C9181608C93789408956E
:102570008091C301882329F481E08093C3010E94E4
:10258000A01208950E94B812E0E7F0E080818E7FEB
:1025900080832091BD013091BE014091BF015091D7
:1025A000C001808181608083B901CA0108950E94C1
:1025B000C21208950E94B812809170008E7F80939D
:1025C00070006091B2008091B9019091BA01A09120
:1025D000BB01B091BC01B89905C0262F30E040E0A6
:1025E00050E011C08091B2002091B9013091BA0140
:1025F0004091BB015091BC0120503F4F4F4F5F4F66
:1026000090E0A0E0B0E0282B392B4A2B5B2B809187
:102610007000816080937000B901CA0108950E9422
:10262000DA1208950E94B812E0E7F0E080818E7F10
:1026300080831092BD011092BE011092BF011092D2
:10264000C0011092C2011092C1018081816080831B
:1026500008950E94121308958091C4019091C501BC
:1026600008958091C6019091C70108958091C80195
:102670009091C90108958091CA019091CB0108956C
:102680008091C4019091C50108958091C6019091F7
:10269000C70108958091C8019091C9010895809162
:1026A000CA019091CB010895089584EC91E00E94B5
:1026B0004719089584EC91E00E946E1808959C01DA
:1026C000462F84EC91E0B90121E00E946E18089534
:1026D0009C01462F84EC91E0B90120E00E946E1825
:1026E000089584EC91E00E94B11708959C01462F53
:1026F00084EC91E0B9010E94B117089584EC91E057
:102700000E94671A0895682F84EC91E00E94671A6E
:10271000089584EC91E00E948A14089584EC91E07D
:102720000E948A14089584EC91E00E94A2140895F6
:1027300084EC91E00E94A21408959C01462F84EC41
:1027400091E0B9010E94121708959C01462F84EC74
:1027500091E0B9010E94121708950F93DF93CF9370
:1027600000D000D00F92CDB7DEB79C01962FDE01CE
:102770001196EDE8F1E085E001900D928150E1F7CE
:10278000BE016F5F7F4F992329F084EC91E045E013
:102790000FEF04C084EC91E045E003E10E940A15CC
:1027A00084EC91E00E948A140E9412130F900F9003
:1027B0000F900F900F90CF91DF910F91089561E0EE
:1027C0000E94AD13089560E00E94AD13089584EC5B
:1027D00091E00E94B9140895A0910A02B0910B02F1
:1027E0001C96ED91FC911D97309779F08081199698
:1027F0009C911997892B80831A96ED91FC911B97D8
:10280000808119969C91892B80830895A0910A025A
:10281000B0910B021C96ED91FC911D97309781F0C1
:10282000808119969C911997892B80831A96ED9136
:10283000FC911B97908119968C91809589238083B8
:102840000895E0910A02F0910B0280819181089530
:10285000E0910A02F0910B02828193810895E09148
:102860000A02F0910B02848195810895E0910A0299
:10287000F0910B02868197810895FC0111821082EC
:10288000138212821582148217821682613118F027
:1028900080E1808701C06087208B483060F481E050
:1028A00090E002C0880F991F4A95E2F74AE250E093
:1028B0002BE230E029C04E3080F4242F30E0285045
:1028C000304081E090E002C0880F991F2A95E2F71E
:1028D00044E250E025E230E017C0453130F080E0BE
:1028E00040E050E020E030E00FC0242F30E02E50D8
:1028F000304081E090E002C0880F991F2A95E2F7EE
:1029000047E250E028E230E081873387228755870D
:1029100044870895DC011C96ED91FC911D9730973A
:1029200081F0808119969C911997892B80831A9642
:10293000ED91FC911B97908119968C91809589233C
:1029400080830895DC011C96ED91FC911D973097D2
:1029500079F0808119969C911997892B80831A961A
:10296000ED91FC911B97808119969C91892B808316
:102970000895DC0120E040C0ED91FC911197309763
:1029800061F0822F90E0880F991FE80FF91F1E96C3
:102990008D919C911F97918380831496ED91FC916A
:1029A0001597309761F0822F90E0880F991FE80FFC
:1029B000F91F1E968D919C911F979183808312968B
:1029C000ED91FC911397309741F0822F90E0880FA2
:1029D000991FE80FF91F118210821696ED91FC9154
:1029E0001797309741F0822F90E0880F991FE80FDA
:1029F000F91F118210822F5F18968C911897281753
:102A000008F4BACF089580910A0290910B020E94B7
:102A1000B9140895A0E0B0E0E0E1F5E10C946E1B7C
:102A2000EC015B01642F7901402F20E00E943D14EE
:102A3000CE018F5B9F4FFC011082DE01AE5BBF4F6A
:102A40001C92FE01ED5BFF4F1082FF86EE8640E098
:102A500061E070E06F017D018C014EC0F501E40F73
:102A6000F11D8081883050F49B0102C0220F331F7A
:102A70008A95E2F7922F29E230E01FC08E3060F491
:102A800090E00897FB0102C0EE0FFF1F8A95E2F766
:102A90009E2F23E230E011C0853120F090E020E04D
:102AA00030E00BC090E00E979B0102C0220F331F55
:102AB0008A95E2F7922F26E230E0E42FF0E0DE0183
:102AC000AE0FBF1F51969C93EE0FFF1FEC0FFD1F23
:102AD00032A321A32332310511F4F80109C02632B3
:102AE000310511F4F70104C02932310521F4F60152
:102AF0008081982B90834F5F8885481708F4AECF6C
:102B0000CDB7DEB7EAE00C948A1B0F930E940A153A
:102B10000F9108950F930E940A150F910895A0E058
:102B2000B0E0E5E9F5E10C946C1BEC015B01CF5BD7
:102B3000DF4F4991A9918880C354D04090E009C0EB
:102B4000E92FF0E0EE0FFF1FEA0DFB1D118210824E
:102B50009F5F88859817A0F384B1CF5BDF4F3991D1
:102B6000832B84B987B12991822B87B98AB1988147
:102B7000C354D040892B8AB985B1832B85B988B1DC
:102B8000822B88B98BB1892B8BB9EAE0F0E06F9387
:102B900064E06A95F1F76F913197C9F784B1309588
:102BA000832384B987B12095822387B98AB1909510
:102BB00089238AB985B1382335B988B1282328B942
:102BC0008BB198239BB99090B000C090B1008091D8
:102BD000B00083608093B00082E08093B100D09019
:102BE000B20060E070E03AC05091B2005D19650F2C
:102BF000711DE3B0E41609F04FC0F6B0FA1609F003
:102C00004BC089B1881509F047C025C0A42FB0E09A
:102C10009D01220F331F8501020F131FF8018081D0
:102C20009181892BA1F42C0F3D1FF90181A192A163
:102C3000FC01208130E0AC0FBD1F51968C9190E0DB
:102C400028233923232B19F4F801718360834F5F04
:102C500088854817D8F2D50E4E2DAF2D8E859F85CD
:102C60006817790708F29092B000C092B10020E096
:102C70000FC0E22FF0E0EE0FFF1FEA0DFB1D808179
:102C80009181892B21F48E859F85918380832F5F8D
:102C90008885281770F305C0E3B0F6B089B040E02E
:102CA000D7CFCDB7DEB7ECE00C94881BEF92FF9244
:102CB0000F931F93CF93DF93EC017B01122F642FAF
:102CC000402F21E00E943D1419A31AA230E041E0F8
:102CD00050E013C0E32FF0E0D701AE0FBF1FEC0FA1
:102CE000FD1F8C91818BCA010C9002C0880F991F27
:102CF0000A94E2F7282B2AA33F5F88852AA1381778
:102D000048F32F732AA38FEF93E09F878E87CDB769
:102D1000DEB7E6E00C948E1B0F930E9456160F91BF
:102D200008950F930E9456160F910895A0E0B0E009
:102D3000ECE9F6E10C94701BEC018B01D0907C0067
:102D4000E0907A00C7B0F8B080917A0086FDFCCFA1
:102D500090E009C0E92FF0E0EE0FFF1FE00FF11F38
:102D6000118210829F5F88859817A0F397B18AA17E
:102D70008095982397B998B1892388B987E880937B
:102D80007A0050E025C0FE01E40FF11D81898064C6
:102D900080937C0080917A00806480937A00809197
:102DA0007A0086FDFCCFE42FF0E0EE0FFF1FE00F6E
:102DB000F11F209178003091790080819181820FFC
:102DC000931F918380834F5F88854817E0F25F5F90
:102DD00089A1581710F040E017C040E0F5CFE42F6C
:102DE000F0E0EE0FFF1FE00FF11F69A1862F90E0CA
:102DF0009595879520813181820F931F70E00E9405
:102E0000021B718360834F5F8885481740F3D0921F
:102E10007C00E0927A00F8B8C7B8CDB7DEB7E8E03A
:102E20000C948C1BA0E2B0E0E8E1F7E10C946F1B7E
:102E30008C017B01D42E842F81508230B0F4D801D4
:102E40001C96ED91FC911D97309779F08081199631
:102E50009C911997892B80831A96ED91FC911B9771
:102E6000808119969C91892B8083F8018089882321
:102E700049F5C02EB12EC801B7010E948F15D801A7
:102E80001C96ED91FC911D97309781F080811996E9
:102E90009C911997892B80831A96ED91FC911B9731
:102EA000908119968C91809589238083B2E0DB16FE
:102EB00009F053C08C2D9B2DBE016F5F7F4F0E9488
:102EC0008F1527C0C02EB12EC801B7010E949616DB
:102ED000D8011C96ED91FC911D97309781F080816F
:102EE00019969C911997892B80831A96ED91FC91E4
:102EF0001B97908119968C91809589238083B2E0ED
:102F0000DB1659F58C2D9B2DBE016F5F7F4F0E9404
:102F1000961640E0BE016F5F7F4F1AC0E42FF0E0CD
:102F2000EE0FFF1F6701CE0EDF1EE60FF71FD80161
:102F30001E962D913C911F9780819181281B390B02
:102F4000F60180819181820F931F918380834F5F6F
:102F5000D80118968C91481708F3A096E9E00C94D4
:102F60008B1BA0E0B0E0E7EBF7E10C946D1BEC01EC
:102F7000162F072F942E22E0421711F0442351F40C
:102F80008C819D81892B09F4A4C08E819F81892B1E
:102F900009F49FC0892D8150823050F48881998135
:102FA000892B09F496C08A819B81892B09F491C0F1
:102FB000CE01612F702F492D0E941217812F902F63
:102FC0009C015901CC24DD2400E010E07CC081E0AC
:102FD000981669F4EA81FB81E00FF11F20813181AD
:102FE000E881F981E00FF11F408151813DC0AC8142
:102FF000BD81992059F4EE81FF81E00FF11F2081FE
:103000003181A00FB11F4D915C912EC0A00FB11F57
:103010008D919C91E881F981E00FF11F2081318130
:10302000EE85FF858217930710F4AF0105C0A90153
:103030004E0F5F1F481B590BEE81FF81E00FF11F00
:1030400060817181EA81FB81E00FF11F80819181B4
:10305000EE85FF856817790710F49F0105C09C0174
:103060002E0F3F1F261B370B7901E41AF50A01F1D9
:10307000F5016081718180E090E09A0140E050E0CC
:10308000621B730B840B950B28EE33E040E050E09D
:103090000E94D71A970140E050E00E944B1BC901E3
:1030A000F3E0293E3F0714F088EE93E097FF02C05B
:1030B00080E090E0F501819391935F010894C11C39
:1030C000D11C0E5F1F4F888590E0C816D9060CF4FE
:1030D0007ECFCDB7DEB7EBE00C94891BA4E0B0E067
:1030E000E4E7F8E10C94661B8C01F62EE72E2A83A8
:1030F0000E94B117D8011896BC91B9832F2D3E2D8F
:10310000C9018C01552444246624772443011C8280
:103110001B82AA24BB246501B8EE2B2EB3E03B2E04
:1031200032C0F801E080F180FA81FF2321F09101A3
:103130002E193F09790139ECE316F10414F0442407
:10314000439483E3E816F1049CF0B701882777FDE8
:103150008095982FA60195010E94D71A660E771EBA
:10316000881E991EAB81BC81AE0DBF1DBC83AB8395
:10317000539488EE93E0A0E0B0E0A80EB91ECA1EFA
:10318000DB1E0E5F1F4F9981591658F2442021F51E
:10319000692F70E084EF91E0DC016A9FC0016B9FB2
:1031A000900D7A9F900D1124845F91402091080228
:1031B00030910902281739071CF440E050E01AC08A
:1031C00088EE93E0689FA001699F500D789F500D95
:1031D0001124485E53400EC0EB81FC819F0140E00A
:1031E00050E0C401B3010E94291BA90130930902D8
:1031F00020930802CA012496E2E10C94821B9C01F0
:10320000462F80910A0290910B02B90121E00E94A1
:103210006E1808959C01462F80910A0290910B022E
:10322000B90120E00E946E1808959C01462F8091FC
:103230000A0290910B02B9010E94B11708959C01F6
:10324000462F80910A0290910B02B9010E94121739
:103250000895CF93DF93EC018A819B81009711F051
:103260000E94501C8E819F81009711F00E94501C7B
:1032700088819981009711F00E94501C8C819D815A
:10328000009711F00E94501CDF91CF910895CF93C9
:10329000DF93EC018A819B81009711F00E94501C02
:1032A0008E819F81009711F00E94501C8881998126
:1032B000009711F00E94501C8C819D81009711F0A5
:1032C0000E94501CDF91CF910895A3E6B0E0EBE699
:1032D000F9E10C94661B7C015B016A01A2962FAF99
:1032E000A297DA018D919C91892B11F5F7018085C8
:1032F00090E0880F991F0E94A31BD6018D939C9389
:10330000009709F4DFC020E030E00CC0C901880F4D
:10331000991FD601ED91FC91E80FF91F11821082DF
:103320002F5F3F4FF701808590E02817390774F32E
:10333000D5018D919C91892B89F000E010E03E0130
:103340000894611C711C41E4242E312C2C0E3D1E6E
:1033500031E2432E512C4C0E5D1E28C0F7018085B2
:1033600090E0880F991F0E94A31BD5018D939C9319
:10337000009709F4A7C020E030E011C0C901880F10
:10338000991FD501ED91FC91E80FF91FD7011E9609
:103390008D919C911F97918380832F5F3F4FF70101
:1033A000808590E0281739074CF3C7CFC701B301D8
:1033B000A2964FADA2970E941217D70118968C9132
:1033C000882E9924A101F301A4965FAE4EAEA49776
:1033D00060E070E034C00115110559F0A496AEAD5F
:1033E000BFADA4972D913C91808191812817390719
:1033F00058F480819181A496AEADBFADA4978D9312
:103400009C930115110541F0DA012D913C918081C9
:1034100091818217930728F480819181DA018D933D
:103420009C936F5F7F4F4E5F5F4F3296A4968EAD39
:103430009FADA4970296A4969FAF8EAFA4976815F0
:1034400079054CF20F5F1F4F0A30110509F0AECF1E
:1034500040E050E020E030E08E010F5B1F4FBE01E6
:103460006F5D7F4F28C0F801E20FF31F80809180CD
:10347000F601A081B181A20FB31F8D919C9111978C
:103480008815990510F48D929C92FB01E20FF31FB1
:1034900080809180F501A081B181A20FB31F8D9131
:1034A0009C9111978816990610F48D929C924F5F0B
:1034B0005F4F2E5F3F4FD70118968C9190E04817D1
:1034C00059078CF2CD59DF4FE2E10C94821B1F9318
:1034D000CF93DF93EC01162F862F8150823040F47A
:1034E000AE014E5F5F4FCE01BE0121E00E94651923
:1034F000123011F0112349F4AE014A5F5F4FCE0143
:103500002496BE0120E00E946519DF91CF911F91A2
:103510000895682F80910A0290910B020E94671A09
:103520000895A0E0B0E0E7E9FAE10C94711B8C018A
:10353000F62EE42ED22E83E290E00E94A31BEC0133
:10354000009711F480E00BC0B8014F2D2E2D0D2DEA
:103550000E945616D0930B02C0930A0281E0CDB7A9
:10356000DEB7E7E00C948D1BA0E0B0E0EAEBFAE1F7
:103570000C94701B8C01D62E7A01C22E84E490E04C
:103580000E94A31BEC01009711F480E00BC0B8016E
:103590004D2D97010C2D0E940A15D0930B02C0935C
:1035A0000A0281E0CDB7DEB7E8E00C948C1B629F85
:1035B000D001739FF001829FE00DF11D649FE00D2B
:1035C000F11D929FF00D839FF00D749FF00D659F8C
:1035D000F00D9927729FB00DE11DF91F639FB00D8B
:1035E000E11DF91FBD01CF0111240895991B79E058
:1035F00004C0991F961708F0961B881F7A95C9F783
:1036000080950895AA1BBB1B51E107C0AA1FBB1FD1
:10361000A617B70710F0A61BB70B881F991F5A955E
:10362000A9F780959095BC01CD01089597FB092ECF
:1036300007260AD077FD04D0E5DF06D000201AF473
:10364000709561957F4F0895F6F7909581959F4FFE
:103650000895A1E21A2EAA1BBB1BFD010DC0AA1FD3
:10366000BB1FEE1FFF1FA217B307E407F50720F0EB
:10367000A21BB30BE40BF50B661F771F881F991F66
:103680001A9469F760957095809590959B01AC01AF
:10369000BD01CF01089597FB092E05260ED057FDD9
:1036A00004D0D7DF0AD0001C38F4509540953095EF
:1036B00021953F4F4F4F5F4F0895F6F790958095B6
:1036C000709561957F4F8F4F9F4F08952F923F9236
:1036D0004F925F926F927F928F929F92AF92BF9222
:1036E000CF92DF92EF92FF920F931F93CF93DF93CE
:1036F000CDB7DEB7CA1BDB0B0FB6F894DEBF0FBE2B
:10370000CDBF09942A88398848885F846E847D8477
:103710008C849B84AA84B984C884DF80EE80FD8079
:103720000C811B81AA81B981CE0FD11D0FB6F894EF
:10373000DEBF0FBECDBFED010895EE0FFF1F059058
:10374000F491E02D0994CF93DF93BC018230910571
:1037500010F462E070E0A0910E02B0910F02ED0152
:10376000E0E0F0E040E050E021C0888199818617D8
:10377000970769F48A819B81309719F0938382833C
:1037800004C090930F0280930E02FE0134C06817AC
:10379000790738F44115510519F08417950708F495
:1037A000AC01FE018A819B819C01E9012097E9F629
:1037B00041155105A9F1CA01861B970B049708F41E
:1037C000BA01E0E0F0E02AC08D919C911197841736
:1037D0009507F9F46417750781F412968D919C9101
:1037E0001397309719F09383828304C090930F024C
:1037F00080930E02FD0132964FC0CA01861B970BC3
:10380000FD01E80FF91F6193719302978D939C93CB
:1038100043C0FD01828193819C01D9011097A1F6DB
:1038200080910C0290910D02892B41F480919401BA
:103830009091950190930D0280930C024091960116
:10384000509197014115510541F44DB75EB78091F4
:10385000920190919301481B590B20910C023091D9
:103860000D0224173507B0F4CA01821B930B86178B
:10387000970780F0AB014E5F5F4F8417950750F0BC
:10388000420F531F50930D0240930C02F9016193B4
:10389000719302C0E0E0F0E0CF01DF91CF91089595
:1038A000CF93DF93009709F450C0EC0122971B825D
:1038B0001A82A0910E02B0910F02109709F140E018
:1038C00050E0AC17BD0708F1BB83AA83FE0121912C
:1038D0003191E20FF31FAE17BF0779F48D919C91E0
:1038E0001197280F391F2E5F3F4F39832883129677
:1038F0008D919C9113979B838A834115510571F497
:10390000D0930F02C0930E0220C012968D919C910D
:103910001397AD01009711F0DC01D3CFFA01D383E7
:10392000C28321913191E20FF31FCE17DF0769F4B3
:1039300088819981280F391F2E5F3F4FFA0131830B
:1039400020838A819B8193838283DF91CF91089525
:103950000F931F93CF93DF938C01EB01009731F40A
:103960006115710519F420E030E038C081E090E085
:103970006EE070E00E94F41CFC019C01009771F164
:1039800080E88383209771F0D387C28781E883839F
:103990008091100290911102892B21F4F093110271
:1039A000E093100201151105C9F01187008783818A
:1039B000826083838091120290911302892B71F4AB
:1039C000F0931302E0931202809114029091150279
:1039D000892B21F4F0931502E0931402C901DF91C1
:1039E000CF911F910F9108950F931F93CF93DF9362
:1039F000689F8001699F100D789F100D1124C801E8
:103A00000E94A31BEC01009729F060E070E0A80180
:103A10000E94101DCE01DF91CF911F910F9108954B
:103A2000DC0101C06D9341505040E0F7089510E073
:103A3000C4ECD0E004C0FE010E949F1B2296C63C4D
:083A4000D107C9F7F894FFCF8C
:103A48006D56005072657373204200414848482102
:103A5800000000000000000000000000000000005E
:103A6800000000000000000000000000000000004E
:103A7800000000000000000000000000000000003E
:103A8800000000000000000000000000000000002E
:103A9800000000000000000000000000000000001E
:103AA800000000000000000000000000000000000E
:103AB8000000000000200000010203040506FF8842
:103AC80013040400D007F4010F000208010E0F10C0
:083AD80011122000160200008B
:00000001FF
