:100000000C9463000C948B000C948B000C948B006C
:100010000C948B000C948B000C948B000C948B0034
:100020000C948B000C940F110C948B000C948B008F
:100030000C948B000C940D090C948B000C948B0089
:100040000C948B000C948B000C948B000C948B0004
:100050000C948B000C948B000C948B000C948B00F4
:100060000C948B000C948B003006360639063C0647
:100070003F064206450648064B064E065106540604
:1000800020506F6C6F6C750033F720526F626F7485
:10009000004D617A6500736F6C7665720000000038
:1000A000000000001F1F1F1F1F1F1F3E6733323E2F
:1000B0003E633332004C493620636465677265677E
:1000C00034003D123E1211241FBECFEFD8E0DEBF38
:1000D000CDBF11E0A0E0B1E0EAE1F8E302C0059095
:1000E0000D92AA38B107D9F712E0AAE8B1E001C031
:1000F0001D92A830B107E1F710E0C4ECD0E004C0D5
:100100002297FE010E94881AC23CD107C9F70E94BB
:10011000C7020C94001C0C940000882311F08CE49E
:100120000895662311F083E50895442311F482E4D1
:10013000089582E5089580E090E060E070E00E941C
:10014000830EF9CF8C3429F0823541F08234D9F412
:1001500010C080EB9FEF60E570E004C080E590E0A8
:1001600060EB7FEF0E94830E88EC90E00E945A11B2
:10017000089580E590E060EB7FEF0E94830E80E9B8
:1001800091E00E945A1108954F925F926F927F9270
:100190008F929F92AF92BF92CF92DF92EF92FF9297
:1001A0000F931F93DF93CF93CDB7DEB72A970FB688
:1001B000F894DEBF0FBECDBF66247724AA24BB24EB
:1001C00065012E010894411C511C0E94550B609141
:1001D0006F0170917001882777FD8095982F0E949C
:1001E000200C0E94550BC20161E00E94511250E3A5
:1001F000852E58EF952E880E991EC401AA2797FDCB
:10020000A095BA2FA80EB91ECA1EDB1EC601B501E5
:1002100020E137E240E050E00E94341A79018A017F
:10022000940126193709C901880F991F820F931F5E
:1002300062E070E00E94FF199B012E0D3F1DC4017A
:1002400064E170E00E94FF1940916F0150917001CC
:10025000260F371F421753070CF49A018827992756
:10026000841B950BB901281739070CF4BC0177FFE3
:1002700005C0CB01840F951FBA0105C0CA01861BBA
:10028000970BBC01CA010E94830E29813A81243652
:100290003105D8F48B819C8184369105B0F48D8131
:1002A0009E818436910588F48F81988584369105E6
:1002B00060F489859A858436910538F480E090E071
:1002C00060E070E00E94830EF9CF8B819C818436C0
:1002D0009105A0F48D819E818436910578F48F81FB
:1002E00098858436910550F480916F01909170014A
:1002F00001969093700180936F010AC0293C3105EB
:1003000038F4340189859A85893C910508F45DCFDC
:100310002A960FB6F894DEBF0FBECDBFCF91DF9106
:100320001F910F91FF90EF90DF90CF90BF90AF9013
:100330009F908F907F906F905F904F900895CF9295
:10034000DF92EF92FF920F931F93DF93CF93CDB77E
:10035000DEB72A970FB6F894DEBF0FBECDBF6E0191
:100360000894C11CD11C0E94C40082E390E062E3A7
:1003700070E00E94830E82E390E00E945A11C60151
:1003800061E00E94511209811A81E984FA8488E2AD
:1003900090E068E270E00E94830E88EC90E00E949A
:1003A0005A11C60161E00E9451128B819C812D81FE
:1003B0003E81893C910550F4293C310578F420E0D8
:1003C0008F819885893C910550F008C0293C310502
:1003D00028F08F819885893C9105F8F421E0053655
:1003E000110510F01CE40BC0222311F013E507C027
:1003F00085E6E816F10410F412E401C012E5812F3D
:100400000E94A20080918A01E82FF0E0E55FFE4F94
:1004100010838F5F80938A01A6CF2A960FB6F89437
:10042000DEBF0FBECDBFCF91DF911F910F91FF9027
:10043000EF90DF90CF900895CF92DF92EF92FF92EE
:100440000F931F93DF93CF93CDB7DEB72A970FB6E5
:10045000F894DEBF0FBECDBF80ED97E00E94CC12B6
:1004600080E061E00E94250B88EE93E00E945A1123
:100470000E94550B80E061E00E94250B88EE93E01E
:100480001BC00E94D0047C010E94550B0027F7FC82
:100490000095102FC801B7010E94200C80E091E068
:1004A0000E94410C80E061E00E94250B83E091E016
:1004B0000E94410C84E690E00E945A1180E10E9463
:1004C000880E8823F1F280E10E948C1088EE93E080
:1004D0000E945A110CEE1FEF0832110528F088E235
:1004E00090E068ED7FEF04C088ED9FEF68E270E078
:1004F0000E94830E81E00E946C1284E190E00E94D1
:100500005A110F5F1F4F0C33110531F780E090E057
:1005100060E070E00E94830E6E010894C11CD11C43
:1005200015C0C60161E00E9451127C010E94550B6A
:1005300000E010E0C801B7010E94200C80E061E0FB
:100540000E94250B84E690E00E945A1180E10E94EF
:10055000880E882331F380E10E948C100E94550B95
:1005600085EB90E00E94FA080E94FC048823E1F7E2
:100570002A960FB6F894DEBF0FBECDBFCF91DF91A4
:100580001F910F91FF90EF90DF90CF9008950E9400
:100590001C020E949F01FFCF982F803278F487E8D9
:1005A00080937A0080917C0080648076892B809390
:1005B0007C0080917A00806480937A000895809115
:1005C0007C0085FF05C080917900282F30E004C0B1
:1005D0002091780030917900C901089590937201BB
:1005E0008093710108950895089580917C0085FF9E
:1005F00005C080917900282F30E004C02091780058
:1006000030917900C9010895282F8032B0F487E82D
:1006100080937A0080917C00982F9064662311F07B
:10062000806C02C0892F8F77807E822B80937C0024
:1006300080917A00806480937A000895982F8032A8
:1006400078F487E880937A0080917C0080648076DB
:10065000892B80937C0080917A00806480937A005B
:1006600080917A0086FDFCCF80917C0085FF05C0DB
:1006700080917900282F30E004C0209178003091DB
:100680007900C90108950E941E030895EF92FF9218
:100690000F931F93982F803278F487E880937A0025
:1006A00080917C0080648076892B80937C0080918F
:1006B0007A00806480937A0080917A0086FDFCCF76
:1006C000FB01EE24FF24870180917A0080648093EF
:1006D0007A0080917A0086FDFCCF80917C0085FFB6
:1006E00004C08091790090E004C0809178009091DE
:1006F0007900A0E0B0E0E80EF91E0A1F1B1F319739
:1007000019F7CB01969587956034710538F48E0DF5
:100710009F1D70E00E94EB199B010DC0A0E0B0E0AE
:10072000E80EF91E0A1F1B1F9B0140E050E0C801A4
:10073000B7010E94121AC9011F910F91FF90EF900B
:10074000089587E064E170E00E94460308950E94E6
:1007500046030895909372018093710108951F9349
:1007600010917C0080917C008F7D80937C008EE1D5
:1007700064E170E00E9446038EE164E170E00E9453
:1007800046039C0115FD04C080917C008F7D03C051
:1007900080917C00806280937C00B901769567959A
:1007A00080E090E06C54744D8E4E9F4F40E050E0DE
:1007B0000E94121AC9011F9108950E94AF03089563
:1007C000A0E0B0E0209171013091720140E050E072
:1007D000BC01CD010E94C0199B01AC0180917C003D
:1007E00085FF0BC0B901CA0161587F4F8F4F9F4FE2
:1007F0002FEF30E040E050E00AC0B901CA0161507B
:100800007E4F8F4F9F4F2FEF33E040E050E00E942C
:10081000121AC90108950E9446030E94E003089538
:100820000E940B04089580917C0085FF06C0809192
:10083000790090E00E94E003089580917800909103
:1008400079000E94E0030895982F803278F487E8B9
:1008500080937A0080917C0080648076892B8093DD
:100860007C0080917A00806480937A0080917A0085
:1008700086FDFCCF0E94130408950E94240408956D
:100880000E941304089587E064E170E00E9446032B
:100890000E94E00308950E94E00308951F931091C1
:1008A0007C0080917C008F7D80937C0086E064E1F9
:1008B00070E00E940B049C0115FD04C080917C0037
:1008C0008F7D03C080917C00806280937C00C90191
:1008D000880F991F820F931F880F991F880F991FE8
:1008E0008A5792406DE070E00E94FF19CB011F9182
:1008F00008950E944E0408951F9310917C008091EA
:100900007C008F7D80937C0086E064E170E00E9433
:100910000B049C0115FD04C080917C008F7D03C0F9
:1009200080917C00806280937C0084E190E0AC0147
:10093000249FC001259F900D349F900D11248E524D
:100940009F4167E270E00E94FF19CB011F9108955B
:100950000E947C0408951F9310917C0080917C007C
:100960008F7D80937C0086E06AE070E00E940B043B
:10097000AC0115FD04C080917C008F7D03C0809187
:100980007C00806280937C009A01220F331F240F29
:10099000351F2F5F3F4F36952795C9011F91089549
:1009A0000E94AB0408951F9310917C0080917C00FD
:1009B0008F7D80937C0086E06AE070E00E940B04EB
:1009C000AC0115FD04C080917C008F7D03C0809137
:1009D0007C00806280937C009A01220F331F240FD9
:1009E000351FC9011F9108950E94D30408950E94E4
:1009F000D30408950895089580917E01882339F0E5
:100A000020E08091A9019091AA01892B09F021E0B1
:100A1000822F089510926F00E1E8F0E08081887FD6
:100A20008160808380E197E29093890080938800C1
:100A300010928B0010928A0081E080937E011092C8
:100A4000AA011092A901089510926F0083E2809389
:100A5000800081E1809381001092820080E197E222
:100A6000909389008093880010928B0010928A00E6
:100A7000229A78940895A0E0B0E0E1E4F5E00C94C7
:100A8000571AFC015B01C42E8091A8018823C9F488
:100A900081E08093A80110926F0083E28093800030
:100AA00081E1809381001092820080E197E290932F
:100AB00089008093880010928B0010928A00229AFD
:100AC000789410927E01F7FD03C0DD24D39403C017
:100AD000FF772AE0D22E80918100082F10E0087F56
:100AE000107088ECD89EC00111248E179F07C0F4A7
:100AF000EF0187E2E131F80710F0C0E1D7E2BE0173
:100B00007695679580E090E06058794687469F4FDC
:100B10009E0140E050E00E94121A7901016024C059
:100B200088E2D89E802D1124C82FD0E0CE17DF0791
:100B300008F4EF01BE01769567959E0140E050E014
:100B40008AE0D81639F480E090E0605E7344814416
:100B50009F4F06C080E090E060537D4E8C4E9F4FCB
:100B60000E94121A790102608AE0D81639F4CE0187
:100B700005966AE070E00E94EB19EB0183E0C83E45
:100B8000D80711F4B5010FC0BE0180E090E09501D7
:100B900040E050E00E94C01928EE33E040E050E011
:100BA0000E94341AB90110926F0000938100F092F4
:100BB0008900E0928800E0918800F0918900AC2DD6
:100BC000A03108F0AFE080E190E08A1B910902C0FB
:100BD000F695E7958A95E2F7F0938B00E0938A000B
:100BE0007093900160938F0186B38FEF86BB81E095
:100BF00080936F00CDB7DEB7EAE00C94731A0E94C1
:100C00003B050895CF93DF93EB018F3F11F0442311
:100C100029F488EE93E0BE0140E067C0813110F412
:100C200020E005C0282F2051203608F02FE5822F24
:100C30006CE00E94DF19382F682F70E084EF9FEF7F
:100C4000689FF001699FF00D789FF00D1124E20F6D
:100C5000F11DEC30F10538F4EC5CFF4F0C94861A72
:100C60008CE991E023C080E090E020C085EB91E02A
:100C70001DC08FEC91E01AC08AEE91E017C087E0AA
:100C800092E014C086E292E011C087E492E00EC0C8
:100C900089E692E00BC08EE892E008C085EB92E016
:100CA00005C08EED92E002C08AE093E0373071F02B
:100CB00002C0880F991F6A95E2F7323020F005963E
:100CC0006AE070E00BC0805090480BC036E0880F9F
:100CD000991F3A95E1F7029665E070E00E94EB19E2
:100CE000CB01403108F04FE0BE010E943B05DF918F
:100CF000CF9108950E940206089580917E01882375
:100D000039F020E08091A9019091AA01892B09F086
:100D100021E0822F089510926F00E1E8F0E08081D9
:100D2000887F8160808380E197E29093890080933F
:100D3000880010928B0010928A0081E080937E01DF
:100D40001092AA011092A901089530918D01E091AD
:100D5000A901F091AA01332311F0249101C020814F
:100D6000822F81548A3108F4205E203259F4809118
:100D7000A9019091AA0101969093AA018093A901DB
:100D8000019729F7822F0895CF93DF930E94A5063C
:100D9000282FC0E0D0E01DC0CE0153E0880F991F7E
:100DA0005A95E1F7CC0FDD1FC80FD91F822F992765
:100DB00087FD9095C80FD91FE0978091A901909168
:100DC000AA0101969093AA018093A9010E94A50609
:100DD000282F822F80538A30F8F2CE01DF91CF91F5
:100DE0000895A0E0B0E0E7EFF6E00C94551A80908B
:100DF0007301B0908B01BB2021F060918C016623C0
:100E000099F4A0908C010091780110917901E09003
:100E10007401F0907501C0917601D0917701C09076
:100E20007A01D0907B0108C18FEF70E040E00E9412
:100E3000020610928C01CBC194E0892EBB2404EFF2
:100E400011E084E0E82EF12CC0EDD7E0B4E09B2E59
:100E5000AFE0CA2ED12C0E94A506282F8091A901AF
:100E60009091AA0101969093AA018093A901263638
:100E700009F498C02736CCF42236A1F1233674F455
:100E80002E3361F12F3334F42132B1F22C3309F0D7
:100E90000BC126C0213609F007C121C1243609F44F
:100EA00051C025360CF066C035C02F3609F4C1C0DC
:100EB000203754F42C3609F4A5C02D3609F4A6C009
:100EC000273609F0F1C086C0243709F4D1C026378F
:100ED00009F4E6C0223709F0E7C0B0C08394BBCF65
:100EE0008A94B9CFA0928C01B0928B0110937901B2
:100EF00000937801F0927501E0927401D09377012C
:100F0000C093760190927301D0927B01C0927A01D6
:100F10002BE0FCC0A0928C01B0928B011093790160
:100F200000937801F0927501E0927401D0937701FB
:100F3000C093760190927301D0927B01C0927A01A6
:100F400020E0E4C0A0928C01B0928B011093790153
:100F500000937801F0927501E0927401D0937701CB
:100F6000C093760190927301D0927B01C0927A0176
:100F700022E0CCC0A0928C01B0928B011093790139
:100F800000937801F0927501E0927401D09377019B
:100F9000C093760190927301D0927B01C0927A0146
:100FA00024E0B4C0A0928C01B0928B01109379011F
:100FB00000937801F0927501E0927401D09377016B
:100FC000C093760190927301D0927B01C0927A0116
:100FD00025E09CC0A0928C01B0928B011093790106
:100FE00000937801F0927501E0927401D09377013B
:100FF000C093760190927301D0927B01C0927A01E6
:1010000027E084C00E94C4067C0144C00E94A5065B
:101010008C3611F4BB2403C0AA24BB24B394809162
:10102000A9019091AA0101969093AA018093A90128
:1010300012CF0E94C406882E982C0DCFA0928C014E
:10104000B0928B011093790100937801F0927501B1
:10105000E0927401D0937701C0937601909273016E
:10106000D0927B01C0927A0120E0FF24F3944FC01C
:101070000E94C406BC0180EC9DE50E94EB19CB01E7
:10108000EB01F3E0CC0FDD1FFA95E1F7880F991F14
:10109000C80FD91FCE01B7010E94EB198B01DBCE1F
:1010A0000E94C4066C01D7CEA0928C01B0928B0135
:1010B0001093790100937801F0927501E092740128
:1010C000D0937701C093760190927301D0927B0107
:1010D000C0927A011092AA011092A90178C0A09240
:1010E0008C01B0928B011093790100937801F092FA
:1010F0007501E0927401D0937701C09376019092CC
:101100007301D0927B01C0927A0129E0FF248CE028
:10111000889EC0011124E22EE80E0AC08091A90128
:101120009091AA0101969093AA018093A901E3945A
:101130000E94A5068B3291F3833281F30CC080911B
:10114000A9019091AA0101969093AA018093A90107
:10115000EA940E94A5068D3291F3C0917801D09156
:1011600079018153883058F400917601109177010C
:101170000E94C406BC01C8010E94EB19EB018E015C
:101180000BC08091A9019091AA0101969093AA01A8
:101190008093A901C00FD11F169507950E94A5063F
:1011A0008E3279F380918B01882339F0CE019695A8
:1011B000879580938C01C81BD109FF2011F0EE2484
:1011C000EA948E2DBE0140917A010E940206CDB7AD
:1011D000DEB7ECE00C94711A10926F009093AA01A4
:1011E0008093A90181E080938D0110928C010E946F
:1011F000F10608950E94EC08089510926F009093F4
:10120000AA018093A90110928D0110928C010E9475
:10121000F10608950E94FD0808951F920F920FB6DF
:101220000F9211242F933F934F935F936F937F936C
:101230008F939F93AF93BF93EF93FF9380918F0111
:101240009091900101979093900180938F01019666
:1012500011F510926F00789480918100887F8160F1
:101260008093810080E197E29093890080938800C9
:1012700010928B0010928A0081E080937E01809111
:10128000A9019091AA01892B31F080918E018823C8
:1012900011F40E94F106FF91EF91BF91AF919F91E0
:1012A0008F917F916F915F914F913F912F910F900F
:1012B0000FBE0F901F90189510926F0080917E01C5
:1012C000882341F08091A9019091AA01892B11F006
:1012D0000E94F10681E080936F0020E08091A901D7
:1012E0009091AA01892B09F021E0822F0895809323
:1012F0008E01882311F40E945C0908950E947709E9
:1013000008950E945C0908950895089580E090E092
:101310000895EF92FF920F931F936AB157985A98CE
:10132000289AE0909501F090960100919701109114
:10133000980120E030E041E050E0CA016F9364E0A2
:101340006A95F1F76F910197C9F75C9ACA016F939B
:1013500064E06A95F1F76F910197C9F789B15C98DC
:10136000FA016F9364E06A95F1F76F913197C9F7CD
:101370005C9AFA016F9364E06A95F1F76F91319787
:10138000C9F75C9887FF0BC02C5F3F4FC901A0E0F5
:10139000B0E08E159F05A007B10708F4CECF6AB95B
:1013A0001F910F91FF90EF90089565B190E0AC010F
:1013B00041705070440F551F9C012670307053E0EF
:1013C000220F331F5A95E1F7422B6D7C462B45B90E
:1013D0002BB18870907034E0880F991F3A95E1F72F
:1013E0002F77282B2BB95C9A81E090E0FC016F935A
:1013F00064E06A95F1F76F913197C9F75C986F9344
:1014000064E06A95F1F76F910197C9F708958091AB
:10141000910190919201009711F00E94391B8091E7
:101420007C0190E0019720917D0130E0AC01429F6A
:10143000C001439F900D529F900D11240E948C1A61
:101440009093920180939101009729F160E070E2FE
:1014500008C0E0919101F0919201E40FF51F7083B3
:101460006F5F462F50E080917C0190E001972091C2
:101470007D0130E0FC01E29FC001E39F900DF29FEF
:10148000900D11244817590724F38AE49CE066E87C
:1014900079E00E94911B089580937D0160937C0107
:1014A0000E94070A089580937D0160937C010E9449
:1014B000070A08950E94070A089580E197E2A0E0D4
:1014C000B0E08093950190939601A0939701B0931B
:1014D0009801529A209A549A8EE190E00E947A11D3
:1014E00083E00E94900D86E090E00E947A1183E0F4
:1014F0000E94900D82E090E00E947A1183E00E94A9
:10150000900D82E090E00E947A1182E00E94900D9E
:1015100082E090E00E947A1188E20E94DA0A88E074
:101520000E94DA0A81E00E94DA0A86E00E94DA0A62
:101530008CE00E94DA0A089580919901882329F4A9
:1015400081E0809399010E945D0A0895BF92CF9235
:10155000DF92EF92FF920F931F93082F162FF42E16
:101560000E949C0A0E948909B4B0C5B0DAB0EBB001
:101570002898112311F05A9A01C05A9884B18263B5
:1015800084B9579A81E0F81629F0802F82958F70E0
:101590000E94D509802F8F700E94D509DAB8EBB868
:1015A000B4B8C5B81F910F91FF90EF90DF90CF9026
:1015B000BF90089560E042E00E94A60A08950F934C
:1015C0001F93082F162F08C0002311F480E101C0DB
:1015D00084E10E94DA0A11501123B1F71F910F9193
:1015E00008950E94DF0A08958CE00E94DA0A0895A7
:1015F0000E94F40A0895813011F48FE001C08EE05A
:101600000E94DA0A08950E94FB0A0895A4E0B0E05F
:10161000ECE0FBE00C945D1A182F062F80E889831C
:1016200080EC8A8384E98B8384ED8C83FE01E60F52
:10163000F11D8181810F0E94DA0A109394010093B9
:1016400093012496E4E00C94791A0E94060B089505
:1016500081E00E94DA0A8091910190919201892B98
:1016600019F160E070E208C0E0919101F0919201FF
:10167000E40FF51F70836F5F462F50E080917C016F
:1016800090E0019720917D0130E0FC01E29FC001D4
:10169000E39F900DF29F900D11244817590724F3F2
:1016A000109294011092930108950E94280B0895BE
:1016B00061E042E00E94A60A08950F931F93CF9322
:1016C000DF9300E010E8C82FD0E0812F90E08C235A
:1016D0009D23892B11F081E301C080E30E94580B08
:1016E0000F5F083011F01695F0CFDF91CF911F9169
:1016F0000F9108950E945D0B08958A3010F4805D6B
:1017000001C0895C0E94580B08951F93182F829581
:101710008F700E947D0B812F8F700E947D0B1F9117
:1017200008951F93182F892F0E94850B812F0E94E7
:10173000850B1F9108950E94910B08950E94850BBF
:1017400008956F927F928F929F92AF92BF92CF92A5
:10175000DF92FF920F93DF93CF93CDB7DEB72A9737
:101760000FB6F894DEBF0FBECDBF5B016C010AE07F
:101770003E010894611C711CFA2CC601B5012AE0D7
:1017800030E040E050E00E94121AC901DA015C0129
:101790006D0101504301800E911C80E3F80EC601DB
:1017A000B5012AE030E040E050E00E94C019F61A8E
:1017B000F401F082A114B104C104D104E9F608C017
:1017C000F601E00FF11D80810E94580B0F5F04C0ED
:1017D0006E010894C11CD11C0A3090F32A960FB6F2
:1017E000F894DEBF0FBECDBFCF91DF910F91FF9078
:1017F000DF90CF90BF90AF909F908F907F906F9031
:1018000008950E94A10B0895EF92FF920F931F93EA
:101810007B018C0197FF0BC010950095F094E0942C
:10182000E11CF11C011D111D8DE20E94580BC80125
:10183000B7010E94A10B1F910F91FF90EF900895A7
:101840000E94040C0895CF93DF93EC0103C00E9423
:10185000580B2196FE0184918823C9F7DF91CF911F
:1018600008950E94230C0895CF93DF93EC0103C0E9
:1018700021960E94580B88818823D1F7DF91CF9160
:1018800008950E94340C08950E94580B08950E94F8
:10189000580B0895A0E0B0E0E0E5FCE00C94591A84
:1018A000E82E8091910190919201892B09F405C154
:1018B0002AE0E21609F446C038E0E316C9F4809144
:1018C00094018150809394018F3F51F48091930152
:1018D00081508093930180917D0181508093940188
:1018E000809193018F3F09F0E2C010929301DDC017
:1018F0008E2D0E94580B209193012223C9F030E0D5
:101900002150304080917D0190E0AC01249FC001C6
:10191000259F900D349F900D112420919401E0910A
:101920009101F0919201E80FF91FE20FF11DE082A1
:10193000809194018F5F8093940190917D0189172C
:1019400009F0BBC040919301242F30E080917C01CD
:1019500090E001972817390709F0A4C0C0E0D0E053
:1019600044C080E06C2F0E94060BFF246E01089497
:10197000C11CD11C35C00F2D10E090E09C01C29F0E
:10198000C001C39F900DD29F900D1124E091910151
:10199000F0919201E00FF11FE80FF91F80810E9482
:1019A000580BE0919101F091920180917D0190E0BE
:1019B000C89FD001C99FB00DD89FB00D1124E00F72
:1019C000F11FAE0FBF1FAC01C49EC001C59E900D9C
:1019D000D49E900D1124E80FF91F80818C93F3940D
:1019E00080917D01F81638F2E60160917C01862F26
:1019F00090E00297C817D9070CF4B3CF623008F40F
:101A000040C0625080E00E94060BFF24E0E2DE2E20
:101A100034C00F2D10E080917C0190E0029730E0FF
:101A2000AC01429FC001439F900D529F900D112425
:101A3000E0919101F0919201E00FF11FE80FF91F81
:101A400080810E94580B20917C0130E02250304070
:101A500080917D0190E0AC01249FC001259F900DF5
:101A6000349F900D1124E0919101F0919201E00FCB
:101A7000F11FE80FF91FD082F39420917D01F21637
:101A800040F260917C01615080E00E94060B00E012
:101A900004C080E20E94580B0F5F80917D010817FF
:101AA000C0F303C04F5F4093930110929401809163
:101AB0009401609193010E94060B2E2D332727FD80
:101AC0003095C901CDB7DEB7E8E00C94751AEF92F6
:101AD000FF920F931F93CF93DF937C01062F10E0AB
:101AE000F3E0000F111FFA95E1F7C0E0D0E09E018E
:101AF000200F822F80640E94DA0AF701EC0FFD1F8D
:101B0000E4918E2F0E94580B2196C830D10579F7A9
:101B1000CDB7DEB7E6E00C94771A0E94670D089502
:101B200060E041E00E94A60A08950F931F93CF93AF
:101B3000DF93082F162FEA010BC0002311F488E170
:101B400001C08CE10E94DA0ACE010E947A11115084
:101B5000112399F7DF91CF911F910F9108950E9462
:101B6000950D0895282F883068F481E090E002C038
:101B7000880F991F2A95E2F7282FAAE2B0E0EBE23E
:101B8000F0E029C08E3080F430E02850304081E011
:101B900090E002C0880F991F2A95E2F7282FA4E24F
:101BA000B0E0E5E2F0E017C0853130F020E0A0E0E1
:101BB000B0E0E0E0F0E00FC030E02E50304081E0D7
:101BC00090E002C0880F991F2A95E2F7282FA7E21C
:101BD000B0E0E8E2F0E06F3F19F48081822709C0AD
:101BE000662319F08081822B04C09081822F80951A
:101BF000892380838C91822B8C9308950895089576
:101C0000E0EBF0E083EF8083808184BDE1EBF0E0E6
:101C100082E08083808185BDE4EBF0E010828081EA
:101C2000E3EBF0E08083808188BD88B587BD86E0E6
:101C300060E00E94B20D85E060E00E94B20D8BE092
:101C400060E00E94B20D83E060E00E94B20D089552
:101C500080919A01882329F481E080939A010E945F
:101C6000000E0895CF93DF93EC010E94280ED7FD5C
:101C700002C020E004C0D095C195DF4F21E0CE0125
:101C8000CF3FD10519F014F08FEF90E0222319F027
:101C900018BC87BD02C088BD17BCDF91CF910895E5
:101CA0000E94320E0895CF93DF93EC010E94280E1C
:101CB000D7FD02C020E004C0D095C195DF4F21E0E0
:101CC000CE01CF3FD10519F014F08FEF90E0222321
:101CD00029F01092B4008093B30004C08093B40044
:101CE0001092B300DF91CF9108950E94530E089592
:101CF0000F931F938B010E94320EC8010E94530E56
:101D00001F910F9108950E94780E089508950895E7
:101D1000282F80919B01882391F481E080939B017F
:101D200084B18D7C84B985B1826385B985E090E00A
:101D30006F9364E06A95F1F76F910197C9F783B1EA
:101D400080958223089580919B01882391F481E0FE
:101D500080939B0184B18D7C84B985B1826385B900
:101D600085E090E06F9364E06A95F1F76F910197D9
:101D7000C9F7089584B18D7C84B985B1826385B932
:101D800085E090E06F9364E06A95F1F76F910197B9
:101D9000C9F70895282F80919B01882391F481E051
:101DA00080939B0184B18D7C84B985B1826385B9B0
:101DB00085E090E06F9364E06A95F1F76F91019789
:101DC000C9F783B18095822308950F931F93082F3D
:101DD00013B10E94AB11AB01BC0180919B01882320
:101DE00091F481E080939B0184B18D7C84B985B1AD
:101DF000826385B985E090E06F9364E06A95F1F7BE
:101E00006F910197C9F78091A101813011F1813063
:101E100038F0823009F443C0833009F089C065C0CE
:101E2000202F30E0812F90E0809590952823392352
:101E3000232B09F47DC01095102310939C0140932F
:101E40009D0150939E0160939F017093A00181E0DA
:101E50006DC080919D0190919E01A0919F01B091D4
:101E6000A001481B590B6A0B7B0B4F3051056105D4
:101E7000710508F45DC040919C01812F90E0809530
:101E80009095242F30E082239323892B59F182E00F
:101E90008093A1011095142310939C0149C0E091F7
:101EA0009C01AE2FB0E0212F30E0CD01822393239F
:101EB000892B79F083E08093A101E123E0939C01D9
:101EC00040939D0150939E0160939F017093A001E8
:101ED0002FC0802F90E02095309582239323A81760
:101EE000B90731F11092A10123C080919D01909119
:101EF0009E01A0919F01B091A001481B590B6A0B54
:101F00007B0B4F3051056105710590F040919C01AC
:101F1000842F90E0212F30E082239323892B29F016
:101F20001092A101842F812304C082E08093A1013B
:101F300080E01F910F9108950E94E50E08950F9380
:101F40001F93082F13B110950E94AB11AB01BC0178
:101F500080919B01882391F481E080939B0184B15F
:101F60008D7C84B985B1826385B985E090E06F93FB
:101F700064E06A95F1F76F910197C9F78091A70125
:101F8000813011F1813038F0823009F443C0833060
:101F900009F089C065C0202F30E0812F90E0809546
:101FA000909528233923232B09F47DC01095102305
:101FB0001093A2014093A3015093A4016093A50143
:101FC0007093A60181E06DC08091A3019091A4015E
:101FD000A091A501B091A601481B590B6A0B7B0B80
:101FE0004F3051056105710508F45DC04091A201B3
:101FF000812F90E080959095242F30E082239323C9
:10200000892B59F182E08093A70110951423109336
:10201000A20149C0A091A201212F30E0EA2FF0E0F7
:10202000C9018E239F23892B79F083E08093A70138
:102030001A231093A2014093A3015093A40160932B
:10204000A5017093A6012FC0802F90E020953095B8
:1020500082239323E817F90731F11092A70123C0D7
:102060008091A3019091A401A091A501B091A60136
:10207000481B590B6A0B7B0B4F30510561057105ED
:1020800090F04091A201812F90E0242F30E0822334
:102090009323892B29F01092A701812F842304C058
:1020A00082E08093A70180E01F910F9108950E9424
:1020B0009F0F08951F93CF93DF93182F80919B015B
:1020C000882391F481E080939B0184B18D7C84B955
:1020D00085B1826385B985E090E06F9364E06A958D
:1020E000F1F76F910197C9F7C12FD0E083B190E06C
:1020F0008C239D23892BD1F38AE090E00E947A11F2
:1021000083B190E08C239D23892B81F383B18123BC
:10211000DF91CF911F9108950E945A1008951F9347
:10212000CF93DF93182F80919B01882391F481E056
:1021300080939B0184B18D7C84B985B1826385B91C
:1021400085E090E06F9364E06A95F1F76F910197F5
:10215000C9F7C12FD0E083B190E0809590958C2392
:102160009D23892BC1F38AE090E00E947A1183B10C
:1021700090E0809590958C239D23892B61F383B10A
:1021800080958123DF91CF911F9108951F930E9425
:102190008F10182F0E945A10812F1F9108950E94AE
:1021A000C61008950E948F100895A2E0B0E0EBEDF4
:1021B000F0E10C945F1A2091FE013091FF01CE01F5
:1021C00001962115310519F48850924002C0821BF6
:1021D000930B9A83898389819A812296E2E00C94F9
:1021E0007B1A08950895A2E0B0E0E9EFF0E10C94C5
:1021F0005F1A2091FE013091FF01CE010196211559
:10220000310519F48850924002C0821B930B9A83C7
:10221000898389819A812296E2E00C947B1A2F921D
:102220008F939F932FB68091AC019091AD01019651
:102230008093AC019093AD0190E08091AE01891F35
:102240008093AE019091B4019C5F9093B401809112
:10225000B30180519742C0F09093B4018093B301D1
:102260008091AF019091B00101968093AF0190935E
:10227000B00190E08091B101891F8093B1018091FC
:10228000B201891F8093B2012FBE9F918F912F9031
:1022900018956F5F7F4F8F4F9F4F660F771F881F77
:1022A000991F25E030E040E050E00E94121ACA0178
:1022B000B901089528EE33E009C0F9016F9364E095
:1022C0006A95F1F76F913197C9F701970097A9F7D0
:1022D00008956F5F7F4F8F4F9F4F660F771F881F47
:1022E000991F25E030E040E050E00E94121ACA0138
:1022F000B901089528EE33E009C0F9016F9364E055
:102300006A95F1F76F913197C9F701970097A9F78F
:102310000895A0E7B0E08C918E7F8C93E0EBF0E025
:10232000808183608083E1EBF0E08081807F808327
:10233000808182608083B89A8C9181608C9378943C
:1023400008958091B501882329F481E08093B50137
:102350000E94891108950E94A111E0E7F0E08081B8
:102360008E7F80832091AF013091B0014091B10107
:102370005091B201808181608083B901CA010895C2
:102380000E94AB1108950E94A111809170008E7F70
:10239000809370006091B2008091AB019091AC018C
:1023A000A091AD01B091AE01B89905C0262F30E0E3
:1023B00040E050E011C08091B2002091AB0130911B
:1023C000AC014091AD015091AE0120503F4F4F4FB5
:1023D0005F4F90E0A0E0B0E0282B392B4A2B5B2B1D
:1023E00080917000816080937000B901CA010895E6
:1023F0000E94C31108950E94A111E0E7F0E08081DE
:102400008E7F80831092AF011092B0011092B101C3
:102410001092B2011092B4011092B30180818160D8
:10242000808308950E94FB1108958091B6019091D8
:10243000B70108958091B8019091B90108958091F4
:10244000BA019091BB0108958091BC019091BD01AA
:1024500008958091B6019091B70108958091B801D7
:102460009091B90108958091BA019091BB010895AE
:102470008091BC019091BD010895089586EB91E093
:102480000E943018089586EB91E00E945717089536
:102490009C01462F86EB91E0B90121E00E9457177D
:1024A00008959C01462F86EB91E0B90120E00E943F
:1024B0005717089586EB91E00E949A1608959C01A3
:1024C000462F86EB91E0B9010E949A16089586EB9B
:1024D00091E00E9450190895682F86EB91E00E94C8
:1024E0005019089586EB91E00E947313089586EBCE
:1024F00091E00E947313089586EB91E00E948B1384
:10250000089586EB91E00E948B1308959C01462F5D
:1025100086EB91E0B9010E94FB1508959C01462FBE
:1025200086EB91E0B9010E94FB1508950F93DF93AC
:10253000CF9300D000D00F92CDB7DEB79C01962F7D
:10254000DE011196EFE7F1E085E001900D928150F8
:10255000E1F7BE016F5F7F4F992329F086EB91E091
:1025600045E00FEF04C086EB91E045E003E10E94F7
:10257000F31386EB91E00E9473130E94FB110F90FE
:102580000F900F900F900F90CF91DF910F910895C2
:1025900061E00E949612089560E00E9496120895EC
:1025A00086EB91E00E94A2130895A091FC01B091E6
:1025B000FD011C96ED91FC911D97309779F080817B
:1025C00019969C911997892B80831A96ED91FC910D
:1025D0001B97808119969C91892B80830895A091E7
:1025E000FC01B091FD011C96ED91FC911D97309777
:1025F00081F0808119969C911997892B80831A9676
:10260000ED91FC911B97908119968C91809589236F
:1026100080830895E091FC01F091FD01808191811A
:102620000895E091FC01F091FD018281938108956C
:10263000E091FC01F091FD01848195810895E09184
:10264000FC01F091FD01868197810895FC011182C2
:1026500010821382128215821482178216826131CF
:1026600018F080E1808701C06087208B483060F4DB
:1026700081E090E002C0880F991F4A95E2F74AE294
:1026800050E02BE230E029C04E3080F4242F30E0BF
:102690002850304081E090E002C0880F991F2A95B1
:1026A000E2F744E250E025E230E017C0453130F077
:1026B00080E040E050E020E030E00FC0242F30E028
:1026C0002E50304081E090E002C0880F991F2A957B
:1026D000E2F747E250E028E230E081873387228743
:1026E000558744870895DC011C96ED91FC911D9758
:1026F000309781F0808119969C911997892B80835E
:102700001A96ED91FC911B97908119968C9180956A
:10271000892380830895DC011C96ED91FC911D971F
:10272000309779F0808119969C911997892B808335
:102730001A96ED91FC911B97808119969C91892B9B
:1027400080830895DC0120E040C0ED91FC91119759
:10275000309761F0822F90E0880F991FE80FF91FE2
:102760001E968D919C911F97918380831496ED9175
:10277000FC911597309761F0822F90E0880F991F98
:10278000E80FF91F1E968D919C911F97918380836E
:102790001296ED91FC911397309741F0822F90E0C3
:1027A000880F991FE80FF91F118210821696ED917C
:1027B000FC911797309741F0822F90E0880F991F76
:1027C000E80FF91F118210822F5F18968C911897CD
:1027D000281708F4BACF08958091FC019091FD016B
:1027E0000E94A2130895A0E0B0E0E9EFF3E10C9499
:1027F000571AEC015B01642F7901402F20E00E9401
:102800002613CE018F5B9F4FFC011082DE01AE5B71
:10281000BF4F1C92FE01ED5BFF4F1082FF86EE86DC
:1028200040E061E070E06F017D018C014EC0F50178
:10283000E40FF11D8081883050F49B0102C0220F0B
:10284000331F8A95E2F7922F29E230E01FC08E30C5
:1028500060F490E00897FB0102C0EE0FFF1F8A951D
:10286000E2F79E2F23E230E011C0853120F090E0A6
:1028700020E030E00BC090E00E979B0102C0220FD9
:10288000331F8A95E2F7922F26E230E0E42FF0E042
:10289000DE01AE0FBF1F51969C93EE0FFF1FEC0F92
:1028A000FD1F32A321A32332310511F4F80109C021
:1028B0002632310511F4F70104C02932310521F423
:1028C000F6018081982B90834F5F8885481708F424
:1028D000AECFCDB7DEB7EAE00C94731A0F930E9427
:1028E000F3130F9108950F930E94F3130F9108951E
:1028F000A0E0B0E0EEE7F4E10C94551AEC015B01C6
:10290000CF5BDF4F4991A9918880C354D04090E0BC
:1029100009C0E92FF0E0EE0FFF1FEA0DFB1D118249
:1029200010829F5F88859817A0F384B1CF5BDF4F3B
:102930003991832B84B987B12991822B87B98AB1C8
:102940009881C354D040892B8AB985B1832B85B92E
:1029500088B1822B88B98BB1892B8BB9EAE0F0E082
:102960006F9364E06A95F1F76F913197C9F784B17D
:102970003095832384B987B12095822387B98AB1A2
:10298000909589238AB985B1382335B988B1282330
:1029900028B98BB198239BB99090B000C090B1003A
:1029A0008091B00083608093B00082E08093B1009A
:1029B000D090B20060E070E03AC05091B2005D1972
:1029C000650F711DE3B0E41609F04FC0F6B0FA16BA
:1029D00009F04BC089B1881509F047C025C0A42F64
:1029E000B0E09D01220F331F8501020F131FF80174
:1029F00080819181892BA1F42C0F3D1FF90181A1C8
:102A000092A1FC01208130E0AC0FBD1F51968C914A
:102A100090E028233923232B19F4F8017183608374
:102A20004F5F88854817D8F2D50E4E2DAF2D8E8575
:102A30009F856817790708F29092B000C092B100A4
:102A400020E00FC0E22FF0E0EE0FFF1FEA0DFB1DAC
:102A500080819181892B21F48E859F85918380834C
:102A60002F5F8885281770F305C0E3B0F6B089B0F2
:102A700040E0D7CFCDB7DEB7ECE00C94711AEF92FF
:102A8000FF920F931F93CF93DF93EC017B01122FE3
:102A9000642F402F21E00E94261319A31AA230E0D0
:102AA00041E050E013C0E32FF0E0D701AE0FBF1FAD
:102AB000EC0FFD1F8C91818BCA010C9002C0880F16
:102AC000991F0A94E2F7282B2AA33F5F88852AA141
:102AD000381748F32F732AA38FEF93E09F878E87D1
:102AE000CDB7DEB7E6E00C94771A0F930E943F153E
:102AF0000F9108950F930E943F150F910895A0E044
:102B0000B0E0E5E8F5E10C94591AEC018B01D090A6
:102B10007C00E0907A00C7B0F8B080917A0086FD22
:102B2000FCCF90E009C0E92FF0E0EE0FFF1FE00FAF
:102B3000F11F118210829F5F88859817A0F397B1CB
:102B40008AA18095982397B998B1892388B987E895
:102B500080937A0050E025C0FE01E40FF11D8189C9
:102B6000806480937C0080917A00806480937A00F6
:102B700080917A0086FDFCCFE42FF0E0EE0FFF1F7E
:102B8000E00FF11F209178003091790080819181D0
:102B9000820F931F918380834F5F88854817E0F2EF
:102BA0005F5F89A1581710F040E017C040E0F5CFF3
:102BB000E42FF0E0EE0FFF1FE00FF11F69A1862F59
:102BC00090E09595879520813181820F931F70E069
:102BD0000E94EB19718360834F5F8885481740F32B
:102BE000D0927C00E0927A00F8B8C7B8CDB7DEB7D3
:102BF000E8E00C94751AA0E2B0E0E1E0F6E10C9494
:102C0000581A8C017B01D42E842F81508230B0F46D
:102C1000D8011C96ED91FC911D97309779F0808139
:102C200019969C911997892B80831A96ED91FC91A6
:102C30001B97808119969C91892B8083F80180894C
:102C4000882349F5C02EB12EC801B7010E9478141F
:102C5000D8011C96ED91FC911D97309781F08081F1
:102C600019969C911997892B80831A96ED91FC9166
:102C70001B97908119968C91809589238083B2E06F
:102C8000DB1609F053C08C2D9B2DBE016F5F7F4F6B
:102C90000E94781427C0C02EB12EC801B7010E942F
:102CA0007F15D8011C96ED91FC911D97309781F00E
:102CB000808119969C911997892B80831A96ED91A2
:102CC000FC911B97908119968C9180958923808324
:102CD000B2E0DB1659F58C2D9B2DBE016F5F7F4F47
:102CE0000E947F1540E0BE016F5F7F4F1AC0E42F46
:102CF000F0E0EE0FFF1F6701CE0EDF1EE60FF71F9D
:102D0000D8011E962D913C911F9780819181281B9F
:102D1000390BF60180819181820F931F918380830B
:102D20004F5FD80118968C91481708F3A096E9E0F8
:102D30000C94741AA0E0B0E0E0EAF6E10C94561AA4
:102D4000EC01162F072F942E22E0421711F0442396
:102D500051F48C819D81892B09F4A4C08E819F81BF
:102D6000892B09F49FC0892D8150823050F48881CD
:102D70009981892B09F496C08A819B81892B09F45A
:102D800091C0CE01612F702F492D0E94FB15812F1C
:102D9000902F9C015901CC24DD2400E010E07CC080
:102DA00081E0981669F4EA81FB81E00FF11F208130
:102DB0003181E881F981E00FF11F408151813DC0EF
:102DC000AC81BD81992059F4EE81FF81E00FF11FA4
:102DD00020813181A00FB11F4D915C912EC0A00FB9
:102DE000B11F8D919C91E881F981E00FF11F208145
:102DF0003181EE85FF858217930710F4AF0105C07E
:102E0000A9014E0F5F1F481B590BEE81FF81E00F98
:102E1000F11F60817181EA81FB81E00FF11F8081E8
:102E20009181EE85FF856817790710F49F0105C031
:102E30009C012E0F3F1F261B370B7901E41AF50A60
:102E400001F1F5016081718180E090E09A0140E03C
:102E500050E0621B730B840B950B28EE33E040E0CF
:102E600050E00E94C019970140E050E00E94341ADF
:102E7000C901F3E0293E3F0714F088EE93E097FF85
:102E800002C080E090E0F501819391935F01089486
:102E9000C11CD11C0E5F1F4F888590E0C816D90653
:102EA0000CF47ECFCDB7DEB7EBE00C94721AA4E041
:102EB000B0E0EDE5F7E10C944F1A8C01F62EE72E09
:102EC0002A830E949A16D8011896BC91B9832F2D97
:102ED0003E2DC9018C0155244424662477244301E6
:102EE0001C821B82AA24BB246501B8EE2B2EB3E002
:102EF0003B2E32C0F801E080F180FA81FF2321F0FF
:102F000091012E193F09790139ECE316F10414F00F
:102F10004424439483E3E816F1049CF0B701882726
:102F200077FD8095982FA60195010E94C019660E25
:102F3000771E881E991EAB81BC81AE0DBF1DBC8360
:102F4000AB83539488EE93E0A0E0B0E0A80EB91EE6
:102F5000CA1EDB1E0E5F1F4F9981591658F244207E
:102F600021F5692F70E084EF91E0DC016A9FC001D8
:102F70006B9F900D7A9F900D1124845F914020915A
:102F8000FA013091FB01281739071CF440E050E0AA
:102F90001AC088EE93E0689FA001699F500D789F4A
:102FA000500D1124485E53400EC0EB81FC819F01FF
:102FB00040E050E0C401B3010E94121AA90130930D
:102FC000FB012093FA01CA012496E2E10C946B1AEA
:102FD0009C01462F8091FC019091FD01B90121E0F7
:102FE0000E94571708959C01462F8091FC019091F3
:102FF000FD01B90120E00E94571708959C01462F5A
:103000008091FC019091FD01B9010E949A160895EA
:103010009C01462F8091FC019091FD01B9010E9415
:10302000FB150895CF93DF93EC018A819B81009774
:1030300011F00E94391B8E819F81009711F00E9430
:10304000391B88819981009711F00E94391B8C816E
:103050009D81009711F00E94391BDF91CF91089557
:10306000CF93DF93EC018A819B81009711F00E943E
:10307000391B8E819F81009711F00E94391B888136
:103080009981009711F00E94391B8C819D810097D6
:1030900011F00E94391BDF91CF910895A3E6B0E0B3
:1030A000E4E5F8E10C944F1A7C015B016A01A296F9
:1030B0002FAFA297DA018D919C91892B11F5F70121
:1030C000808590E0880F991F0E948C1AD6018D93FD
:1030D0009C93009709F4DFC020E030E00CC0C901E8
:1030E000880F991FD601ED91FC91E80FF91F11820D
:1030F00010822F5F3F4FF701808590E02817390736
:1031000074F3D5018D919C91892B89F000E010E03A
:103110003E010894611C711C41E4242E312C2C0EBC
:103120003D1E31E2432E512C4C0E5D1E28C0F7018E
:10313000808590E0880F991F0E948C1AD5018D938D
:103140009C93009709F4A7C020E030E011C0C901AA
:10315000880F991FD501ED91FC91E80FF91FD70158
:103160001E968D919C911F97918380832F5F3F4F77
:10317000F701808590E0281739074CF3C7CFC701C6
:10318000B301A2964FADA2970E94FB15D7011896E6
:103190008C91882E9924A101F301A4965FAE4EAEC6
:1031A000A49760E070E034C00115110559F0A496B1
:1031B000AEADBFADA4972D913C9180819181281730
:1031C000390758F480819181A496AEADBFADA49724
:1031D0008D939C930115110541F0DA012D913C91DD
:1031E000808191818217930728F480819181DA018F
:1031F0008D939C936F5F7F4F4E5F5F4F3296A49687
:103200008EAD9FADA4970296A4969FAF8EAFA49764
:10321000681579054CF20F5F1F4F0A30110509F050
:10322000AECF40E050E020E030E08E010F5B1F4F5A
:10323000BE016F5D7F4F28C0F801E20FF31F808051
:103240009180F601A081B181A20FB31F8D919C9155
:1032500011978815990510F48D929C92FB01E20F4D
:10326000F31F80809180F501A081B181A20FB31F6F
:103270008D919C9111978816990610F48D929C92CD
:103280004F5F5F4F2E5F3F4FD70118968C9190E0B4
:10329000481759078CF2CD59DF4FE2E10C946B1AB5
:1032A0001F93CF93DF93EC01162F862F815082302E
:1032B00040F4AE014E5F5F4FCE01BE0121E00E949F
:1032C0004E18123011F0112349F4AE014A5F5F4FDE
:1032D000CE012496BE0120E00E944E18DF91CF91CE
:1032E0001F910895682F8091FC019091FD010E942B
:1032F00050190895A0E0B0E0E0E8F9E10C945A1A02
:103300008C01F62EE42ED22E83E290E00E948C1ADD
:10331000EC01009711F480E00BC0B8014F2D2E2D69
:103320000D2D0E943F15D093FD01C093FC0181E05B
:10333000CDB7DEB7E7E00C94761AA0E0B0E0E3EAA0
:10334000F9E10C94591A8C01D62E7A01C22E84E42C
:1033500090E00E948C1AEC01009711F480E00BC001
:10336000B8014D2D97010C2D0E94F313D093FD0150
:10337000C093FC0181E0CDB7DEB7E8E00C94751A8C
:10338000629FD001739FF001829FE00DF11D649F49
:10339000E00DF11D929FF00D839FF00D749FF00DD5
:1033A000659FF00D9927729FB00DE11DF91F639F76
:1033B000B00DE11DF91FBD01CF0111240895991B26
:1033C00079E004C0991F961708F0961B881F7A951C
:1033D000C9F780950895AA1BBB1B51E107C0AA1F1E
:1033E000BB1FA617B70710F0A61BB70B881F991FA6
:1033F0005A95A9F780959095BC01CD01089597FB4A
:10340000092E07260AD077FD04D0E5DF06D000207C
:103410001AF4709561957F4F0895F6F79095819510
:103420009F4F0895A1E21A2EAA1BBB1BFD010DC0E0
:10343000AA1FBB1FEE1FFF1FA217B307E407F50764
:1034400020F0A21BB30BE40BF50B661F771F881F40
:10345000991F1A9469F760957095809590959B01D6
:10346000AC01BD01CF01089597FB092E05260ED0B2
:1034700057FD04D0D7DF0AD0001C38F45095409592
:10348000309521953F4F4F4F5F4F0895F6F7909538
:103490008095709561957F4F8F4F9F4F08952F9224
:1034A0003F924F925F926F927F928F929F92AF92D4
:1034B000BF92CF92DF92EF92FF920F931F93CF9321
:1034C000DF93CDB7DEB7CA1BDB0B0FB6F894DEBFB8
:1034D0000FBECDBF09942A88398848885F846E84DE
:1034E0007D848C849B84AA84B984C884DF80EE8028
:1034F000FD800C811B81AA81B981CE0FD11D0FB631
:10350000F894DEBF0FBECDBFED010895EE0FFF1F93
:103510000590F491E02D0994CF93DF93BC018230A4
:10352000910510F462E070E0A0910002B0910102F8
:10353000ED01E0E0F0E040E050E021C088819981B9
:103540008617970769F48A819B81309719F09383D6
:10355000828304C09093010280930002FE0134C074
:103560006817790738F44115510519F08417950744
:1035700008F4AC01FE018A819B819C01E90120973E
:10358000E9F641155105A9F1CA01861B970B04976D
:1035900008F4BA01E0E0F0E02AC08D919C91119707
:1035A00084179507F9F46417750781F412968D91C5
:1035B0009C911397309719F09383828304C0909362
:1035C000010280930002FD0132964FC0CA01861BA2
:1035D000970BFD01E80FF91F6193719302978D938B
:1035E0009C9343C0FD01828193819C01D901109776
:1035F000A1F68091FE019091FF01892B41F4809109
:103600008601909187019093FF018093FE01409184
:103610008801509189014115510541F44DB75EB7BC
:103620008091840190918501481B590B2091FE01E6
:103630003091FF0124173507B0F4CA01821B930BA8
:103640008617970780F0AB014E5F5F4F8417950791
:1036500050F0420F531F5093FF014093FE01F901B8
:103660006193719302C0E0E0F0E0CF01DF91CF9170
:103670000895CF93DF93009709F450C0EC0122978F
:103680001B821A82A0910002B0910102109709F1E9
:1036900040E050E0AC17BD0708F1BB83AA83FE01F0
:1036A00021913191E20FF31FAE17BF0779F48D918D
:1036B0009C911197280F391F2E5F3F4F3983288324
:1036C00012968D919C9113979B838A834115510586
:1036D00071F4D0930102C093000220C012968D9124
:1036E0009C911397AD01009711F0DC01D3CFFA0143
:1036F000D383C28321913191E20FF31FCE17DF07ED
:1037000069F488819981280F391F2E5F3F4FFA0194
:10371000318320838A819B8193838283DF91CF9140
:1037200008950F931F93CF93DF938C01EB010097C4
:1037300031F46115710519F420E030E038C081E002
:1037400090E06EE070E00E94DD1BFC019C010097A0
:1037500071F180E88383209771F0D387C28781E875
:1037600083838091020290910302892B21F4F093CC
:103770000302E093020201151105C9F011870087C9
:103780008381826083838091040290910502892B5A
:1037900071F4F0930502E093040280910602909187
:1037A0000702892B21F4F0930702E0930602C90176
:1037B000DF91CF911F910F9108950F931F93CF9396
:1037C000DF93689F8001699F100D789F100D112471
:1037D000C8010E948C1AEC01009729F060E070E0AB
:1037E000A8010E94F91BCE01DF91CF911F910F918B
:1037F0000895DC0101C06D9341505040E0F70895F9
:1038000010E0C4ECD0E004C0FE010E94881A2296A9
:0A381000C63CD107C9F7F894FFCFBA
:10381A006D5600507265737320420000000000006C
:10382A00000000000000000000000000000000008E
:10383A00000000000000000000000000000000007E
:10384A00000000000000000000000000000000006E
:10385A00000000000000000000000000000000005E
:10386A00000000000000000000000000000000004E
:10387A0000000000000000000000000000000064DA
:10388A00008813040400D007F4010F000208010E97
:0A389A000F101112200008020000B8
:00000001FF
